{
  "transactions": [
    {
      "hash": "0xe9e6c01ffec7dbea695d0fb405c7a12c197cad8f9c43bb60c8ea2045d4687d73",
      "transactionType": "CALL",
      "contractName": null,
      "contractAddress": "0x0b306bf915c4d645ff596e518faf3f9669b97016",
      "function": "acceptVerifier(uint8)",
      "arguments": [
        "0"
      ],
      "transaction": {
        "from": "0xf39fd6e51aad88f6f4ce6ab8827279cfffb92266",
        "to": "0x0b306bf915c4d645ff596e518faf3f9669b97016",
        "gas": "0x13318",
        "value": "0x0",
        "input": "0xa63d99630000000000000000000000000000000000000000000000000000000000000000",
        "nonce": "0x38",
        "chainId": "0x7a69"
      },
      "additionalContracts": [],
      "isFixedGasLimit": false
    },
    {
      "hash": "0x66764235165c2601fcd2fcaf5f75c66748a075c6c6608b2ba2d9cbdccd7b31e5",
      "transactionType": "CALL",
      "contractName": null,
      "contractAddress": "0x0b306bf915c4d645ff596e518faf3f9669b97016",
      "function": "acceptVerifier(uint8)",
      "arguments": [
        "1"
      ],
      "transaction": {
        "from": "0xf39fd6e51aad88f6f4ce6ab8827279cfffb92266",
        "to": "0x0b306bf915c4d645ff596e518faf3f9669b97016",
        "gas": "0x1453a",
        "value": "0x0",
        "input": "0xa63d99630000000000000000000000000000000000000000000000000000000000000001",
        "nonce": "0x39",
        "chainId": "0x7a69"
      },
      "additionalContracts": [],
      "isFixedGasLimit": false
    },
    {
      "hash": "0x9e0cd32b54b3230f8f4eec7215876772bc1561bb53af5db9feeaad88391d154a",
      "transactionType": "CALL",
      "contractName": null,
      "contractAddress": "0x0b306bf915c4d645ff596e518faf3f9669b97016",
      "function": "acceptVerifier(uint8)",
      "arguments": [
        "2"
      ],
      "transaction": {
        "from": "0xf39fd6e51aad88f6f4ce6ab8827279cfffb92266",
        "to": "0x0b306bf915c4d645ff596e518faf3f9669b97016",
        "gas": "0x1453a",
        "value": "0x0",
        "input": "0xa63d99630000000000000000000000000000000000000000000000000000000000000002",
        "nonce": "0x3a",
        "chainId": "0x7a69"
      },
      "additionalContracts": [],
      "isFixedGasLimit": false
    },
    {
      "hash": "0x974dd61a7e606c5e59d3df4c11f4c8a7801d2898cb1ccb30f7ce646cc8afd6a7",
      "transactionType": "CALL",
      "contractName": null,
      "contractAddress": "0x0b306bf915c4d645ff596e518faf3f9669b97016",
      "function": "acceptVerifier(uint8)",
      "arguments": [
        "3"
      ],
      "transaction": {
        "from": "0xf39fd6e51aad88f6f4ce6ab8827279cfffb92266",
        "to": "0x0b306bf915c4d645ff596e518faf3f9669b97016",
        "gas": "0x1453a",
        "value": "0x0",
        "input": "0xa63d99630000000000000000000000000000000000000000000000000000000000000003",
        "nonce": "0x3b",
        "chainId": "0x7a69"
      },
      "additionalContracts": [],
      "isFixedGasLimit": false
    },
    {
      "hash": "0x497ba0722e6311fab1d2b97d41f0a2f85410260b5b6614b1f44cb5106fb3b607",
      "transactionType": "CALL",
      "contractName": null,
      "contractAddress": "0x0b306bf915c4d645ff596e518faf3f9669b97016",
      "function": "acceptVerifier(uint8)",
      "arguments": [
        "4"
      ],
      "transaction": {
        "from": "0xf39fd6e51aad88f6f4ce6ab8827279cfffb92266",
        "to": "0x0b306bf915c4d645ff596e518faf3f9669b97016",
        "gas": "0x1453a",
        "value": "0x0",
        "input": "0xa63d99630000000000000000000000000000000000000000000000000000000000000004",
        "nonce": "0x3c",
        "chainId": "0x7a69"
      },
      "additionalContracts": [],
      "isFixedGasLimit": false
    },
    {
      "hash": "0x8844b59fd27be3010f51e352e8cda1df6b098d306c1e8f2816114c7e1d5cdaec",
      "transactionType": "CALL",
      "contractName": null,
      "contractAddress": "0x0b306bf915c4d645ff596e518faf3f9669b97016",
      "function": "acceptVerifier(uint8)",
      "arguments": [
        "5"
      ],
      "transaction": {
        "from": "0xf39fd6e51aad88f6f4ce6ab8827279cfffb92266",
        "to": "0x0b306bf915c4d645ff596e518faf3f9669b97016",
        "gas": "0x1453a",
        "value": "0x0",
        "input": "0xa63d99630000000000000000000000000000000000000000000000000000000000000005",
        "nonce": "0x3d",
        "chainId": "0x7a69"
      },
      "additionalContracts": [],
      "isFixedGasLimit": false
    },
    {
      "hash": "0x1e09e318b532610e1620e270f611a17f715424baa92be1cd9b75a833eac8ed7d",
      "transactionType": "CALL",
      "contractName": null,
      "contractAddress": "0x0b306bf915c4d645ff596e518faf3f9669b97016",
      "function": "acceptVerifier(uint8)",
      "arguments": [
        "6"
      ],
      "transaction": {
        "from": "0xf39fd6e51aad88f6f4ce6ab8827279cfffb92266",
        "to": "0x0b306bf915c4d645ff596e518faf3f9669b97016",
        "gas": "0x1453a",
        "value": "0x0",
        "input": "0xa63d99630000000000000000000000000000000000000000000000000000000000000006",
        "nonce": "0x3e",
        "chainId": "0x7a69"
      },
      "additionalContracts": [],
      "isFixedGasLimit": false
    },
    {
      "hash": "0xce6c48d2e4eb95c65f4512069b3415b5b947ff6a52abd3df1f4b5cb98b76c2c1",
      "transactionType": "CALL",
      "contractName": null,
      "contractAddress": "0x0b306bf915c4d645ff596e518faf3f9669b97016",
      "function": "acceptVerifier(uint8)",
      "arguments": [
        "7"
      ],
      "transaction": {
        "from": "0xf39fd6e51aad88f6f4ce6ab8827279cfffb92266",
        "to": "0x0b306bf915c4d645ff596e518faf3f9669b97016",
        "gas": "0x1453a",
        "value": "0x0",
        "input": "0xa63d99630000000000000000000000000000000000000000000000000000000000000007",
        "nonce": "0x3f",
        "chainId": "0x7a69"
      },
      "additionalContracts": [],
      "isFixedGasLimit": false
    },
    {
      "hash": "0x7a8cbad6152f81a6277705306ea5148e8a1019685136624288220ab3ec50f337",
      "transactionType": "CALL",
      "contractName": null,
      "contractAddress": "0x0b306bf915c4d645ff596e518faf3f9669b97016",
      "function": "acceptVerifier(uint8)",
      "arguments": [
        "8"
      ],
      "transaction": {
        "from": "0xf39fd6e51aad88f6f4ce6ab8827279cfffb92266",
        "to": "0x0b306bf915c4d645ff596e518faf3f9669b97016",
        "gas": "0x1453a",
        "value": "0x0",
        "input": "0xa63d99630000000000000000000000000000000000000000000000000000000000000008",
        "nonce": "0x40",
        "chainId": "0x7a69"
      },
      "additionalContracts": [],
      "isFixedGasLimit": false
    }
  ],
  "receipts": [
    {
      "type": "0x2",
      "status": "0x1",
      "cumulativeGasUsed": "0xde55",
      "logs": [
        {
          "address": "0x0b306bf915c4d645ff596e518faf3f9669b97016",
          "topics": [
            "0xc466fe7ec25807cb9ca5e4b045c2cdc107cf8b58f9989f1994794ff6c55f4312",
            "0x0000000000000000000000000000000000000000000000000000000000000000"
          ],
          "data": "0x0000000000000000000000009a9f2ccfde556a7e9ff0848998aa4a0cfd8863ae",
          "blockHash": "0xd1563875a6607d7ca77313b3d57fb3c75876280353a2712a1dfe159a58d4d0d6",
          "blockNumber": "0x3c",
          "blockTimestamp": "0x6a26a3eb",
          "transactionHash": "0xe9e6c01ffec7dbea695d0fb405c7a12c197cad8f9c43bb60c8ea2045d4687d73",
          "transactionIndex": "0x0",
          "logIndex": "0x0",
          "removed": false
        }
      ],
      "logsBloom": "0x00000000000000001000000000000000100000000000000000000000000000000000000000000000000000000000000000000000000000000000000000000000000000000000000000000000000000080000000040000000000000000000000000000000020000000000000000000800000000000000000000000000000000000000000000000000000000000000000000000000008000000000000000000000000000000000000000000000000000000000000000000000000000000000000000000000000000000000000000000000000000000000000000000000000020000000000000000000000000000000010000000000000000000000000000000000",
      "transactionHash": "0xe9e6c01ffec7dbea695d0fb405c7a12c197cad8f9c43bb60c8ea2045d4687d73",
      "transactionIndex": "0x0",
      "blockHash": "0xd1563875a6607d7ca77313b3d57fb3c75876280353a2712a1dfe159a58d4d0d6",
      "blockNumber": "0x3c",
      "gasUsed": "0xde55",
      "effectiveGasPrice": "0x82456",
      "blobGasPrice": "0x1",
      "from": "0xf39fd6e51aad88f6f4ce6ab8827279cfffb92266",
      "to": "0x0b306bf915c4d645ff596e518faf3f9669b97016",
      "contractAddress": null
    },
    {
      "type": "0x2",
      "status": "0x1",
      "cumulativeGasUsed": "0xde61",
      "logs": [
        {
          "address": "0x0b306bf915c4d645ff596e518faf3f9669b97016",
          "topics": [
            "0xc466fe7ec25807cb9ca5e4b045c2cdc107cf8b58f9989f1994794ff6c55f4312",
            "0x0000000000000000000000000000000000000000000000000000000000000001"
          ],
          "data": "0x0000000000000000000000003aa5ebb10dc797cac828524e59a333d0a371443c",
          "blockHash": "0xf8e2bce1d902c97240fd73cf62b016974f7a8f2fc69530b8271ba15402d1c9e9",
          "blockNumber": "0x3d",
          "blockTimestamp": "0x6a26a3eb",
          "transactionHash": "0x66764235165c2601fcd2fcaf5f75c66748a075c6c6608b2ba2d9cbdccd7b31e5",
          "transactionIndex": "0x0",
          "logIndex": "0x0",
          "removed": false
        }
      ],
      "logsBloom": "0x00000000000000001000000000000000100000000000000000000000000000000000000000000000000000000000000000000000000000000000000000040000000000000000000000000000000000080000000040040000000000000000000000000000000000000000000000000000000000000000000000000000000000000000000000000000000000000000000000000000008000000000000000000000000000000000000000000000000000000000000000000000000000000000000000000000000000000000000000000000000000000000000000000000000040000000000000000000000000000000010000000000000000000000000000000000",
      "transactionHash": "0x66764235165c2601fcd2fcaf5f75c66748a075c6c6608b2ba2d9cbdccd7b31e5",
      "transactionIndex": "0x0",
      "blockHash": "0xf8e2bce1d902c97240fd73cf62b016974f7a8f2fc69530b8271ba15402d1c9e9",
      "blockNumber": "0x3d",
      "gasUsed": "0xde61",
      "effectiveGasPrice": "0x720c9",
      "blobGasPrice": "0x1",
      "from": "0xf39fd6e51aad88f6f4ce6ab8827279cfffb92266",
      "to": "0x0b306bf915c4d645ff596e518faf3f9669b97016",
      "contractAddress": null
    },
    {
      "type": "0x2",
      "status": "0x1",
      "cumulativeGasUsed": "0xde61",
      "logs": [
        {
          "address": "0x0b306bf915c4d645ff596e518faf3f9669b97016",
          "topics": [
            "0xc466fe7ec25807cb9ca5e4b045c2cdc107cf8b58f9989f1994794ff6c55f4312",
            "0x0000000000000000000000000000000000000000000000000000000000000002"
          ],
          "data": "0x00000000000000000000000059b670e9fa9d0a427751af201d676719a970857b",
          "blockHash": "0x292a893b194a6585aa5a5c354f6c587cb35193c1398a1d348e7de5b83eb1126d",
          "blockNumber": "0x3e",
          "blockTimestamp": "0x6a26a3eb",
          "transactionHash": "0xce6c48d2e4eb95c65f4512069b3415b5b947ff6a52abd3df1f4b5cb98b76c2c1",
          "transactionIndex": "0x0",
          "logIndex": "0x0",
          "removed": false
        }
      ],
      "logsBloom": "0x04000000000000001000000000000000100000000000000000000000000000000000000000000000000000000000000000000000000000000000000000000000000000000000000000000000000000080000000040000000000000000000000000000000000000000000000000000000000000000000000000000000000000000000000000000000000000000000000000000000008000000000000000000000000000000000000000000100000000000000000000000000000000000000000000000000000000000000000000000000000000000000000000000000000000000000000000000000000000000000010000000000008000000000000000000000",
      "transactionHash": "0xce6c48d2e4eb95c65f4512069b3415b5b947ff6a52abd3df1f4b5cb98b76c2c1",
      "transactionIndex": "0x0",
      "blockHash": "0x292a893b194a6585aa5a5c354f6c587cb35193c1398a1d348e7de5b83eb1126d",
      "blockNumber": "0x3e",
      "gasUsed": "0xde61",
      "effectiveGasPrice": "0x63d8e",
      "blobGasPrice": "0x1",
      "from": "0xf39fd6e51aad88f6f4ce6ab8827279cfffb92266",
      "to": "0x0b306bf915c4d645ff596e518faf3f9669b97016",
      "contractAddress": null
    },
    {
      "type": "0x2",
      "status": "0x1",
      "cumulativeGasUsed": "0x1bcc2",
      "logs": [
        {
          "address": "0x0b306bf915c4d645ff596e518faf3f9669b97016",
          "topics": [
            "0xc466fe7ec25807cb9ca5e4b045c2cdc107cf8b58f9989f1994794ff6c55f4312",
            "0x0000000000000000000000000000000000000000000000000000000000000003"
          ],
          "data": "0x000000000000000000000000322813fd9a801c5507c9de605d63cea4f2ce6c44",
          "blockHash": "0x292a893b194a6585aa5a5c354f6c587cb35193c1398a1d348e7de5b83eb1126d",
          "blockNumber": "0x3e",
          "blockTimestamp": "0x6a26a3eb",
          "transactionHash": "0x7a8cbad6152f81a6277705306ea5148e8a1019685136624288220ab3ec50f337",
          "transactionIndex": "0x1",
          "logIndex": "0x1",
          "removed": false
        }
      ],
      "logsBloom": "0x00000000000000001000000000000000100000000000000000000000000000000000000000000000000000000000000000000000020000000000000000000000000000000000000000000000000000080000000040000000000000000000000000000000000000000000000000000000000000000000000000000000000000000000000000000000000000000000000000000000008000000000000000000000000000000000000000000000000000000000000000800000000000000000400000000000000000000000000000000000000000000000000000000000000000000000000000000000000000000000010000000000000000000000000000000000",
      "transactionHash": "0x7a8cbad6152f81a6277705306ea5148e8a1019685136624288220ab3ec50f337",
      "transactionIndex": "0x1",
      "blockHash": "0x292a893b194a6585aa5a5c354f6c587cb35193c1398a1d348e7de5b83eb1126d",
      "blockNumber": "0x3e",
      "gasUsed": "0xde61",
      "effectiveGasPrice": "0x63d8e",
      "blobGasPrice": "0x1",
      "from": "0xf39fd6e51aad88f6f4ce6ab8827279cfffb92266",
      "to": "0x0b306bf915c4d645ff596e518faf3f9669b97016",
      "contractAddress": null
    },
    {
      "type": "0x2",
      "status": "0x1",
      "cumulativeGasUsed": "0x29b23",
      "logs": [
        {
          "address": "0x0b306bf915c4d645ff596e518faf3f9669b97016",
          "topics": [
            "0xc466fe7ec25807cb9ca5e4b045c2cdc107cf8b58f9989f1994794ff6c55f4312",
            "0x0000000000000000000000000000000000000000000000000000000000000004"
          ],
          "data": "0x0000000000000000000000004a679253410272dd5232b3ff7cf5dbb88f295319",
          "blockHash": "0x292a893b194a6585aa5a5c354f6c587cb35193c1398a1d348e7de5b83eb1126d",
          "blockNumber": "0x3e",
          "blockTimestamp": "0x6a26a3eb",
          "transactionHash": "0x497ba0722e6311fab1d2b97d41f0a2f85410260b5b6614b1f44cb5106fb3b607",
          "transactionIndex": "0x2",
          "logIndex": "0x2",
          "removed": false
        }
      ],
      "logsBloom": "0x00000000000000001000000000000000100000000000000000000000000000000000000000000000000000000000000000000000000000000000000000000000000000000000000000000000000000080000000040000000000000000000000008000000000000000000000000000000000000000000000000000000000000000000000000000000000000000000000000000000008000000000000000000000000000000000000000000000000000000000000000000000002000000000000000000000000000000000000000000000000000008000000000000000000000000000000000000000000000000000010000000000000000000000000000000000",
      "transactionHash": "0x497ba0722e6311fab1d2b97d41f0a2f85410260b5b6614b1f44cb5106fb3b607",
      "transactionIndex": "0x2",
      "blockHash": "0x292a893b194a6585aa5a5c354f6c587cb35193c1398a1d348e7de5b83eb1126d",
      "blockNumber": "0x3e",
      "gasUsed": "0xde61",
      "effectiveGasPrice": "0x63d8e",
      "blobGasPrice": "0x1",
      "from": "0xf39fd6e51aad88f6f4ce6ab8827279cfffb92266",
      "to": "0x0b306bf915c4d645ff596e518faf3f9669b97016",
      "contractAddress": null
    },
    {
      "type": "0x2",
      "status": "0x1",
      "cumulativeGasUsed": "0x37984",
      "logs": [
        {
          "address": "0x0b306bf915c4d645ff596e518faf3f9669b97016",
          "topics": [
            "0xc466fe7ec25807cb9ca5e4b045c2cdc107cf8b58f9989f1994794ff6c55f4312",
            "0x0000000000000000000000000000000000000000000000000000000000000005"
          ],
          "data": "0x00000000000000000000000009635f643e140090a9a8dcd712ed6285858cebef",
          "blockHash": "0x292a893b194a6585aa5a5c354f6c587cb35193c1398a1d348e7de5b83eb1126d",
          "blockNumber": "0x3e",
          "blockTimestamp": "0x6a26a3eb",
          "transactionHash": "0x1e09e318b532610e1620e270f611a17f715424baa92be1cd9b75a833eac8ed7d",
          "transactionIndex": "0x3",
          "logIndex": "0x3",
          "removed": false
        }
      ],
      "logsBloom": "0x00000000000000001000000000000000100000000000000000000000000000000000000000000000000000000000000000000000000000000000000000000000000010000000000000000000000000080000000040000000000000000000000000000000000000000000000000000000000000000000000000000000000000000000000000000000000000000000001000000800008000000000000000000000000000000000000000000000000000000000000000000000000000000000000000000000000000000000000000000000000000000000000000000000000000000000000000000000000000000000010000000000000000000000000000000000",
      "transactionHash": "0x1e09e318b532610e1620e270f611a17f715424baa92be1cd9b75a833eac8ed7d",
      "transactionIndex": "0x3",
      "blockHash": "0x292a893b194a6585aa5a5c354f6c587cb35193c1398a1d348e7de5b83eb1126d",
      "blockNumber": "0x3e",
      "gasUsed": "0xde61",
      "effectiveGasPrice": "0x63d8e",
      "blobGasPrice": "0x1",
      "from": "0xf39fd6e51aad88f6f4ce6ab8827279cfffb92266",
      "to": "0x0b306bf915c4d645ff596e518faf3f9669b97016",
      "contractAddress": null
    },
    {
      "type": "0x2",
      "status": "0x1",
      "cumulativeGasUsed": "0x457e5",
      "logs": [
        {
          "address": "0x0b306bf915c4d645ff596e518faf3f9669b97016",
          "topics": [
            "0xc466fe7ec25807cb9ca5e4b045c2cdc107cf8b58f9989f1994794ff6c55f4312",
            "0x0000000000000000000000000000000000000000000000000000000000000006"
          ],
          "data": "0x00000000000000000000000067d269191c92caf3cd7723f116c85e6e9bf55933",
          "blockHash": "0x292a893b194a6585aa5a5c354f6c587cb35193c1398a1d348e7de5b83eb1126d",
          "blockNumber": "0x3e",
          "blockTimestamp": "0x6a26a3eb",
          "transactionHash": "0x974dd61a7e606c5e59d3df4c11f4c8a7801d2898cb1ccb30f7ce646cc8afd6a7",
          "transactionIndex": "0x4",
          "logIndex": "0x4",
          "removed": false
        }
      ],
      "logsBloom": "0x00000000000000001000000000000000100000000000000000000000000000000000000000000000000000000000000000000000000400000000000000000000000000000000000000000000000000080000000040000000000000000000000000000000000000000000000000000000000000000000000000000000000000000000000400000000000000000000000000000000008000000000000000000000000000000000000000000000000000000000000000000000000000080000000000000000000000000000000000000000000000000000000000000000000000000000000000000000000000000000010000000000000000000000000000000000",
      "transactionHash": "0x974dd61a7e606c5e59d3df4c11f4c8a7801d2898cb1ccb30f7ce646cc8afd6a7",
      "transactionIndex": "0x4",
      "blockHash": "0x292a893b194a6585aa5a5c354f6c587cb35193c1398a1d348e7de5b83eb1126d",
      "blockNumber": "0x3e",
      "gasUsed": "0xde61",
      "effectiveGasPrice": "0x63d8e",
      "blobGasPrice": "0x1",
      "from": "0xf39fd6e51aad88f6f4ce6ab8827279cfffb92266",
      "to": "0x0b306bf915c4d645ff596e518faf3f9669b97016",
      "contractAddress": null
    },
    {
      "type": "0x2",
      "status": "0x1",
      "cumulativeGasUsed": "0x53646",
      "logs": [
        {
          "address": "0x0b306bf915c4d645ff596e518faf3f9669b97016",
          "topics": [
            "0xc466fe7ec25807cb9ca5e4b045c2cdc107cf8b58f9989f1994794ff6c55f4312",
            "0x0000000000000000000000000000000000000000000000000000000000000007"
          ],
          "data": "0x000000000000000000000000c3e53f4d16ae77db1c982e75a937b9f60fe63690",
          "blockHash": "0x292a893b194a6585aa5a5c354f6c587cb35193c1398a1d348e7de5b83eb1126d",
          "blockNumber": "0x3e",
          "blockTimestamp": "0x6a26a3eb",
          "transactionHash": "0x8844b59fd27be3010f51e352e8cda1df6b098d306c1e8f2816114c7e1d5cdaec",
          "transactionIndex": "0x5",
          "logIndex": "0x5",
          "removed": false
        }
      ],
      "logsBloom": "0x00000000000000001000000000000000100000000000000000000000000000000000000000000000000000000000000000001000000000000000000000000000000020000000000000000000000000080000000040000000000000000000000000000000000000000000000000000000000000000000000000000000000000000000000000000000000000000000000000000000008000000000000000000000000000000000000000000000000000000000000000000000000000000000000000000000000000000000000000000000000000000000000000000100000000000000000000000000000000000000010000000000000000000000000000000000",
      "transactionHash": "0x8844b59fd27be3010f51e352e8cda1df6b098d306c1e8f2816114c7e1d5cdaec",
      "transactionIndex": "0x5",
      "blockHash": "0x292a893b194a6585aa5a5c354f6c587cb35193c1398a1d348e7de5b83eb1126d",
      "blockNumber": "0x3e",
      "gasUsed": "0xde61",
      "effectiveGasPrice": "0x63d8e",
      "blobGasPrice": "0x1",
      "from": "0xf39fd6e51aad88f6f4ce6ab8827279cfffb92266",
      "to": "0x0b306bf915c4d645ff596e518faf3f9669b97016",
      "contractAddress": null
    },
    {
      "type": "0x2",
      "status": "0x1",
      "cumulativeGasUsed": "0x614a7",
      "logs": [
        {
          "address": "0x0b306bf915c4d645ff596e518faf3f9669b97016",
          "topics": [
            "0xc466fe7ec25807cb9ca5e4b045c2cdc107cf8b58f9989f1994794ff6c55f4312",
            "0x0000000000000000000000000000000000000000000000000000000000000008"
          ],
          "data": "0x0000000000000000000000009e545e3c0baab3e08cdfd552c960a1050f373042",
          "blockHash": "0x292a893b194a6585aa5a5c354f6c587cb35193c1398a1d348e7de5b83eb1126d",
          "blockNumber": "0x3e",
          "blockTimestamp": "0x6a26a3eb",
          "transactionHash": "0x9e0cd32b54b3230f8f4eec7215876772bc1561bb53af5db9feeaad88391d154a",
          "transactionIndex": "0x6",
          "logIndex": "0x6",
          "removed": false
        }
      ],
      "logsBloom": "0x00000000000000001000000000000000100000000000000000000000000000000000000000000000000000000000000000000000000080000000000000000000000000000000000000000000000000080000000040000000000000000000000000000000000000000000000000000000000000000000000000000000000000000080000000000000000000000000000000000000008000000000000000000000000000000000000000000000000000000000000000000000000000000000000040000000000000000000000000000000000000000000000000000000000000000000000000000000000000000000010000000000000000000000000000000000",
      "transactionHash": "0x9e0cd32b54b3230f8f4eec7215876772bc1561bb53af5db9feeaad88391d154a",
      "transactionIndex": "0x6",
      "blockHash": "0x292a893b194a6585aa5a5c354f6c587cb35193c1398a1d348e7de5b83eb1126d",
      "blockNumber": "0x3e",
      "gasUsed": "0xde61",
      "effectiveGasPrice": "0x63d8e",
      "blobGasPrice": "0x1",
      "from": "0xf39fd6e51aad88f6f4ce6ab8827279cfffb92266",
      "to": "0x0b306bf915c4d645ff596e518faf3f9669b97016",
      "contractAddress": null
    }
  ],
  "libraries": [],
  "pending": [],
  "returns": {},
  "timestamp": 1780744426815,
  "chain": 31337,
  "commit": "63ac658"
}