{
  "transactions": [
    {
      "hash": "0x296fef38c6b443c58959f43cdc30d888f18c69c74020d53355e40d8c77290f07",
      "transactionType": "CALL",
      "contractName": null,
      "contractAddress": "0x8a791620dd6260079bf849dc5567adc3f2fdc318",
      "function": "acceptVerifier(uint8)",
      "arguments": [
        "0"
      ],
      "transaction": {
        "from": "0xf39fd6e51aad88f6f4ce6ab8827279cfffb92266",
        "to": "0x8a791620dd6260079bf849dc5567adc3f2fdc318",
        "gas": "0x1172c",
        "value": "0x0",
        "input": "0xa63d99630000000000000000000000000000000000000000000000000000000000000000",
        "nonce": "0x21",
        "chainId": "0x7a69"
      },
      "additionalContracts": [],
      "isFixedGasLimit": false
    },
    {
      "hash": "0x5872ab0b777affb214cf0419bbca60385f32da4674a24ab0eea019aa9a3f0163",
      "transactionType": "CALL",
      "contractName": null,
      "contractAddress": "0x8a791620dd6260079bf849dc5567adc3f2fdc318",
      "function": "acceptVerifier(uint8)",
      "arguments": [
        "1"
      ],
      "transaction": {
        "from": "0xf39fd6e51aad88f6f4ce6ab8827279cfffb92266",
        "to": "0x8a791620dd6260079bf849dc5567adc3f2fdc318",
        "gas": "0x127ab",
        "value": "0x0",
        "input": "0xa63d99630000000000000000000000000000000000000000000000000000000000000001",
        "nonce": "0x22",
        "chainId": "0x7a69"
      },
      "additionalContracts": [],
      "isFixedGasLimit": false
    },
    {
      "hash": "0xbbf150f18bae9d6e44cba68e73db2f72606e5c512b8adb7815ccb7c0d59336fb",
      "transactionType": "CALL",
      "contractName": null,
      "contractAddress": "0x8a791620dd6260079bf849dc5567adc3f2fdc318",
      "function": "acceptVerifier(uint8)",
      "arguments": [
        "2"
      ],
      "transaction": {
        "from": "0xf39fd6e51aad88f6f4ce6ab8827279cfffb92266",
        "to": "0x8a791620dd6260079bf849dc5567adc3f2fdc318",
        "gas": "0x127ab",
        "value": "0x0",
        "input": "0xa63d99630000000000000000000000000000000000000000000000000000000000000002",
        "nonce": "0x23",
        "chainId": "0x7a69"
      },
      "additionalContracts": [],
      "isFixedGasLimit": false
    },
    {
      "hash": "0xc72e2cc36d5d22e7778f793f2e36b7e06f1ef7ea4470da622359dfc558ce1fb3",
      "transactionType": "CALL",
      "contractName": null,
      "contractAddress": "0x8a791620dd6260079bf849dc5567adc3f2fdc318",
      "function": "acceptVerifier(uint8)",
      "arguments": [
        "3"
      ],
      "transaction": {
        "from": "0xf39fd6e51aad88f6f4ce6ab8827279cfffb92266",
        "to": "0x8a791620dd6260079bf849dc5567adc3f2fdc318",
        "gas": "0x127ab",
        "value": "0x0",
        "input": "0xa63d99630000000000000000000000000000000000000000000000000000000000000003",
        "nonce": "0x24",
        "chainId": "0x7a69"
      },
      "additionalContracts": [],
      "isFixedGasLimit": false
    },
    {
      "hash": "0x9c8abcc2fb687659e8a64e62a446d736e847bb33174f1c2d5456277e5d327cec",
      "transactionType": "CALL",
      "contractName": null,
      "contractAddress": "0x8a791620dd6260079bf849dc5567adc3f2fdc318",
      "function": "acceptVerifier(uint8)",
      "arguments": [
        "4"
      ],
      "transaction": {
        "from": "0xf39fd6e51aad88f6f4ce6ab8827279cfffb92266",
        "to": "0x8a791620dd6260079bf849dc5567adc3f2fdc318",
        "gas": "0x127ab",
        "value": "0x0",
        "input": "0xa63d99630000000000000000000000000000000000000000000000000000000000000004",
        "nonce": "0x25",
        "chainId": "0x7a69"
      },
      "additionalContracts": [],
      "isFixedGasLimit": false
    }
  ],
  "receipts": [
    {
      "type": "0x2",
      "status": "0x1",
      "cumulativeGasUsed": "0xca1f",
      "logs": [
        {
          "address": "0x8a791620dd6260079bf849dc5567adc3f2fdc318",
          "topics": [
            "0xc466fe7ec25807cb9ca5e4b045c2cdc107cf8b58f9989f1994794ff6c55f4312",
            "0x0000000000000000000000000000000000000000000000000000000000000000"
          ],
          "data": "0x000000000000000000000000610178da211fef7d417bc0e6fed39f05609ad788",
          "blockHash": "0x42aeab50f92c6b20410767cb6323d10c6fb0c61e9b68628b155b4cb8d15304a2",
          "blockNumber": "0x27",
          "blockTimestamp": "0x6a1c2cce",
          "transactionHash": "0x296fef38c6b443c58959f43cdc30d888f18c69c74020d53355e40d8c77290f07",
          "transactionIndex": "0x0",
          "logIndex": "0x0",
          "removed": false
        }
      ],
      "logsBloom": "0x00000000000000000000000000000000100000000000000000000000000000000000000000000000000000000000000000000000000000000000000000000000000000000000000000000000000000080000000040000000000000000000000000000000020000000000000000000800000000000000000000000000000000000000000000000000000000000000000000000000000000000000000000000000002000000000000000000000008000000000000000000000000000000000000000000000000000000000000000000000040000000000000000000000000020000000000000000000000000000000000000000000000000000000000000000000",
      "transactionHash": "0x296fef38c6b443c58959f43cdc30d888f18c69c74020d53355e40d8c77290f07",
      "transactionIndex": "0x0",
      "blockHash": "0x42aeab50f92c6b20410767cb6323d10c6fb0c61e9b68628b155b4cb8d15304a2",
      "blockNumber": "0x27",
      "gasUsed": "0xca1f",
      "effectiveGasPrice": "0x730c7c",
      "blobGasPrice": "0x1",
      "from": "0xf39fd6e51aad88f6f4ce6ab8827279cfffb92266",
      "to": "0x8a791620dd6260079bf849dc5567adc3f2fdc318",
      "contractAddress": null
    },
    {
      "type": "0x2",
      "status": "0x1",
      "cumulativeGasUsed": "0xca2b",
      "logs": [
        {
          "address": "0x8a791620dd6260079bf849dc5567adc3f2fdc318",
          "topics": [
            "0xc466fe7ec25807cb9ca5e4b045c2cdc107cf8b58f9989f1994794ff6c55f4312",
            "0x0000000000000000000000000000000000000000000000000000000000000001"
          ],
          "data": "0x000000000000000000000000b7f8bc63bbcad18155201308c8f3540b07f84f5e",
          "blockHash": "0x912eab1afdd1d2257a7d965d0bccdae029fa1aba7dfbe38f769ccaef5cbd27ba",
          "blockNumber": "0x28",
          "blockTimestamp": "0x6a1c2cce",
          "transactionHash": "0x5872ab0b777affb214cf0419bbca60385f32da4674a24ab0eea019aa9a3f0163",
          "transactionIndex": "0x0",
          "logIndex": "0x0",
          "removed": false
        }
      ],
      "logsBloom": "0x00000000000000000000000000000000100000000000000000000000000000000000000000000000000000000000000000000000000000000000000000040000000000000000000000000000000000080000000040040000000000000000000000000000000000000000000000000000000000000000000000000000000000000000000000000000000000000000000000000000000000000000000000000000002000000000000000000000008000000000000000000000000000000000000000000000000000000000000000000000040000000000000000000000000040000000000000000000000000000000000000000000000000000000000000000000",
      "transactionHash": "0x5872ab0b777affb214cf0419bbca60385f32da4674a24ab0eea019aa9a3f0163",
      "transactionIndex": "0x0",
      "blockHash": "0x912eab1afdd1d2257a7d965d0bccdae029fa1aba7dfbe38f769ccaef5cbd27ba",
      "blockNumber": "0x28",
      "gasUsed": "0xca2b",
      "effectiveGasPrice": "0x64b7a0",
      "blobGasPrice": "0x1",
      "from": "0xf39fd6e51aad88f6f4ce6ab8827279cfffb92266",
      "to": "0x8a791620dd6260079bf849dc5567adc3f2fdc318",
      "contractAddress": null
    },
    {
      "type": "0x2",
      "status": "0x1",
      "cumulativeGasUsed": "0xca2b",
      "logs": [
        {
          "address": "0x8a791620dd6260079bf849dc5567adc3f2fdc318",
          "topics": [
            "0xc466fe7ec25807cb9ca5e4b045c2cdc107cf8b58f9989f1994794ff6c55f4312",
            "0x0000000000000000000000000000000000000000000000000000000000000002"
          ],
          "data": "0x000000000000000000000000a51c1fc2f0d1a1b8494ed1fe312d7c3a78ed91c0",
          "blockHash": "0x4010c2b39badeced66defe08ddf6f581f50f6ea50bba142a18bb0f58e25efee0",
          "blockNumber": "0x29",
          "blockTimestamp": "0x6a1c2cce",
          "transactionHash": "0xc72e2cc36d5d22e7778f793f2e36b7e06f1ef7ea4470da622359dfc558ce1fb3",
          "transactionIndex": "0x0",
          "logIndex": "0x0",
          "removed": false
        }
      ],
      "logsBloom": "0x04000000000000000000000000000000100000000000000000000000000000000000000000000000000000000000000000000000000000000000000000000000000000000000000000000000000000080000000040000000000000000000000000000000000000000000000000000000000000000000000000000000000000000000000000000000000000000000000000000000000000000000000000000000002000000000000000000100008000000000000000000000000000000000000000000000000000000000000000000000040000000000000000000000000000000000000000000000000000000000000000000000008000000000000000000000",
      "transactionHash": "0xc72e2cc36d5d22e7778f793f2e36b7e06f1ef7ea4470da622359dfc558ce1fb3",
      "transactionIndex": "0x0",
      "blockHash": "0x4010c2b39badeced66defe08ddf6f581f50f6ea50bba142a18bb0f58e25efee0",
      "blockNumber": "0x29",
      "gasUsed": "0xca2b",
      "effectiveGasPrice": "0x582bcb",
      "blobGasPrice": "0x1",
      "from": "0xf39fd6e51aad88f6f4ce6ab8827279cfffb92266",
      "to": "0x8a791620dd6260079bf849dc5567adc3f2fdc318",
      "contractAddress": null
    },
    {
      "type": "0x2",
      "status": "0x1",
      "cumulativeGasUsed": "0x19456",
      "logs": [
        {
          "address": "0x8a791620dd6260079bf849dc5567adc3f2fdc318",
          "topics": [
            "0xc466fe7ec25807cb9ca5e4b045c2cdc107cf8b58f9989f1994794ff6c55f4312",
            "0x0000000000000000000000000000000000000000000000000000000000000003"
          ],
          "data": "0x0000000000000000000000000dcd1bf9a1b36ce34237eeafef220932846bcd82",
          "blockHash": "0x4010c2b39badeced66defe08ddf6f581f50f6ea50bba142a18bb0f58e25efee0",
          "blockNumber": "0x29",
          "blockTimestamp": "0x6a1c2cce",
          "transactionHash": "0xbbf150f18bae9d6e44cba68e73db2f72606e5c512b8adb7815ccb7c0d59336fb",
          "transactionIndex": "0x1",
          "logIndex": "0x1",
          "removed": false
        }
      ],
      "logsBloom": "0x00000000000000000000000000000000100000000000000000000000000000000000000000000000000000000000000000000000020000000000000000000000000000000000000000000000000000080000000040000000000000000000000000000000000000000000000000000000000000000000000000000000000000000000000000000000000000000000000000000000000000000000000000000000002000000000000000000000008000000000000000800000000000000000400000000000000000000000000000000000040000000000000000000000000000000000000000000000000000000000000000000000000000000000000000000000",
      "transactionHash": "0xbbf150f18bae9d6e44cba68e73db2f72606e5c512b8adb7815ccb7c0d59336fb",
      "transactionIndex": "0x1",
      "blockHash": "0x4010c2b39badeced66defe08ddf6f581f50f6ea50bba142a18bb0f58e25efee0",
      "blockNumber": "0x29",
      "gasUsed": "0xca2b",
      "effectiveGasPrice": "0x582bcb",
      "blobGasPrice": "0x1",
      "from": "0xf39fd6e51aad88f6f4ce6ab8827279cfffb92266",
      "to": "0x8a791620dd6260079bf849dc5567adc3f2fdc318",
      "contractAddress": null
    },
    {
      "type": "0x2",
      "status": "0x1",
      "cumulativeGasUsed": "0x25e81",
      "logs": [
        {
          "address": "0x8a791620dd6260079bf849dc5567adc3f2fdc318",
          "topics": [
            "0xc466fe7ec25807cb9ca5e4b045c2cdc107cf8b58f9989f1994794ff6c55f4312",
            "0x0000000000000000000000000000000000000000000000000000000000000004"
          ],
          "data": "0x0000000000000000000000009a676e781a523b5d0c0e43731313a708cb607508",
          "blockHash": "0x4010c2b39badeced66defe08ddf6f581f50f6ea50bba142a18bb0f58e25efee0",
          "blockNumber": "0x29",
          "blockTimestamp": "0x6a1c2cce",
          "transactionHash": "0x9c8abcc2fb687659e8a64e62a446d736e847bb33174f1c2d5456277e5d327cec",
          "transactionIndex": "0x2",
          "logIndex": "0x2",
          "removed": false
        }
      ],
      "logsBloom": "0x00000000000000000000000000000000100000000000000000000000000000000000000000000000000000000000000000000000000000000000000000000000000000000000000000000000000000080000000040000000000000000000000008000000000000000000000000000000000000000000000000000000000000000000000000000000000000000000000000000000000000000000000000000000002000000000000000000000008000000000000000000000002000000000000000000000000000000000000000000000040000008000000000000000000000000000000000000000000000000000000000000000000000000000000000000000",
      "transactionHash": "0x9c8abcc2fb687659e8a64e62a446d736e847bb33174f1c2d5456277e5d327cec",
      "transactionIndex": "0x2",
      "blockHash": "0x4010c2b39badeced66defe08ddf6f581f50f6ea50bba142a18bb0f58e25efee0",
      "blockNumber": "0x29",
      "gasUsed": "0xca2b",
      "effectiveGasPrice": "0x582bcb",
      "blobGasPrice": "0x1",
      "from": "0xf39fd6e51aad88f6f4ce6ab8827279cfffb92266",
      "to": "0x8a791620dd6260079bf849dc5567adc3f2fdc318",
      "contractAddress": null
    }
  ],
  "libraries": [],
  "pending": [],
  "returns": {},
  "timestamp": 1780058573068,
  "chain": 31337,
  "commit": "4c47813"
}