{
  "transactions": [
    {
      "hash": "0x5c8a0e7110661796f97567e84af9250a70c8303c3a8ba3c272f277184ec6ce95",
      "transactionType": "CALL",
      "contractName": null,
      "contractAddress": "0x9a676e781a523b5d0c0e43731313a708cb607508",
      "function": "acceptVerifier(uint8)",
      "arguments": [
        "0"
      ],
      "transaction": {
        "from": "0xf39fd6e51aad88f6f4ce6ab8827279cfffb92266",
        "to": "0x9a676e781a523b5d0c0e43731313a708cb607508",
        "gas": "0x14548",
        "value": "0x0",
        "input": "0xa63d99630000000000000000000000000000000000000000000000000000000000000000",
        "nonce": "0x34",
        "chainId": "0x7a69"
      },
      "additionalContracts": [],
      "isFixedGasLimit": false
    },
    {
      "hash": "0x4f26238e0bc5adc74a9eb1753c24f6335d46f917af625da0b3c1c7e1eaad5689",
      "transactionType": "CALL",
      "contractName": null,
      "contractAddress": "0x9a676e781a523b5d0c0e43731313a708cb607508",
      "function": "acceptVerifier(uint8)",
      "arguments": [
        "1"
      ],
      "transaction": {
        "from": "0xf39fd6e51aad88f6f4ce6ab8827279cfffb92266",
        "to": "0x9a676e781a523b5d0c0e43731313a708cb607508",
        "gas": "0x13347",
        "value": "0x0",
        "input": "0xa63d99630000000000000000000000000000000000000000000000000000000000000001",
        "nonce": "0x35",
        "chainId": "0x7a69"
      },
      "additionalContracts": [],
      "isFixedGasLimit": false
    },
    {
      "hash": "0x0c542decaa84caba3db4b1297d7696666d16a8b643c757f897a92888d398ac71",
      "transactionType": "CALL",
      "contractName": null,
      "contractAddress": "0x9a676e781a523b5d0c0e43731313a708cb607508",
      "function": "acceptVerifier(uint8)",
      "arguments": [
        "2"
      ],
      "transaction": {
        "from": "0xf39fd6e51aad88f6f4ce6ab8827279cfffb92266",
        "to": "0x9a676e781a523b5d0c0e43731313a708cb607508",
        "gas": "0x13347",
        "value": "0x0",
        "input": "0xa63d99630000000000000000000000000000000000000000000000000000000000000002",
        "nonce": "0x36",
        "chainId": "0x7a69"
      },
      "additionalContracts": [],
      "isFixedGasLimit": false
    },
    {
      "hash": "0x9b1e3e72213115bd99708817815b221289dfc001ee1a28fbc4d7ea8f217fb7d9",
      "transactionType": "CALL",
      "contractName": null,
      "contractAddress": "0x9a676e781a523b5d0c0e43731313a708cb607508",
      "function": "acceptVerifier(uint8)",
      "arguments": [
        "3"
      ],
      "transaction": {
        "from": "0xf39fd6e51aad88f6f4ce6ab8827279cfffb92266",
        "to": "0x9a676e781a523b5d0c0e43731313a708cb607508",
        "gas": "0x13347",
        "value": "0x0",
        "input": "0xa63d99630000000000000000000000000000000000000000000000000000000000000003",
        "nonce": "0x37",
        "chainId": "0x7a69"
      },
      "additionalContracts": [],
      "isFixedGasLimit": false
    },
    {
      "hash": "0x96b8dd0050faa1ce69105b4981d9daeb861bc8bdcabaf41768d79d764a09e546",
      "transactionType": "CALL",
      "contractName": null,
      "contractAddress": "0x9a676e781a523b5d0c0e43731313a708cb607508",
      "function": "acceptVerifier(uint8)",
      "arguments": [
        "4"
      ],
      "transaction": {
        "from": "0xf39fd6e51aad88f6f4ce6ab8827279cfffb92266",
        "to": "0x9a676e781a523b5d0c0e43731313a708cb607508",
        "gas": "0x13347",
        "value": "0x0",
        "input": "0xa63d99630000000000000000000000000000000000000000000000000000000000000004",
        "nonce": "0x38",
        "chainId": "0x7a69"
      },
      "additionalContracts": [],
      "isFixedGasLimit": false
    },
    {
      "hash": "0x50dd010297a7a9dfdaa76d29a17f5690f7e5126008156eb6e3b1387da91e951a",
      "transactionType": "CALL",
      "contractName": null,
      "contractAddress": "0x9a676e781a523b5d0c0e43731313a708cb607508",
      "function": "acceptVerifier(uint8)",
      "arguments": [
        "5"
      ],
      "transaction": {
        "from": "0xf39fd6e51aad88f6f4ce6ab8827279cfffb92266",
        "to": "0x9a676e781a523b5d0c0e43731313a708cb607508",
        "gas": "0x13347",
        "value": "0x0",
        "input": "0xa63d99630000000000000000000000000000000000000000000000000000000000000005",
        "nonce": "0x39",
        "chainId": "0x7a69"
      },
      "additionalContracts": [],
      "isFixedGasLimit": false
    },
    {
      "hash": "0xdd8da18ef4b2318ddb641a5a4392bff535aaffbefc45f9cd27da422dc0034c8e",
      "transactionType": "CALL",
      "contractName": null,
      "contractAddress": "0x9a676e781a523b5d0c0e43731313a708cb607508",
      "function": "acceptVerifier(uint8)",
      "arguments": [
        "6"
      ],
      "transaction": {
        "from": "0xf39fd6e51aad88f6f4ce6ab8827279cfffb92266",
        "to": "0x9a676e781a523b5d0c0e43731313a708cb607508",
        "gas": "0x13347",
        "value": "0x0",
        "input": "0xa63d99630000000000000000000000000000000000000000000000000000000000000006",
        "nonce": "0x3a",
        "chainId": "0x7a69"
      },
      "additionalContracts": [],
      "isFixedGasLimit": false
    },
    {
      "hash": "0x82072a37bd36c5fe0b9be7943f3703f88019899704fa04700dd23ca995ccf141",
      "transactionType": "CALL",
      "contractName": null,
      "contractAddress": "0x9a676e781a523b5d0c0e43731313a708cb607508",
      "function": "acceptVerifier(uint8)",
      "arguments": [
        "7"
      ],
      "transaction": {
        "from": "0xf39fd6e51aad88f6f4ce6ab8827279cfffb92266",
        "to": "0x9a676e781a523b5d0c0e43731313a708cb607508",
        "gas": "0x13347",
        "value": "0x0",
        "input": "0xa63d99630000000000000000000000000000000000000000000000000000000000000007",
        "nonce": "0x3b",
        "chainId": "0x7a69"
      },
      "additionalContracts": [],
      "isFixedGasLimit": false
    }
  ],
  "receipts": [
    {
      "type": "0x2",
      "status": "0x1",
      "cumulativeGasUsed": "0xde6b",
      "logs": [
        {
          "address": "0x9a676e781a523b5d0c0e43731313a708cb607508",
          "topics": [
            "0xc466fe7ec25807cb9ca5e4b045c2cdc107cf8b58f9989f1994794ff6c55f4312",
            "0x0000000000000000000000000000000000000000000000000000000000000000"
          ],
          "data": "0x000000000000000000000000959922be3caee4b8cd9a407cc3ac1c251c2007b1",
          "blockHash": "0x71f3212c5f00390f26eed684fa7f17027bc9a8d79a9868d38fbad08bcb9e7d44",
          "blockNumber": "0x38",
          "blockTimestamp": "0x6a21a571",
          "transactionHash": "0x5c8a0e7110661796f97567e84af9250a70c8303c3a8ba3c272f277184ec6ce95",
          "transactionIndex": "0x0",
          "logIndex": "0x0",
          "removed": false
        }
      ],
      "logsBloom": "0x00000000000080000000000000000000100000000000000000000000000000000000000000000000000000000000001000000000000000000000000000000000000000000000000000000000000000080000000040000000000000000000000000000000020000000000000000000800000000000000000000000000000000000000000000000000000000000000000000000000000000000000000000000000000000000000000000000000800000000000000000000000000000000000000000000000000000000000000000000000000000000000000000000000000020000000000000000000000000000000000000000000000000000000000000000000",
      "transactionHash": "0x5c8a0e7110661796f97567e84af9250a70c8303c3a8ba3c272f277184ec6ce95",
      "transactionIndex": "0x0",
      "blockHash": "0x71f3212c5f00390f26eed684fa7f17027bc9a8d79a9868d38fbad08bcb9e7d44",
      "blockNumber": "0x38",
      "gasUsed": "0xde6b",
      "effectiveGasPrice": "0xd78db",
      "blobGasPrice": "0x1",
      "from": "0xf39fd6e51aad88f6f4ce6ab8827279cfffb92266",
      "to": "0x9a676e781a523b5d0c0e43731313a708cb607508",
      "contractAddress": null
    },
    {
      "type": "0x2",
      "status": "0x1",
      "cumulativeGasUsed": "0xde77",
      "logs": [
        {
          "address": "0x9a676e781a523b5d0c0e43731313a708cb607508",
          "topics": [
            "0xc466fe7ec25807cb9ca5e4b045c2cdc107cf8b58f9989f1994794ff6c55f4312",
            "0x0000000000000000000000000000000000000000000000000000000000000001"
          ],
          "data": "0x00000000000000000000000068b1d87f95878fe05b998f19b66f4baba5de1aed",
          "blockHash": "0xc451564a5a1ff5d4b5f30ee7ed99c5bab3c89567b8ac092e275780224a7cf9f7",
          "blockNumber": "0x39",
          "blockTimestamp": "0x6a21a571",
          "transactionHash": "0xdd8da18ef4b2318ddb641a5a4392bff535aaffbefc45f9cd27da422dc0034c8e",
          "transactionIndex": "0x0",
          "logIndex": "0x0",
          "removed": false
        }
      ],
      "logsBloom": "0x00000000000080000000000000000000100000000000000000000000000000000000000000000000000000000000001000000000000000000000000000040000000000000000000000000000000000080000000040040000000000000000000000000000000000000000000000000000000000000000000000000000000000000000000000000000000000000000000000000000000000000000000000000000000000000000000000000000800000000000000000000000000000000000000000000000000000000000000000000000000000000000000000000000000040000000000000000000000000000000000000000000000000000000000000000000",
      "transactionHash": "0xdd8da18ef4b2318ddb641a5a4392bff535aaffbefc45f9cd27da422dc0034c8e",
      "transactionIndex": "0x0",
      "blockHash": "0xc451564a5a1ff5d4b5f30ee7ed99c5bab3c89567b8ac092e275780224a7cf9f7",
      "blockNumber": "0x39",
      "gasUsed": "0xde77",
      "effectiveGasPrice": "0xbcb63",
      "blobGasPrice": "0x1",
      "from": "0xf39fd6e51aad88f6f4ce6ab8827279cfffb92266",
      "to": "0x9a676e781a523b5d0c0e43731313a708cb607508",
      "contractAddress": null
    },
    {
      "type": "0x2",
      "status": "0x1",
      "cumulativeGasUsed": "0x1bcee",
      "logs": [
        {
          "address": "0x9a676e781a523b5d0c0e43731313a708cb607508",
          "topics": [
            "0xc466fe7ec25807cb9ca5e4b045c2cdc107cf8b58f9989f1994794ff6c55f4312",
            "0x0000000000000000000000000000000000000000000000000000000000000002"
          ],
          "data": "0x000000000000000000000000c6e7df5e7b4f2a278906862b61205850344d4e7d",
          "blockHash": "0xc451564a5a1ff5d4b5f30ee7ed99c5bab3c89567b8ac092e275780224a7cf9f7",
          "blockNumber": "0x39",
          "blockTimestamp": "0x6a21a571",
          "transactionHash": "0x96b8dd0050faa1ce69105b4981d9daeb861bc8bdcabaf41768d79d764a09e546",
          "transactionIndex": "0x1",
          "logIndex": "0x1",
          "removed": false
        }
      ],
      "logsBloom": "0x04000000000080000000000000000000100000000000000000000000000000000000000000000000000000000000001000000000000000000000000000000000000000000000000000000000000000080000000040000000000000000000000000000000000000000000000000000000000000000000000000000000000000000000000000000000000000000000000000000000000000000000000000000000000000000000000000000100800000000000000000000000000000000000000000000000000000000000000000000000000000000000000000000000000000000000000000000000000000000000000000000000008000000000000000000000",
      "transactionHash": "0x96b8dd0050faa1ce69105b4981d9daeb861bc8bdcabaf41768d79d764a09e546",
      "transactionIndex": "0x1",
      "blockHash": "0xc451564a5a1ff5d4b5f30ee7ed99c5bab3c89567b8ac092e275780224a7cf9f7",
      "blockNumber": "0x39",
      "gasUsed": "0xde77",
      "effectiveGasPrice": "0xbcb63",
      "blobGasPrice": "0x1",
      "from": "0xf39fd6e51aad88f6f4ce6ab8827279cfffb92266",
      "to": "0x9a676e781a523b5d0c0e43731313a708cb607508",
      "contractAddress": null
    },
    {
      "type": "0x2",
      "status": "0x1",
      "cumulativeGasUsed": "0x29b65",
      "logs": [
        {
          "address": "0x9a676e781a523b5d0c0e43731313a708cb607508",
          "topics": [
            "0xc466fe7ec25807cb9ca5e4b045c2cdc107cf8b58f9989f1994794ff6c55f4312",
            "0x0000000000000000000000000000000000000000000000000000000000000003"
          ],
          "data": "0x0000000000000000000000004ed7c70f96b99c776995fb64377f0d4ab3b0e1c1",
          "blockHash": "0xc451564a5a1ff5d4b5f30ee7ed99c5bab3c89567b8ac092e275780224a7cf9f7",
          "blockNumber": "0x39",
          "blockTimestamp": "0x6a21a571",
          "transactionHash": "0x0c542decaa84caba3db4b1297d7696666d16a8b643c757f897a92888d398ac71",
          "transactionIndex": "0x2",
          "logIndex": "0x2",
          "removed": false
        }
      ],
      "logsBloom": "0x00000000000080000000000000000000100000000000000000000000000000000000000000000000000000000000001000000000020000000000000000000000000000000000000000000000000000080000000040000000000000000000000000000000000000000000000000000000000000000000000000000000000000000000000000000000000000000000000000000000000000000000000000000000000000000000000000000000800000000000000000800000000000000000400000000000000000000000000000000000000000000000000000000000000000000000000000000000000000000000000000000000000000000000000000000000",
      "transactionHash": "0x0c542decaa84caba3db4b1297d7696666d16a8b643c757f897a92888d398ac71",
      "transactionIndex": "0x2",
      "blockHash": "0xc451564a5a1ff5d4b5f30ee7ed99c5bab3c89567b8ac092e275780224a7cf9f7",
      "blockNumber": "0x39",
      "gasUsed": "0xde77",
      "effectiveGasPrice": "0xbcb63",
      "blobGasPrice": "0x1",
      "from": "0xf39fd6e51aad88f6f4ce6ab8827279cfffb92266",
      "to": "0x9a676e781a523b5d0c0e43731313a708cb607508",
      "contractAddress": null
    },
    {
      "type": "0x2",
      "status": "0x1",
      "cumulativeGasUsed": "0x379dc",
      "logs": [
        {
          "address": "0x9a676e781a523b5d0c0e43731313a708cb607508",
          "topics": [
            "0xc466fe7ec25807cb9ca5e4b045c2cdc107cf8b58f9989f1994794ff6c55f4312",
            "0x0000000000000000000000000000000000000000000000000000000000000004"
          ],
          "data": "0x000000000000000000000000a85233c63b9ee964add6f2cffe00fd84eb32338f",
          "blockHash": "0xc451564a5a1ff5d4b5f30ee7ed99c5bab3c89567b8ac092e275780224a7cf9f7",
          "blockNumber": "0x39",
          "blockTimestamp": "0x6a21a571",
          "transactionHash": "0x50dd010297a7a9dfdaa76d29a17f5690f7e5126008156eb6e3b1387da91e951a",
          "transactionIndex": "0x3",
          "logIndex": "0x3",
          "removed": false
        }
      ],
      "logsBloom": "0x00000000000080000000000000000000100000000000000000000000000000000000000000000000000000000000001000000000000000000000000000000000000000000000000000000000000000080000000040000000000000000000000008000000000000000000000000000000000000000000000000000000000000000000000000000000000000000000000000000000000000000000000000000000000000000000000000000000800000000000000000000000002000000000000000000000000000000000000000000000000000008000000000000000000000000000000000000000000000000000000000000000000000000000000000000000",
      "transactionHash": "0x50dd010297a7a9dfdaa76d29a17f5690f7e5126008156eb6e3b1387da91e951a",
      "transactionIndex": "0x3",
      "blockHash": "0xc451564a5a1ff5d4b5f30ee7ed99c5bab3c89567b8ac092e275780224a7cf9f7",
      "blockNumber": "0x39",
      "gasUsed": "0xde77",
      "effectiveGasPrice": "0xbcb63",
      "blobGasPrice": "0x1",
      "from": "0xf39fd6e51aad88f6f4ce6ab8827279cfffb92266",
      "to": "0x9a676e781a523b5d0c0e43731313a708cb607508",
      "contractAddress": null
    },
    {
      "type": "0x2",
      "status": "0x1",
      "cumulativeGasUsed": "0xde77",
      "logs": [
        {
          "address": "0x9a676e781a523b5d0c0e43731313a708cb607508",
          "topics": [
            "0xc466fe7ec25807cb9ca5e4b045c2cdc107cf8b58f9989f1994794ff6c55f4312",
            "0x0000000000000000000000000000000000000000000000000000000000000005"
          ],
          "data": "0x0000000000000000000000007a2088a1bfc9d81c55368ae168c2c02570cb814f",
          "blockHash": "0x15e33bfb8a71d4ba705f71d6b3e31fb56c968d1ebfcc62a58b9006f106addb9f",
          "blockNumber": "0x3a",
          "blockTimestamp": "0x6a21a571",
          "transactionHash": "0x82072a37bd36c5fe0b9be7943f3703f88019899704fa04700dd23ca995ccf141",
          "transactionIndex": "0x0",
          "logIndex": "0x0",
          "removed": false
        }
      ],
      "logsBloom": "0x00000000000080000000000000000000100000000000000000000000000000000000000000000000000000000000001000000000000000000000000000000000000010000000000000000000000000080000000040000000000000000000000000000000000000000000000000000000000000000000000000000000000000000000000000000000000000000000001000000800000000000000000000000000000000000000000000000000800000000000000000000000000000000000000000000000000000000000000000000000000000000000000000000000000000000000000000000000000000000000000000000000000000000000000000000000",
      "transactionHash": "0x82072a37bd36c5fe0b9be7943f3703f88019899704fa04700dd23ca995ccf141",
      "transactionIndex": "0x0",
      "blockHash": "0x15e33bfb8a71d4ba705f71d6b3e31fb56c968d1ebfcc62a58b9006f106addb9f",
      "blockNumber": "0x3a",
      "gasUsed": "0xde77",
      "effectiveGasPrice": "0xa57b3",
      "blobGasPrice": "0x1",
      "from": "0xf39fd6e51aad88f6f4ce6ab8827279cfffb92266",
      "to": "0x9a676e781a523b5d0c0e43731313a708cb607508",
      "contractAddress": null
    },
    {
      "type": "0x2",
      "status": "0x1",
      "cumulativeGasUsed": "0x1bcee",
      "logs": [
        {
          "address": "0x9a676e781a523b5d0c0e43731313a708cb607508",
          "topics": [
            "0xc466fe7ec25807cb9ca5e4b045c2cdc107cf8b58f9989f1994794ff6c55f4312",
            "0x0000000000000000000000000000000000000000000000000000000000000006"
          ],
          "data": "0x000000000000000000000000c5a5c42992decbae36851359345fe25997f5c42d",
          "blockHash": "0x15e33bfb8a71d4ba705f71d6b3e31fb56c968d1ebfcc62a58b9006f106addb9f",
          "blockNumber": "0x3a",
          "blockTimestamp": "0x6a21a571",
          "transactionHash": "0x9b1e3e72213115bd99708817815b221289dfc001ee1a28fbc4d7ea8f217fb7d9",
          "transactionIndex": "0x1",
          "logIndex": "0x1",
          "removed": false
        }
      ],
      "logsBloom": "0x00000000000080000000000000000000100000000000000000000000000000000000000000000000000000000000001000000000000400000000000000000000000000000000000000000000000000080000000040000000000000000000000000000000000000000000000000000000000000000000000000000000000000000000000400000000000000000000000000000000000000000000000000000000000000000000000000000000800000000000000000000000000000080000000000000000000000000000000000000000000000000000000000000000000000000000000000000000000000000000000000000000000000000000000000000000",
      "transactionHash": "0x9b1e3e72213115bd99708817815b221289dfc001ee1a28fbc4d7ea8f217fb7d9",
      "transactionIndex": "0x1",
      "blockHash": "0x15e33bfb8a71d4ba705f71d6b3e31fb56c968d1ebfcc62a58b9006f106addb9f",
      "blockNumber": "0x3a",
      "gasUsed": "0xde77",
      "effectiveGasPrice": "0xa57b3",
      "blobGasPrice": "0x1",
      "from": "0xf39fd6e51aad88f6f4ce6ab8827279cfffb92266",
      "to": "0x9a676e781a523b5d0c0e43731313a708cb607508",
      "contractAddress": null
    },
    {
      "type": "0x2",
      "status": "0x1",
      "cumulativeGasUsed": "0x29b65",
      "logs": [
        {
          "address": "0x9a676e781a523b5d0c0e43731313a708cb607508",
          "topics": [
            "0xc466fe7ec25807cb9ca5e4b045c2cdc107cf8b58f9989f1994794ff6c55f4312",
            "0x0000000000000000000000000000000000000000000000000000000000000007"
          ],
          "data": "0x000000000000000000000000e6e340d132b5f46d1e472debcd681b2abc16e57e",
          "blockHash": "0x15e33bfb8a71d4ba705f71d6b3e31fb56c968d1ebfcc62a58b9006f106addb9f",
          "blockNumber": "0x3a",
          "blockTimestamp": "0x6a21a571",
          "transactionHash": "0x4f26238e0bc5adc74a9eb1753c24f6335d46f917af625da0b3c1c7e1eaad5689",
          "transactionIndex": "0x2",
          "logIndex": "0x2",
          "removed": false
        }
      ],
      "logsBloom": "0x00000000000080000000000000000000100000000000000000000000000000000000000000000000000000000000001000001000000000000000000000000000000020000000000000000000000000080000000040000000000000000000000000000000000000000000000000000000000000000000000000000000000000000000000000000000000000000000000000000000000000000000000000000000000000000000000000000000800000000000000000000000000000000000000000000000000000000000000000000000000000000000000000000100000000000000000000000000000000000000000000000000000000000000000000000000",
      "transactionHash": "0x4f26238e0bc5adc74a9eb1753c24f6335d46f917af625da0b3c1c7e1eaad5689",
      "transactionIndex": "0x2",
      "blockHash": "0x15e33bfb8a71d4ba705f71d6b3e31fb56c968d1ebfcc62a58b9006f106addb9f",
      "blockNumber": "0x3a",
      "gasUsed": "0xde77",
      "effectiveGasPrice": "0xa57b3",
      "blobGasPrice": "0x1",
      "from": "0xf39fd6e51aad88f6f4ce6ab8827279cfffb92266",
      "to": "0x9a676e781a523b5d0c0e43731313a708cb607508",
      "contractAddress": null
    }
  ],
  "libraries": [],
  "pending": [],
  "returns": {},
  "timestamp": 1780417136625,
  "chain": 31337,
  "commit": "51817db"
}