{
  "transactions": [
    {
      "hash": "0x39e1b03ccf4d48b5f11640fd6754d2588e790898093a226136463c1e602b6ede",
      "transactionType": "CALL",
      "contractName": null,
      "contractAddress": "0x959922be3caee4b8cd9a407cc3ac1c251c2007b1",
      "function": "acceptVerifier(uint8)",
      "arguments": [
        "0"
      ],
      "transaction": {
        "from": "0xf39fd6e51aad88f6f4ce6ab8827279cfffb92266",
        "to": "0x959922be3caee4b8cd9a407cc3ac1c251c2007b1",
        "gas": "0x13318",
        "value": "0x0",
        "input": "0xa63d99630000000000000000000000000000000000000000000000000000000000000000",
        "nonce": "0x39",
        "chainId": "0x7a69"
      },
      "additionalContracts": [],
      "isFixedGasLimit": false
    },
    {
      "hash": "0xbe43beeb900099bd15447a55530909a8b40488ea377572d44160167bcf389547",
      "transactionType": "CALL",
      "contractName": null,
      "contractAddress": "0x959922be3caee4b8cd9a407cc3ac1c251c2007b1",
      "function": "acceptVerifier(uint8)",
      "arguments": [
        "1"
      ],
      "transaction": {
        "from": "0xf39fd6e51aad88f6f4ce6ab8827279cfffb92266",
        "to": "0x959922be3caee4b8cd9a407cc3ac1c251c2007b1",
        "gas": "0x1453a",
        "value": "0x0",
        "input": "0xa63d99630000000000000000000000000000000000000000000000000000000000000001",
        "nonce": "0x3a",
        "chainId": "0x7a69"
      },
      "additionalContracts": [],
      "isFixedGasLimit": false
    },
    {
      "hash": "0x3e43d9a565f12c1f59fecbf8a95abcefd85adcb410299c298d877eb3ad8ca865",
      "transactionType": "CALL",
      "contractName": null,
      "contractAddress": "0x959922be3caee4b8cd9a407cc3ac1c251c2007b1",
      "function": "acceptVerifier(uint8)",
      "arguments": [
        "2"
      ],
      "transaction": {
        "from": "0xf39fd6e51aad88f6f4ce6ab8827279cfffb92266",
        "to": "0x959922be3caee4b8cd9a407cc3ac1c251c2007b1",
        "gas": "0x1453a",
        "value": "0x0",
        "input": "0xa63d99630000000000000000000000000000000000000000000000000000000000000002",
        "nonce": "0x3b",
        "chainId": "0x7a69"
      },
      "additionalContracts": [],
      "isFixedGasLimit": false
    },
    {
      "hash": "0x9d5da799a4329103d408843f8dd91987cb61c1aef2b0fde314d37ddd860da624",
      "transactionType": "CALL",
      "contractName": null,
      "contractAddress": "0x959922be3caee4b8cd9a407cc3ac1c251c2007b1",
      "function": "acceptVerifier(uint8)",
      "arguments": [
        "3"
      ],
      "transaction": {
        "from": "0xf39fd6e51aad88f6f4ce6ab8827279cfffb92266",
        "to": "0x959922be3caee4b8cd9a407cc3ac1c251c2007b1",
        "gas": "0x1453a",
        "value": "0x0",
        "input": "0xa63d99630000000000000000000000000000000000000000000000000000000000000003",
        "nonce": "0x3c",
        "chainId": "0x7a69"
      },
      "additionalContracts": [],
      "isFixedGasLimit": false
    },
    {
      "hash": "0x009c5e446acbc1f478486ed9847c0068aa245a87efbcdd0fe5b9e1278b68f626",
      "transactionType": "CALL",
      "contractName": null,
      "contractAddress": "0x959922be3caee4b8cd9a407cc3ac1c251c2007b1",
      "function": "acceptVerifier(uint8)",
      "arguments": [
        "4"
      ],
      "transaction": {
        "from": "0xf39fd6e51aad88f6f4ce6ab8827279cfffb92266",
        "to": "0x959922be3caee4b8cd9a407cc3ac1c251c2007b1",
        "gas": "0x1453a",
        "value": "0x0",
        "input": "0xa63d99630000000000000000000000000000000000000000000000000000000000000004",
        "nonce": "0x3d",
        "chainId": "0x7a69"
      },
      "additionalContracts": [],
      "isFixedGasLimit": false
    },
    {
      "hash": "0x88081744359fb8dd018ff3a42ecc1b2b1349671d91d4a681b235c07e8f47ffcb",
      "transactionType": "CALL",
      "contractName": null,
      "contractAddress": "0x959922be3caee4b8cd9a407cc3ac1c251c2007b1",
      "function": "acceptVerifier(uint8)",
      "arguments": [
        "5"
      ],
      "transaction": {
        "from": "0xf39fd6e51aad88f6f4ce6ab8827279cfffb92266",
        "to": "0x959922be3caee4b8cd9a407cc3ac1c251c2007b1",
        "gas": "0x1453a",
        "value": "0x0",
        "input": "0xa63d99630000000000000000000000000000000000000000000000000000000000000005",
        "nonce": "0x3e",
        "chainId": "0x7a69"
      },
      "additionalContracts": [],
      "isFixedGasLimit": false
    },
    {
      "hash": "0x4ed5c6253215d7fa78a09d9b625a538e198f6aaf8e6cc73775406c7c76e8a22b",
      "transactionType": "CALL",
      "contractName": null,
      "contractAddress": "0x959922be3caee4b8cd9a407cc3ac1c251c2007b1",
      "function": "acceptVerifier(uint8)",
      "arguments": [
        "6"
      ],
      "transaction": {
        "from": "0xf39fd6e51aad88f6f4ce6ab8827279cfffb92266",
        "to": "0x959922be3caee4b8cd9a407cc3ac1c251c2007b1",
        "gas": "0x1453a",
        "value": "0x0",
        "input": "0xa63d99630000000000000000000000000000000000000000000000000000000000000006",
        "nonce": "0x3f",
        "chainId": "0x7a69"
      },
      "additionalContracts": [],
      "isFixedGasLimit": false
    },
    {
      "hash": "0x0c95193c9107798153670b25175140805aed95b36d5f527e1493947a34ac1ff7",
      "transactionType": "CALL",
      "contractName": null,
      "contractAddress": "0x959922be3caee4b8cd9a407cc3ac1c251c2007b1",
      "function": "acceptVerifier(uint8)",
      "arguments": [
        "7"
      ],
      "transaction": {
        "from": "0xf39fd6e51aad88f6f4ce6ab8827279cfffb92266",
        "to": "0x959922be3caee4b8cd9a407cc3ac1c251c2007b1",
        "gas": "0x1453a",
        "value": "0x0",
        "input": "0xa63d99630000000000000000000000000000000000000000000000000000000000000007",
        "nonce": "0x40",
        "chainId": "0x7a69"
      },
      "additionalContracts": [],
      "isFixedGasLimit": false
    },
    {
      "hash": "0x21298ea54c3c71d64ecb7dd92cbc3132151e46f20edcff5447f0d1be4f06251e",
      "transactionType": "CALL",
      "contractName": null,
      "contractAddress": "0x959922be3caee4b8cd9a407cc3ac1c251c2007b1",
      "function": "acceptVerifier(uint8)",
      "arguments": [
        "8"
      ],
      "transaction": {
        "from": "0xf39fd6e51aad88f6f4ce6ab8827279cfffb92266",
        "to": "0x959922be3caee4b8cd9a407cc3ac1c251c2007b1",
        "gas": "0x1453a",
        "value": "0x0",
        "input": "0xa63d99630000000000000000000000000000000000000000000000000000000000000008",
        "nonce": "0x41",
        "chainId": "0x7a69"
      },
      "additionalContracts": [],
      "isFixedGasLimit": false
    }
  ],
  "receipts": [
    {
      "type": "0x2",
      "status": "0x1",
      "cumulativeGasUsed": "0xde55",
      "logs": [
        {
          "address": "0x959922be3caee4b8cd9a407cc3ac1c251c2007b1",
          "topics": [
            "0xc466fe7ec25807cb9ca5e4b045c2cdc107cf8b58f9989f1994794ff6c55f4312",
            "0x0000000000000000000000000000000000000000000000000000000000000000"
          ],
          "data": "0x00000000000000000000000068b1d87f95878fe05b998f19b66f4baba5de1aed",
          "blockHash": "0xc44e3bb0e696494139667a035133cccaf5e571f21bda69aa95066e6207db0914",
          "blockNumber": "0x3d",
          "blockTimestamp": "0x6a33eaa6",
          "transactionHash": "0x3e43d9a565f12c1f59fecbf8a95abcefd85adcb410299c298d877eb3ad8ca865",
          "transactionIndex": "0x0",
          "logIndex": "0x0",
          "removed": false
        }
      ],
      "logsBloom": "0x00000000000000000000000000000000100000000000000000000000000000000000000000000000000000000000000000000000000000000000000000000000000000000000000000000000000000080000000040000000000000000000000000000000020000000020000000000800000000000000000000000000000000000000000000000000000000000000000000000000000000000000000000000000000000000000000000200000000000000000000000000000000000000000000000000000000000000000000000000000000000000000000000000000000020000000000000000000010000000000000000000000000000000000000000000000",
      "transactionHash": "0x3e43d9a565f12c1f59fecbf8a95abcefd85adcb410299c298d877eb3ad8ca865",
      "transactionIndex": "0x0",
      "blockHash": "0xc44e3bb0e696494139667a035133cccaf5e571f21bda69aa95066e6207db0914",
      "blockNumber": "0x3d",
      "gasUsed": "0xde55",
      "effectiveGasPrice": "0x733c7",
      "blobGasPrice": "0x1",
      "from": "0xf39fd6e51aad88f6f4ce6ab8827279cfffb92266",
      "to": "0x959922be3caee4b8cd9a407cc3ac1c251c2007b1",
      "contractAddress": null
    },
    {
      "type": "0x2",
      "status": "0x1",
      "cumulativeGasUsed": "0x1bcb6",
      "logs": [
        {
          "address": "0x959922be3caee4b8cd9a407cc3ac1c251c2007b1",
          "topics": [
            "0xc466fe7ec25807cb9ca5e4b045c2cdc107cf8b58f9989f1994794ff6c55f4312",
            "0x0000000000000000000000000000000000000000000000000000000000000001"
          ],
          "data": "0x000000000000000000000000c6e7df5e7b4f2a278906862b61205850344d4e7d",
          "blockHash": "0xc44e3bb0e696494139667a035133cccaf5e571f21bda69aa95066e6207db0914",
          "blockNumber": "0x3d",
          "blockTimestamp": "0x6a33eaa6",
          "transactionHash": "0x39e1b03ccf4d48b5f11640fd6754d2588e790898093a226136463c1e602b6ede",
          "transactionIndex": "0x1",
          "logIndex": "0x1",
          "removed": false
        }
      ],
      "logsBloom": "0x00000000000000000000000000000000100000000000000000000000000000000000000000000000000000000000000000000000000000000000000000040000000000000000000000000000000000080000000040040000000000000000000000000000000000000020000000000000000000000000000000000000000000000000000000000000000000000000000000000000000000000000000000000000000000000000000000200000000000000000000000000000000000000000000000000000000000000000000000000000000000000000000000000000000040000000000000000000010000000000000000000000000000000000000000000000",
      "transactionHash": "0x39e1b03ccf4d48b5f11640fd6754d2588e790898093a226136463c1e602b6ede",
      "transactionIndex": "0x1",
      "blockHash": "0xc44e3bb0e696494139667a035133cccaf5e571f21bda69aa95066e6207db0914",
      "blockNumber": "0x3d",
      "gasUsed": "0xde61",
      "effectiveGasPrice": "0x733c7",
      "blobGasPrice": "0x1",
      "from": "0xf39fd6e51aad88f6f4ce6ab8827279cfffb92266",
      "to": "0x959922be3caee4b8cd9a407cc3ac1c251c2007b1",
      "contractAddress": null
    },
    {
      "type": "0x2",
      "status": "0x1",
      "cumulativeGasUsed": "0x29b17",
      "logs": [
        {
          "address": "0x959922be3caee4b8cd9a407cc3ac1c251c2007b1",
          "topics": [
            "0xc466fe7ec25807cb9ca5e4b045c2cdc107cf8b58f9989f1994794ff6c55f4312",
            "0x0000000000000000000000000000000000000000000000000000000000000002"
          ],
          "data": "0x0000000000000000000000004ed7c70f96b99c776995fb64377f0d4ab3b0e1c1",
          "blockHash": "0xc44e3bb0e696494139667a035133cccaf5e571f21bda69aa95066e6207db0914",
          "blockNumber": "0x3d",
          "blockTimestamp": "0x6a33eaa6",
          "transactionHash": "0xbe43beeb900099bd15447a55530909a8b40488ea377572d44160167bcf389547",
          "transactionIndex": "0x2",
          "logIndex": "0x2",
          "removed": false
        }
      ],
      "logsBloom": "0x04000000000000000000000000000000100000000000000000000000000000000000000000000000000000000000000000000000000000000000000000000000000000000000000000000000000000080000000040000000000000000000000000000000000000000020000000000000000000000000000000000000000000000000000000000000000000000000000000000000000000000000000000000000000000000000000000200100000000000000000000000000000000000000000000000000000000000000000000000000000000000000000000000000000000000000000000000000010000000000000000000000008000000000000000000000",
      "transactionHash": "0xbe43beeb900099bd15447a55530909a8b40488ea377572d44160167bcf389547",
      "transactionIndex": "0x2",
      "blockHash": "0xc44e3bb0e696494139667a035133cccaf5e571f21bda69aa95066e6207db0914",
      "blockNumber": "0x3d",
      "gasUsed": "0xde61",
      "effectiveGasPrice": "0x733c7",
      "blobGasPrice": "0x1",
      "from": "0xf39fd6e51aad88f6f4ce6ab8827279cfffb92266",
      "to": "0x959922be3caee4b8cd9a407cc3ac1c251c2007b1",
      "contractAddress": null
    },
    {
      "type": "0x2",
      "status": "0x1",
      "cumulativeGasUsed": "0xde61",
      "logs": [
        {
          "address": "0x959922be3caee4b8cd9a407cc3ac1c251c2007b1",
          "topics": [
            "0xc466fe7ec25807cb9ca5e4b045c2cdc107cf8b58f9989f1994794ff6c55f4312",
            "0x0000000000000000000000000000000000000000000000000000000000000003"
          ],
          "data": "0x000000000000000000000000a85233c63b9ee964add6f2cffe00fd84eb32338f",
          "blockHash": "0xe196cf4976a9ef13ee1306f7caf1070a1b9cf31ce8006421b8557e82581f79fd",
          "blockNumber": "0x3e",
          "blockTimestamp": "0x6a33eaa6",
          "transactionHash": "0x009c5e446acbc1f478486ed9847c0068aa245a87efbcdd0fe5b9e1278b68f626",
          "transactionIndex": "0x0",
          "logIndex": "0x0",
          "removed": false
        }
      ],
      "logsBloom": "0x00000000000000000000000000000000100000000000000000000000000000000000000000000000000000000000000000000000020000000000000000000000000000000000000000000000000000080000000040000000000000000000000000000000000000000020000000000000000000000000000000000000000000000000000000000000000000000000000000000000000000000000000000000000000000000000000000200000000000000000000000800000000000000000400000000000000000000000000000000000000000000000000000000000000000000000000000000000010000000000000000000000000000000000000000000000",
      "transactionHash": "0x009c5e446acbc1f478486ed9847c0068aa245a87efbcdd0fe5b9e1278b68f626",
      "transactionIndex": "0x0",
      "blockHash": "0xe196cf4976a9ef13ee1306f7caf1070a1b9cf31ce8006421b8557e82581f79fd",
      "blockNumber": "0x3e",
      "gasUsed": "0xde61",
      "effectiveGasPrice": "0x64fee",
      "blobGasPrice": "0x1",
      "from": "0xf39fd6e51aad88f6f4ce6ab8827279cfffb92266",
      "to": "0x959922be3caee4b8cd9a407cc3ac1c251c2007b1",
      "contractAddress": null
    },
    {
      "type": "0x2",
      "status": "0x1",
      "cumulativeGasUsed": "0xde61",
      "logs": [
        {
          "address": "0x959922be3caee4b8cd9a407cc3ac1c251c2007b1",
          "topics": [
            "0xc466fe7ec25807cb9ca5e4b045c2cdc107cf8b58f9989f1994794ff6c55f4312",
            "0x0000000000000000000000000000000000000000000000000000000000000004"
          ],
          "data": "0x0000000000000000000000007a2088a1bfc9d81c55368ae168c2c02570cb814f",
          "blockHash": "0xa3d49a59eacda074c5ade10c36122ed5ba302be92252370c5c9717417994758c",
          "blockNumber": "0x3f",
          "blockTimestamp": "0x6a33eaa6",
          "transactionHash": "0x21298ea54c3c71d64ecb7dd92cbc3132151e46f20edcff5447f0d1be4f06251e",
          "transactionIndex": "0x0",
          "logIndex": "0x0",
          "removed": false
        }
      ],
      "logsBloom": "0x00000000000000000000000000000000100000000000000000000000000000000000000000000000000000000000000000000000000000000000000000000000000000000000000000000000000000080000000040000000000000000000000008000000000000000020000000000000000000000000000000000000000000000000000000000000000000000000000000000000000000000000000000000000000000000000000000200000000000000000000000000000002000000000000000000000000000000000000000000000000000008000000000000000000000000000000000000000010000000000000000000000000000000000000000000000",
      "transactionHash": "0x21298ea54c3c71d64ecb7dd92cbc3132151e46f20edcff5447f0d1be4f06251e",
      "transactionIndex": "0x0",
      "blockHash": "0xa3d49a59eacda074c5ade10c36122ed5ba302be92252370c5c9717417994758c",
      "blockNumber": "0x3f",
      "gasUsed": "0xde61",
      "effectiveGasPrice": "0x586b5",
      "blobGasPrice": "0x1",
      "from": "0xf39fd6e51aad88f6f4ce6ab8827279cfffb92266",
      "to": "0x959922be3caee4b8cd9a407cc3ac1c251c2007b1",
      "contractAddress": null
    },
    {
      "type": "0x2",
      "status": "0x1",
      "cumulativeGasUsed": "0x1bcc2",
      "logs": [
        {
          "address": "0x959922be3caee4b8cd9a407cc3ac1c251c2007b1",
          "topics": [
            "0xc466fe7ec25807cb9ca5e4b045c2cdc107cf8b58f9989f1994794ff6c55f4312",
            "0x0000000000000000000000000000000000000000000000000000000000000005"
          ],
          "data": "0x000000000000000000000000c5a5c42992decbae36851359345fe25997f5c42d",
          "blockHash": "0xa3d49a59eacda074c5ade10c36122ed5ba302be92252370c5c9717417994758c",
          "blockNumber": "0x3f",
          "blockTimestamp": "0x6a33eaa6",
          "transactionHash": "0x0c95193c9107798153670b25175140805aed95b36d5f527e1493947a34ac1ff7",
          "transactionIndex": "0x1",
          "logIndex": "0x1",
          "removed": false
        }
      ],
      "logsBloom": "0x00000000000000000000000000000000100000000000000000000000000000000000000000000000000000000000000000000000000000000000000000000000000010000000000000000000000000080000000040000000000000000000000000000000000000000020000000000000000000000000000000000000000000000000000000000000000000000000001000000800000000000000000000000000000000000000000000200000000000000000000000000000000000000000000000000000000000000000000000000000000000000000000000000000000000000000000000000000010000000000000000000000000000000000000000000000",
      "transactionHash": "0x0c95193c9107798153670b25175140805aed95b36d5f527e1493947a34ac1ff7",
      "transactionIndex": "0x1",
      "blockHash": "0xa3d49a59eacda074c5ade10c36122ed5ba302be92252370c5c9717417994758c",
      "blockNumber": "0x3f",
      "gasUsed": "0xde61",
      "effectiveGasPrice": "0x586b5",
      "blobGasPrice": "0x1",
      "from": "0xf39fd6e51aad88f6f4ce6ab8827279cfffb92266",
      "to": "0x959922be3caee4b8cd9a407cc3ac1c251c2007b1",
      "contractAddress": null
    },
    {
      "type": "0x2",
      "status": "0x1",
      "cumulativeGasUsed": "0x29b23",
      "logs": [
        {
          "address": "0x959922be3caee4b8cd9a407cc3ac1c251c2007b1",
          "topics": [
            "0xc466fe7ec25807cb9ca5e4b045c2cdc107cf8b58f9989f1994794ff6c55f4312",
            "0x0000000000000000000000000000000000000000000000000000000000000006"
          ],
          "data": "0x000000000000000000000000e6e340d132b5f46d1e472debcd681b2abc16e57e",
          "blockHash": "0xa3d49a59eacda074c5ade10c36122ed5ba302be92252370c5c9717417994758c",
          "blockNumber": "0x3f",
          "blockTimestamp": "0x6a33eaa6",
          "transactionHash": "0x4ed5c6253215d7fa78a09d9b625a538e198f6aaf8e6cc73775406c7c76e8a22b",
          "transactionIndex": "0x2",
          "logIndex": "0x2",
          "removed": false
        }
      ],
      "logsBloom": "0x00000000000000000000000000000000100000000000000000000000000000000000000000000000000000000000000000000000000400000000000000000000000000000000000000000000000000080000000040000000000000000000000000000000000000000020000000000000000000000000000000000000000000000000000400000000000000000000000000000000000000000000000000000000000000000000000000200000000000000000000000000000000000080000000000000000000000000000000000000000000000000000000000000000000000000000000000000000010000000000000000000000000000000000000000000000",
      "transactionHash": "0x4ed5c6253215d7fa78a09d9b625a538e198f6aaf8e6cc73775406c7c76e8a22b",
      "transactionIndex": "0x2",
      "blockHash": "0xa3d49a59eacda074c5ade10c36122ed5ba302be92252370c5c9717417994758c",
      "blockNumber": "0x3f",
      "gasUsed": "0xde61",
      "effectiveGasPrice": "0x586b5",
      "blobGasPrice": "0x1",
      "from": "0xf39fd6e51aad88f6f4ce6ab8827279cfffb92266",
      "to": "0x959922be3caee4b8cd9a407cc3ac1c251c2007b1",
      "contractAddress": null
    },
    {
      "type": "0x2",
      "status": "0x1",
      "cumulativeGasUsed": "0x37984",
      "logs": [
        {
          "address": "0x959922be3caee4b8cd9a407cc3ac1c251c2007b1",
          "topics": [
            "0xc466fe7ec25807cb9ca5e4b045c2cdc107cf8b58f9989f1994794ff6c55f4312",
            "0x0000000000000000000000000000000000000000000000000000000000000007"
          ],
          "data": "0x00000000000000000000000084ea74d481ee0a5332c457a4d796187f6ba67feb",
          "blockHash": "0xa3d49a59eacda074c5ade10c36122ed5ba302be92252370c5c9717417994758c",
          "blockNumber": "0x3f",
          "blockTimestamp": "0x6a33eaa6",
          "transactionHash": "0x88081744359fb8dd018ff3a42ecc1b2b1349671d91d4a681b235c07e8f47ffcb",
          "transactionIndex": "0x3",
          "logIndex": "0x3",
          "removed": false
        }
      ],
      "logsBloom": "0x00000000000000000000000000000000100000000000000000000000000000000000000000000000000000000000000000001000000000000000000000000000000020000000000000000000000000080000000040000000000000000000000000000000000000000020000000000000000000000000000000000000000000000000000000000000000000000000000000000000000000000000000000000000000000000000000000200000000000000000000000000000000000000000000000000000000000000000000000000000000000000000000000000100000000000000000000000000010000000000000000000000000000000000000000000000",
      "transactionHash": "0x88081744359fb8dd018ff3a42ecc1b2b1349671d91d4a681b235c07e8f47ffcb",
      "transactionIndex": "0x3",
      "blockHash": "0xa3d49a59eacda074c5ade10c36122ed5ba302be92252370c5c9717417994758c",
      "blockNumber": "0x3f",
      "gasUsed": "0xde61",
      "effectiveGasPrice": "0x586b5",
      "blobGasPrice": "0x1",
      "from": "0xf39fd6e51aad88f6f4ce6ab8827279cfffb92266",
      "to": "0x959922be3caee4b8cd9a407cc3ac1c251c2007b1",
      "contractAddress": null
    },
    {
      "type": "0x2",
      "status": "0x1",
      "cumulativeGasUsed": "0x457e5",
      "logs": [
        {
          "address": "0x959922be3caee4b8cd9a407cc3ac1c251c2007b1",
          "topics": [
            "0xc466fe7ec25807cb9ca5e4b045c2cdc107cf8b58f9989f1994794ff6c55f4312",
            "0x0000000000000000000000000000000000000000000000000000000000000008"
          ],
          "data": "0x000000000000000000000000a82ff9afd8f496c3d6ac40e2a0f282e47488cfc9",
          "blockHash": "0xa3d49a59eacda074c5ade10c36122ed5ba302be92252370c5c9717417994758c",
          "blockNumber": "0x3f",
          "blockTimestamp": "0x6a33eaa6",
          "transactionHash": "0x9d5da799a4329103d408843f8dd91987cb61c1aef2b0fde314d37ddd860da624",
          "transactionIndex": "0x4",
          "logIndex": "0x4",
          "removed": false
        }
      ],
      "logsBloom": "0x00000000000000000000000000000000100000000000000000000000000000000000000000000000000000000000000000000000000080000000000000000000000000000000000000000000000000080000000040000000000000000000000000000000000000000020000000000000000000000000000000000000000000000080000000000000000000000000000000000000000000000000000000000000000000000000000000200000000000000000000000000000000000000000000040000000000000000000000000000000000000000000000000000000000000000000000000000000010000000000000000000000000000000000000000000000",
      "transactionHash": "0x9d5da799a4329103d408843f8dd91987cb61c1aef2b0fde314d37ddd860da624",
      "transactionIndex": "0x4",
      "blockHash": "0xa3d49a59eacda074c5ade10c36122ed5ba302be92252370c5c9717417994758c",
      "blockNumber": "0x3f",
      "gasUsed": "0xde61",
      "effectiveGasPrice": "0x586b5",
      "blobGasPrice": "0x1",
      "from": "0xf39fd6e51aad88f6f4ce6ab8827279cfffb92266",
      "to": "0x959922be3caee4b8cd9a407cc3ac1c251c2007b1",
      "contractAddress": null
    }
  ],
  "libraries": [],
  "pending": [],
  "returns": {},
  "timestamp": 1781614501503,
  "chain": 31337,
  "commit": "19aacab"
}