{
  "transactions": [
    {
      "hash": "0x03b9def93a3cc2949ceaef29cece47d95d3988a85cfe226af17aa332682aafae",
      "transactionType": "CREATE",
      "contractName": "MockUSDC",
      "contractAddress": "0xe6e340d132b5f46d1e472debcd681b2abc16e57e",
      "function": null,
      "arguments": null,
      "transaction": {
        "from": "0xf39fd6e51aad88f6f4ce6ab8827279cfffb92266",
        "to": null,
        "gas": "0xa2be3",
        "value": "0x0",
        "input": "0x608060405234801561000f575f80fd5b50604051806040016040528060098152602001684d6f636b205553444360b81b815250604051806040016040528060048152602001635553444360e01b815250816003908161005e919061010b565b50600461006b828261010b565b5050506101ca565b634e487b7160e01b5f52604160045260245ffd5b600181811c9082168061009b57607f821691505b6020821081036100b957634e487b7160e01b5f52602260045260245ffd5b50919050565b601f82111561010657805f5260205f20601f840160051c810160208510156100e45750805b601f840160051c820191505b81811015610103575f81556001016100f0565b50505b505050565b81516001600160401b0381111561012457610124610073565b610138816101328454610087565b846100bf565b602080601f83116001811461016b575f84156101545750858301515b5f19600386901b1c1916600185901b1785556101c2565b5f85815260208120601f198616915b828110156101995788860151825594840194600190910190840161017a565b50858210156101b657878501515f19600388901b60f8161c191681555b505060018460011b0185555b505050505050565b61075c806101d75f395ff3fe608060405234801561000f575f80fd5b506004361061009b575f3560e01c806340c10f191161006357806340c10f191461011457806370a082311461012957806395d89b4114610151578063a9059cbb14610159578063dd62ed3e1461016c575f80fd5b806306fdde031461009f578063095ea7b3146100bd57806318160ddd146100e057806323b872dd146100f2578063313ce56714610105575b5f80fd5b6100a76101a4565b6040516100b491906105b6565b60405180910390f35b6100d06100cb36600461061d565b610234565b60405190151581526020016100b4565b6002545b6040519081526020016100b4565b6100d0610100366004610645565b61024d565b604051600681526020016100b4565b61012761012236600461061d565b610270565b005b6100e461013736600461067e565b6001600160a01b03165f9081526020819052604090205490565b6100a761027e565b6100d061016736600461061d565b61028d565b6100e461017a36600461069e565b6001600160a01b039182165f90815260016020908152604080832093909416825291909152205490565b6060600380546101b3906106cf565b80601f01602080910402602001604051908101604052809291908181526020018280546101df906106cf565b801561022a5780601f106102015761010080835404028352916020019161022a565b820191905f5260205f20905b81548152906001019060200180831161020d57829003601f168201915b5050505050905090565b5f3361024181858561029a565b60019150505b92915050565b5f3361025a8582856102ac565b61026585858561032d565b506001949350505050565b61027a828261038a565b5050565b6060600480546101b3906106cf565b5f3361024181858561032d565b6102a783838360016103be565b505050565b6001600160a01b038381165f908152600160209081526040808320938616835292905220545f19811015610327578181101561031957604051637dc7a0d960e11b81526001600160a01b038416600482015260248101829052604481018390526064015b60405180910390fd5b61032784848484035f6103be565b50505050565b6001600160a01b03831661035657604051634b637e8f60e11b81525f6004820152602401610310565b6001600160a01b03821661037f5760405163ec442f0560e01b81525f6004820152602401610310565b6102a7838383610490565b6001600160a01b0382166103b35760405163ec442f0560e01b81525f6004820152602401610310565b61027a5f8383610490565b6001600160a01b0384166103e75760405163e602df0560e01b81525f6004820152602401610310565b6001600160a01b03831661041057604051634a1406b160e11b81525f6004820152602401610310565b6001600160a01b038085165f908152600160209081526040808320938716835292905220829055801561032757826001600160a01b0316846001600160a01b03167f8c5be1e5ebec7d5bd14f71427d1e84f3dd0314c0f7b2291e5b200ac8c7c3b9258460405161048291815260200190565b60405180910390a350505050565b6001600160a01b0383166104ba578060025f8282546104af9190610707565b9091555061052a9050565b6001600160a01b0383165f908152602081905260409020548181101561050c5760405163391434e360e21b81526001600160a01b03851660048201526024810182905260448101839052606401610310565b6001600160a01b0384165f9081526020819052604090209082900390555b6001600160a01b03821661054657600280548290039055610564565b6001600160a01b0382165f9081526020819052604090208054820190555b816001600160a01b0316836001600160a01b03167fddf252ad1be2c89b69c2b068fc378daa952ba7f163c4a11628f55a4df523b3ef836040516105a991815260200190565b60405180910390a3505050565b5f602080835283518060208501525f5b818110156105e2578581018301518582016040015282016105c6565b505f604082860101526040601f19601f8301168501019250505092915050565b80356001600160a01b0381168114610618575f80fd5b919050565b5f806040838503121561062e575f80fd5b61063783610602565b946020939093013593505050565b5f805f60608486031215610657575f80fd5b61066084610602565b925061066e60208501610602565b9150604084013590509250925092565b5f6020828403121561068e575f80fd5b61069782610602565b9392505050565b5f80604083850312156106af575f80fd5b6106b883610602565b91506106c660208401610602565b90509250929050565b600181811c908216806106e357607f821691505b60208210810361070157634e487b7160e01b5f52602260045260245ffd5b50919050565b8082018082111561024757634e487b7160e01b5f52601160045260245ffdfea26469706673582212204271157345920eea96f1945d715d24949f5295021203ade028817124e304b09164736f6c63430008180033",
        "nonce": "0x1e",
        "chainId": "0x7a69"
      },
      "additionalContracts": [],
      "isFixedGasLimit": false
    },
    {
      "hash": "0x9fc44dd33888ef07140923967cd5eaf059f0fc20cdfa55824622fc579c53d59b",
      "transactionType": "CREATE",
      "contractName": "MockCTF",
      "contractAddress": "0xc3e53f4d16ae77db1c982e75a937b9f60fe63690",
      "function": null,
      "arguments": null,
      "transaction": {
        "from": "0xf39fd6e51aad88f6f4ce6ab8827279cfffb92266",
        "to": null,
        "gas": "0x67959",
        "value": "0x0",
        "input": "0x608060405234801561000f575f80fd5b506104ef8061001d5f395ff3fe608060405234801561000f575f80fd5b5060043610610079575f3560e01c8063dd34de6711610058578063dd34de67146100ee578063e8a6a2891461010d578063eb1bc5d214610141578063f88669bd14610160575f80fd5b8062fdd58e1461007d57806301b7037c146100c45780633d551689146100db575b5f80fd5b6100b161008b3660046102b5565b5f9081526002602090815260408083206001600160a01b03949094168352929052205490565b6040519081526020015b60405180910390f35b6100d96100d2366004610325565b5050505050565b005b6100d96100e9366004610388565b610180565b6100b16100fc3660046103d0565b5f9081526001602052604090205490565b6100d961011b3660046103e7565b5f9182526002602090815260408084206001600160a01b03909516845293905291902055565b6100d961014f366004610417565b5f9182526001602052604090912055565b61017361016e3660046103d0565b6101e0565b6040516100bb9190610437565b5f83815260208190526040902061019890838361023d565b506040518390339082907fb44d84d3289691f71497564b85d4233648d9dbae8cbdbb4329f301c3a0185894906101d39086908890829061047a565b60405180910390a4505050565b5f818152602081815260409182902080548351818402810184019094528084526060939283018282801561023157602002820191905f5260205f20905b81548152602001906001019080831161021d575b50505050509050919050565b828054828255905f5260205f20908101928215610276579160200282015b8281111561027657823582559160200191906001019061025b565b50610282929150610286565b5090565b5b80821115610282575f8155600101610287565b80356001600160a01b03811681146102b0575f80fd5b919050565b5f80604083850312156102c6575f80fd5b6102cf8361029a565b946020939093013593505050565b5f8083601f8401126102ed575f80fd5b50813567ffffffffffffffff811115610304575f80fd5b6020830191508360208260051b850101111561031e575f80fd5b9250929050565b5f805f805f60808688031215610339575f80fd5b6103428661029a565b94506020860135935060408601359250606086013567ffffffffffffffff81111561036b575f80fd5b610377888289016102dd565b969995985093965092949392505050565b5f805f6040848603121561039a575f80fd5b83359250602084013567ffffffffffffffff8111156103b7575f80fd5b6103c3868287016102dd565b9497909650939450505050565b5f602082840312156103e0575f80fd5b5035919050565b5f805f606084860312156103f9575f80fd5b6104028461029a565b95602085013595506040909401359392505050565b5f8060408385031215610428575f80fd5b50508035926020909101359150565b602080825282518282018190525f9190848201906040850190845b8181101561046e57835183529284019291840191600101610452565b50909695505050505050565b83815260406020820181905281018290525f6001600160fb1b0383111561049f575f80fd5b8260051b808560608501379190910160600194935050505056fea26469706673582212202a0979fffc848f47cb1238e5bee022f65c08db1123aaf7d5a38413d208f0a3a764736f6c63430008180033",
        "nonce": "0x1f",
        "chainId": "0x7a69"
      },
      "additionalContracts": [],
      "isFixedGasLimit": false
    },
    {
      "hash": "0x68123aa8e75ec06207170af13656a6e55b58cb4c6f34f29a4a09b05170f1c514",
      "transactionType": "CREATE",
      "contractName": "PoseidonT3Hasher",
      "contractAddress": "0x84ea74d481ee0a5332c457a4d796187f6ba67feb",
      "function": null,
      "arguments": null,
      "transaction": {
        "from": "0xf39fd6e51aad88f6f4ce6ab8827279cfffb92266",
        "to": null,
        "gas": "0x3013f",
        "value": "0x0",
        "input": "0x608060405234801561000f575f80fd5b506101c68061001d5f395ff3fe608060405234801561000f575f80fd5b5060043610610029575f3560e01c806329a5f2f61461002d575b5f80fd5b61004061003b366004610110565b610052565b60405190815260200160405180910390f35b5f73cddcb0e014758e919f344829585cd385ffc4656c63561558fe6040518060400160405280855f6002811061008a5761008a610135565b60200201358152602001856001600281106100a7576100a7610135565b60200201358152506040518263ffffffff1660e01b81526004016100cb9190610149565b602060405180830381865af41580156100e6573d5f803e3d5ffd5b505050506040513d601f19601f8201168201806040525081019061010a9190610179565b92915050565b5f60408284031215610120575f80fd5b8260408301111561012f575f80fd5b50919050565b634e487b7160e01b5f52603260045260245ffd5b6040810181835f5b6002811015610170578151835260209283019290910190600101610151565b50505092915050565b5f60208284031215610189575f80fd5b505191905056fea2646970667358221220f16192b846b518c765e7003a0041660786cf19e46e63680222eb3c8fbb7a3eb864736f6c63430008180033",
        "nonce": "0x20",
        "chainId": "0x7a69"
      },
      "additionalContracts": [],
      "isFixedGasLimit": false
    },
    {
      "hash": "0x8902f24c8f91c15f91d57d036ddd006273b6af36e8086c5afdda5ecd06388341",
      "transactionType": "CREATE",
      "contractName": "NullifierRegistry",
      "contractAddress": "0x9e545e3c0baab3e08cdfd552c960a1050f373042",
      "function": null,
      "arguments": [
        "0x1613beB3B2C4f22Ee086B2b38C1476A3cE7f78E8"
      ],
      "transaction": {
        "from": "0xf39fd6e51aad88f6f4ce6ab8827279cfffb92266",
        "to": null,
        "gas": "0x31ed4",
        "value": "0x0",
        "input": "0x60a060405234801561000f575f80fd5b5060405161026438038061026483398101604081905261002e9161003f565b6001600160a01b031660805261006c565b5f6020828403121561004f575f80fd5b81516001600160a01b0381168114610065575f80fd5b9392505050565b6080516101da61008a5f395f818160c1015261010601526101da5ff3fe608060405234801561000f575f80fd5b506004361061004a575f3560e01c80632cfe84951461004e578063ae20bed314610063578063e5285dcc1461009a578063fbfa77cf146100bc575b5f80fd5b61006161005c36600461018d565b6100fb565b005b61008561007136600461018d565b5f6020819052908152604090205460ff1681565b60405190151581526020015b60405180910390f35b6100856100a836600461018d565b5f9081526020819052604090205460ff1690565b6100e37f000000000000000000000000000000000000000000000000000000000000000081565b6040516001600160a01b039091168152602001610091565b336001600160a01b037f0000000000000000000000000000000000000000000000000000000000000000161461014457604051638d1af8bd60e01b815260040160405180910390fd5b5f8181526020819052604090205460ff16156101735760405163d4d9b0fd60e01b815260040160405180910390fd5b5f908152602081905260409020805460ff19166001179055565b5f6020828403121561019d575f80fd5b503591905056fea264697066735822122098219c7f9bd9705565c982f4726775d53acd58a6b5e3575ca8a981aaa31e565e64736f6c634300081800330000000000000000000000001613beb3b2c4f22ee086b2b38c1476a3ce7f78e8",
        "nonce": "0x21",
        "chainId": "0x7a69"
      },
      "additionalContracts": [],
      "isFixedGasLimit": false
    },
    {
      "hash": "0xd5dde290af34202668bb987b24b342032d94220b968b214099770122e5cdd92e",
      "transactionType": "CREATE",
      "contractName": "CommitmentMerkleTree",
      "contractAddress": "0xa82ff9afd8f496c3d6ac40e2a0f282e47488cfc9",
      "function": null,
      "arguments": [
        "0x1613beB3B2C4f22Ee086B2b38C1476A3cE7f78E8",
        "0x84eA74d481Ee0A5332c457a4d796187F6Ba67fEB"
      ],
      "transaction": {
        "from": "0xf39fd6e51aad88f6f4ce6ab8827279cfffb92266",
        "to": null,
        "gas": "0x394579",
        "value": "0x0",
        "input": "0x60c060405234801561000f575f80fd5b5060405161091538038061091583398101604081905261002e91610157565b6001600160a01b0380831660a05281166080525f805b602063ffffffff8216101561009d57815f8263ffffffff166020811061006c5761006c610188565b015581602063ffffffff831681811061008757610087610188565b015561009382806100b5565b9150600101610044565b506040555050605e805463ffffffff191690556101e3565b6080516040805180820182528481526020810184905290516314d2f97b60e11b81525f926001600160a01b0316916329a5f2f6916100f6919060040161019c565b602060405180830381865afa158015610111573d5f803e3d5ffd5b505050506040513d601f19601f8201168201806040525081019061013591906101cc565b9392505050565b80516001600160a01b0381168114610152575f80fd5b919050565b5f8060408385031215610168575f80fd5b6101718361013c565b915061017f6020840161013c565b90509250929050565b634e487b7160e01b5f52603260045260245ffd5b6040810181835f5b60028110156101c35781518352602092830192909101906001016101a4565b50505092915050565b5f602082840312156101dc575f80fd5b5051919050565b60805160a0516107036102125f395f81816101c3015261021b01525f818161014301526104fe01526107035ff3fe608060405234801561000f575f80fd5b50600436106100b1575f3560e01c8063d539857a1161006e578063d539857a1461017d578063e829558814610190578063f1650536146101a3578063f178e47c146101ab578063fbfa77cf146101be578063fc7e9c6f146101e5575f80fd5b80631c8e8d7a146100b55780632d287e43146100db578063652c462e146100ee5780636d9833e31461010b57806390eeb02b1461012e578063c62b919e1461013e575b5f80fd5b6100c86100c3366004610570565b6101fd565b6040519081526020015b60405180910390f35b6100c86100e9366004610590565b61020f565b6100f6601e81565b60405163ffffffff90911681526020016100d2565b61011e610119366004610590565b61040f565b60405190151581526020016100d2565b605e546100f69063ffffffff1681565b6101657f000000000000000000000000000000000000000000000000000000000000000081565b6040516001600160a01b0390911681526020016100d2565b6100c861018b366004610590565b6104a0565b6100c861019e366004610590565b6104b6565b6100f6602081565b6100c86101b9366004610590565b6104c4565b6101657f000000000000000000000000000000000000000000000000000000000000000081565b605e546100f690640100000000900463ffffffff1681565b5f61020883836104d3565b9392505050565b5f336001600160a01b037f0000000000000000000000000000000000000000000000000000000000000000161461025957604051638d1af8bd60e01b815260040160405180910390fd5b605e5463ffffffff640100000000918290041690811061028c57604051631691e59f60e31b815260040160405180910390fd5b6102978160016105bb565b605e805463ffffffff929092166401000000000267ffffffff000000001990921691909117905582815f5b602063ffffffff8216101561036a576102dc6002836105f3565b63ffffffff165f0361032e578260208263ffffffff166020811061030257610302610615565b0155610327835f63ffffffff84166020811061032057610320610615565b01546104d3565b9250610355565b61035260208263ffffffff166020811061034a5761034a610615565b0154846104d3565b92505b610360600283610629565b91506001016102c2565b50605e5491935083915f90601e906103899063ffffffff1660016105bb565b61039391906105f3565b605e805463ffffffff191663ffffffff83169081179091559091508590604090601e81106103c3576103c3610615565b0155604080518781526020810187905263ffffffff8616917fa71aae9c5dcd63ac47f172e5f4e7d9f6682bcb16d365a35e3ff0977b7a0ad772910160405180910390a250505050919050565b5f8161041c57505f919050565b605e5463ffffffff165f5b601e63ffffffff82161015610497578360408363ffffffff16601e811061045057610450610615565b015403610461575060019392505050565b8163ffffffff165f036104815761047a6001601e61064b565b915061048f565b8161048b81610668565b9250505b600101610427565b505f9392505050565b604081601e81106104af575f80fd5b0154905081565b5f81602081106104af575f80fd5b602081602081106104af575f80fd5b6040805180820182528381526020810183905290516314d2f97b60e11b81525f916001600160a01b037f000000000000000000000000000000000000000000000000000000000000000016916329a5f2f69161053191600401610686565b602060405180830381865afa15801561054c573d5f803e3d5ffd5b505050506040513d601f19601f8201168201806040525081019061020891906106b6565b5f8060408385031215610581575f80fd5b50508035926020909101359150565b5f602082840312156105a0575f80fd5b5035919050565b634e487b7160e01b5f52601160045260245ffd5b63ffffffff8181168382160190808211156105d8576105d86105a7565b5092915050565b634e487b7160e01b5f52601260045260245ffd5b5f63ffffffff80841680610609576106096105df565b92169190910692915050565b634e487b7160e01b5f52603260045260245ffd5b5f63ffffffff8084168061063f5761063f6105df565b92169190910492915050565b63ffffffff8281168282160390808211156105d8576105d86105a7565b5f63ffffffff82168061067d5761067d6105a7565b5f190192915050565b6040810181835f5b60028110156106ad57815183526020928301929091019060010161068e565b50505092915050565b5f602082840312156106c6575f80fd5b505191905056fea2646970667358221220c94a973cfbb5e260a3bd9cbbeecf2fad3a8f6684bcbb8a0d74cc9d229b0dd3a164736f6c634300081800330000000000000000000000001613beb3b2c4f22ee086b2b38c1476a3ce7f78e800000000000000000000000084ea74d481ee0a5332c457a4d796187f6ba67feb",
        "nonce": "0x22",
        "chainId": "0x7a69"
      },
      "additionalContracts": [],
      "isFixedGasLimit": false
    },
    {
      "hash": "0xe4f4196be7094dce6f8c5b3fede276c1e752b9d690c99e876f4540be653d4e93",
      "transactionType": "CREATE",
      "contractName": "Vault",
      "contractAddress": "0x1613beb3b2c4f22ee086b2b38c1476a3ce7f78e8",
      "function": null,
      "arguments": [
        "0xE6E340D132b5f46d1e472DebcD681B2aBc16e57E",
        "0xa82fF9aFd8f496c3d6ac40E2a0F282E47488CFc9",
        "0x9E545E3C0baAB3E08CdfD552C960A1050f373042",
        "0x0000000000000000000000000000000000000000",
        "0x0000000000000000000000000000000000000000",
        "0xc3e53F4d16Ae77Db1c982e75a937B9f60FE63690",
        "0x70997970C51812dc3A010C7d01b50e0d17dc79C8",
        "0x3C44CdDdB6a900fa2b585dd299e03d12FA4293BC",
        "0xf39Fd6e51aad88F6F4ce6aB8827279cffFb92266"
      ],
      "transaction": {
        "from": "0xf39fd6e51aad88f6f4ce6ab8827279cfffb92266",
        "to": null,
        "gas": "0x30948b",
        "value": "0x0",
        "input": "0x608060405234801562000010575f80fd5b5060405162002a1038038062002a10833981016040819052620000339162000190565b8060017f9b779b17422d0df92223018b32b4d1fa46e071723d6817e2486d003becc55f00556001600160a01b0381166200008657604051631e4fbdf760e01b81525f600482015260240160405180910390fd5b620000918162000125565b5050600380546001600160a01b03199081166001600160a01b039a8b1617909155600180548216988a169890981790975560028054881696891696909617909555600480548716948816949094179093556005805486169287169290921790915560068054851691861691909117905560078054841691851691909117905560088054909216921691909117905562000245565b5f80546001600160a01b038381166001600160a01b0319831681178455604051919092169283917f8be0079c531659141344cd1fd0a4f28419497f9722a3daafe3b4186f6b6457e09190a35050565b80516001600160a01b03811681146200018b575f80fd5b919050565b5f805f805f805f805f6101208a8c031215620001aa575f80fd5b620001b58a62000174565b9850620001c560208b0162000174565b9750620001d560408b0162000174565b9650620001e560608b0162000174565b9550620001f560808b0162000174565b94506200020560a08b0162000174565b93506200021560c08b0162000174565b92506200022560e08b0162000174565b9150620002366101008b0162000174565b90509295985092959850929598565b6127bd80620002535f395ff3fe608060405234801561000f575f80fd5b50600436106101d1575f3560e01c80638078def9116100fe578063b3ca31881161009e578063cb6462731161006e578063cb6462731461041d578063f2fde38b14610430578063fd54b22814610443578063feb9863314610456575f80fd5b8063b3ca3188146103d4578063b8a429ff14610401578063bdf960bf1461040d578063c94c05be14610415575f80fd5b80638da5cb5b116100d95780638da5cb5b1461038b578063984df41a1461039b5780639b860469146103ae578063a5f5a2cf146103c1575f80fd5b80638078def91461035d5780638485fbec146103705780638b3eff4f14610383575f80fd5b806339b51ea511610174578063578468d311610144578063578468d31461031c57806363ca323a1461032f578063714378f314610342578063715018a614610355575f80fd5b806339b51ea5146102945780633e2ccd6c146102a75780633e413bee14610301578063433f6c1214610314575f80fd5b806322a9339f116101af57806322a9339f1461022d57806328172c9a146102405780632d69be98146102595780632fb8ff9714610281575f80fd5b8063062c0903146101d557806309904c00146101ea5780631de26e161461021a575b5f80fd5b6101e86101e3366004612282565b610469565b005b6008546101fd906001600160a01b031681565b6040516001600160a01b0390911681526020015b60405180910390f35b6101e86102283660046122a2565b610493565b6006546101fd906001600160a01b031681565b6102475f81565b60405160ff9091168152602001610211565b6101fd6102673660046122d2565b60096020525f90815260409020546001600160a01b031681565b6101e861028f3660046122eb565b6105d8565b6002546101fd906001600160a01b031681565b6102f06102b536600461231c565b600a6020525f908152604090208054600182015460028301546003840154600490940154929391926001600160401b03909116919060ff1685565b604051610211959493929190612347565b6003546101fd906001600160a01b031681565b610247600281565b6004546101fd906001600160a01b031681565b6005546101fd906001600160a01b031681565b6101e86103503660046123f1565b610612565b6101e86109a1565b6101e861036b366004612441565b6109b4565b6007546101fd906001600160a01b031681565b610247600381565b5f546001600160a01b03166101fd565b6101e86103a93660046124a2565b610d35565b6101e86103bc3660046124fb565b61116a565b6101e86103cf36600461231c565b6115ad565b6103f36103e2366004612282565b600b6020525f908152604090205481565b604051908152602001610211565b6103f3640ba43b740081565b610247600181565b610247600481565b6101e861042b366004612548565b611641565b6101e861043e366004612282565b6119df565b6001546101fd906001600160a01b031681565b6101e861046436600461231c565b611a21565b610471611ab5565b600780546001600160a01b0319166001600160a01b0392909216919091179055565b61049b611ae1565b335f908152600b6020526040902054640ba43b7400906104bc908390612594565b11156104db576040516324d758c360e21b815260040160405180910390fd5b335f908152600b6020526040812080548392906104f9908490612594565b9091555050600354610516906001600160a01b0316333084611afc565b600154604051632d287e4360e01b8152600481018490526001600160a01b0390911690632d287e43906024016020604051808303815f875af115801561055e573d5f803e3d5ffd5b505050506040513d601f19601f8201168201806040525081019061058291906125b3565b50604080518381526020810183905233917ffe447f84c02bd3d47e0f77ccc68779ac1a79d4a2e3a0a66f626b495f8bf88084910160405180910390a26105d460015f8051602061276883398151915255565b5050565b6105e0611ab5565b60ff919091165f90815260096020526040902080546001600160a01b0319166001600160a01b03909216919091179055565b61061a611ae1565b60025460405163394a177360e21b8152602083013560048201526001600160a01b039091169063e5285dcc90602401602060405180830381865afa158015610664573d5f803e3d5ffd5b505050506040513d601f19601f8201168201806040525081019061068891906125ca565b156106a6576040516331b9a7d560e11b815260040160405180910390fd5b600154604051636d9833e360e01b8152823560048201526001600160a01b0390911690636d9833e390602401602060405180830381865afa1580156106ed573d5f803e3d5ffd5b505050506040513d601f19601f8201168201806040525081019061071191906125ca565b61072e57604051634629008b60e11b815260040160405180910390fd5b60608101355f908152600a60205260409020805461075f5760405163469bfa9160e01b815260040160405180910390fd5b600260048083015460ff169081111561077a5761077a612333565b1461079857604051633f66123960e11b815260040160405180910390fd5b5f6107a7838360030154611b32565b60035f5260096020527fc575c31fea594a6eb97c8e9d3f9caee4c16218c6ef37e923234c0fe9014a61e754604051633a94343960e21b81529192506001600160a01b03169063ea50d0e490610804908890889086906004016125e9565b602060405180830381865afa15801561081f573d5f803e3d5ffd5b505050506040513d601f19601f8201168201806040525081019061084391906125ca565b610860576040516309bde33960e01b815260040160405180910390fd5b600254604051632cfe849560e01b8152602085013560048201526001600160a01b0390911690632cfe8495906024015f604051808303815f87803b1580156108a6575f80fd5b505af11580156108b8573d5f803e3d5ffd5b505060015460408051632d287e4360e01b81529087013560048201526001600160a01b039091169250632d287e4391506024016020604051808303815f875af1158015610907573d5f803e3d5ffd5b505050506040513d601f19601f8201168201806040525081019061092b91906125b3565b506004828101805460ff19169091179055604080516060850135815281850135602082810191909152850135917fcfb1739990b7870c2f269b9b0d52f2afd46593251e064769847c72514a11cd5f91015b60405180910390a2505061099c60015f8051602061276883398151915255565b505050565b6109a9611ab5565b6109b25f611c10565b565b6109bc611ae1565b60025460405163394a177360e21b8152602084013560048201526001600160a01b039091169063e5285dcc90602401602060405180830381865afa158015610a06573d5f803e3d5ffd5b505050506040513d601f19601f82011682018060405250810190610a2a91906125ca565b15610a48576040516331b9a7d560e11b815260040160405180910390fd5b600154604051636d9833e360e01b8152833560048201526001600160a01b0390911690636d9833e390602401602060405180830381865afa158015610a8f573d5f803e3d5ffd5b505050506040513d601f19601f82011682018060405250810190610ab391906125ca565b610ad057604051634629008b60e11b815260040160405180910390fd5b60025f5260096020527f6cde3cea4b3a3fb2488b2808bae7556f4a405e50f65e1794383bc026131b13c3546001600160a01b031663ea50d0e48585610b1486611c5f565b6040518463ffffffff1660e01b8152600401610b32939291906125e9565b602060405180830381865afa158015610b4d573d5f803e3d5ffd5b505050506040513d601f19601f82011682018060405250810190610b7191906125ca565b610b8e576040516309bde33960e01b815260040160405180910390fd5b600154604051630e4746bd60e11b81526001600160a01b0383811660048301525f60248301819052921690631c8e8d7a90604401602060405180830381865afa158015610bdd573d5f803e3d5ffd5b505050506040513d601f19601f82011682018060405250810190610c0191906125b3565b905082606001358114610c27576040516333d1661360e11b815260040160405180910390fd5b600254604051632cfe849560e01b8152602085013560048201526001600160a01b0390911690632cfe8495906024015f604051808303815f87803b158015610c6d575f80fd5b505af1158015610c7f573d5f803e3d5ffd5b50505050610cb682846040016020810190610c9a9190612661565b6003546001600160a01b031691906001600160401b0316611d2d565b60208301357f04eda370f8b8612fa7266d7ebbd41af9d694e19793fe9d9ff31b3ddbd99b08e183610ced6060870160408801612661565b604080516001600160a01b0390931683526001600160401b039190911660208301520160405180910390a250610d2f60015f8051602061276883398151915255565b50505050565b610d3d611ae1565b60025460405163394a177360e21b8152602083013560048201526001600160a01b039091169063e5285dcc90602401602060405180830381865afa158015610d87573d5f803e3d5ffd5b505050506040513d601f19601f82011682018060405250810190610dab91906125ca565b15610dc9576040516331b9a7d560e11b815260040160405180910390fd5b600154604051636d9833e360e01b8152823560048201526001600160a01b0390911690636d9833e390602401602060405180830381865afa158015610e10573d5f803e3d5ffd5b505050506040513d601f19601f82011682018060405250810190610e3491906125ca565b610e5157604051634629008b60e11b815260040160405180910390fd5b60608101355f908152600a602052604090208054610e825760405163469bfa9160e01b815260040160405180910390fd5b8054608083013514610ea75760405163c0ee050360e01b815260040160405180910390fd5b60065460405163f88669bd60e01b8152608084013560048201525f916001600160a01b03169063f88669bd906024015f60405180830381865afa158015610ef0573d5f803e3d5ffd5b505050506040513d5f823e601f3d908101601f19168201604052610f17919081019061269b565b90505f5b8151811015610f6557818181518110610f3657610f36612753565b60200260200101515f14610f5d57604051631069ee2960e21b815260040160405180910390fd5b600101610f1b565b505f610f75848460030154611d62565b60045f81905260096020527f8dc18c4ccfd75f5c815b63770fa542fd953e8fef7e0e44bbdd4913470ce7e9cb54604051633a94343960e21b81529293506001600160a01b03169163ea50d0e491610fd2918a918a918791016125e9565b602060405180830381865afa158015610fed573d5f803e3d5ffd5b505050506040513d601f19601f8201168201806040525081019061101191906125ca565b61102e576040516309bde33960e01b815260040160405180910390fd5b600254604051632cfe849560e01b8152602086013560048201526001600160a01b0390911690632cfe8495906024015f604051808303815f87803b158015611074575f80fd5b505af1158015611086573d5f803e3d5ffd5b505060015460408051632d287e4360e01b81529088013560048201526001600160a01b039091169250632d287e4391506024016020604051808303815f875af11580156110d5573d5f803e3d5ffd5b505050506040513d601f19601f820116820180604052508101906110f991906125b3565b506004838101805460ff19169091179055604080516060860135815281860135602082810191909152860135917fb4b2e5f42b4bbbc0d7fc49b0580ef6095dd28bee07d2f2d00efc43d2e3b5b11e910160405180910390a250505061099c60015f8051602061276883398151915255565b611172611ae1565b60025460405163394a177360e21b8152602083013560048201526001600160a01b039091169063e5285dcc90602401602060405180830381865afa1580156111bc573d5f803e3d5ffd5b505050506040513d601f19601f820116820180604052508101906111e091906125ca565b156111fe576040516331b9a7d560e11b815260040160405180910390fd5b600154604051636d9833e360e01b8152823560048201526001600160a01b0390911690636d9833e390602401602060405180830381865afa158015611245573d5f803e3d5ffd5b505050506040513d601f19601f8201168201806040525081019061126991906125ca565b61128657604051634629008b60e11b815260040160405180910390fd5b5f805260096020527fec8156718a8372b1db44bb411437d0870f3e3790d4a08526d024ce1b0b668f6b546001600160a01b031663ea50d0e484846112c985611e50565b6040518463ffffffff1660e01b81526004016112e7939291906125e9565b602060405180830381865afa158015611302573d5f803e3d5ffd5b505050506040513d601f19601f8201168201806040525081019061132691906125ca565b611343576040516309bde33960e01b815260040160405180910390fd5b600254604051632cfe849560e01b8152602083013560048201526001600160a01b0390911690632cfe8495906024015f604051808303815f87803b158015611389575f80fd5b505af115801561139b573d5f803e3d5ffd5b505060015460408051632d287e4360e01b81529085013560048201526001600160a01b039091169250632d287e4391506024016020604051808303815f875af11580156113ea573d5f803e3d5ffd5b505050506040513d601f19601f8201168201806040525081019061140e91906125b3565b506040805160a0808201835260c08401803583526101008501356020840152919283019161143d918501612661565b6001600160401b0316815260200161145b6080840160608501612661565b6001600160401b031681526020015f90526020828101355f908152600a825260409081902083518155918301516001808401919091559083015160028301805467ffffffffffffffff19166001600160401b03909216919091179055606083015160038301556080830151600480840180549293909260ff19169184908111156114e7576114e7612333565b0217905550505060208101357fdfdd7047b45de8091cb01411344fae78302b836fa0af475c5a0df5bba2151d9560c083018035906101008501359061152f9060a08701612661565b61153f6080870160608801612661565b6001600160401b031661155860a0880160808901612661565b6040805195865260208601949094526001600160401b0392831685850152606085019190915216608083015284013560a082015260c00160405180910390a261099c60015f8051602061276883398151915255565b6007546001600160a01b031633146115d8576040516327e1f1e560e01b815260040160405180910390fd5b5f818152600a6020526040902080546116045760405163469bfa9160e01b815260040160405180910390fd5b60048101805460ff1916600217905560405182907f8551007b9f9e598b425f260fe16415264b39b4c41924132c2bbc35feb18402f6905f90a25050565b611649611ae1565b60025460405163394a177360e21b8152602083013560048201526001600160a01b039091169063e5285dcc90602401602060405180830381865afa158015611693573d5f803e3d5ffd5b505050506040513d601f19601f820116820180604052508101906116b791906125ca565b156116d5576040516331b9a7d560e11b815260040160405180910390fd5b600154604051636d9833e360e01b8152823560048201526001600160a01b0390911690636d9833e390602401602060405180830381865afa15801561171c573d5f803e3d5ffd5b505050506040513d601f19601f8201168201806040525081019061174091906125ca565b61175d57604051634629008b60e11b815260040160405180910390fd5b60608101355f908152600a60205260409020805461178e5760405163469bfa9160e01b815260040160405180910390fd5b80546080830135146117b35760405163c0ee050360e01b815260040160405180910390fd5b600160048083015460ff16908111156117ce576117ce612333565b146117ec5760405163eeec22f960e01b815260040160405180910390fd5b60028101545f906118079084906001600160401b0316611ffe565b60015f5260096020527f92e85d02570a8092d09a6e3a57665bc3815a2699a4074001bf1ccabf660f5a3654604051633a94343960e21b81529192506001600160a01b03169063ea50d0e490611864908890889086906004016125e9565b602060405180830381865afa15801561187f573d5f803e3d5ffd5b505050506040513d601f19601f820116820180604052508101906118a391906125ca565b6118c0576040516309bde33960e01b815260040160405180910390fd5b600254604051632cfe849560e01b8152602085013560048201526001600160a01b0390911690632cfe8495906024015f604051808303815f87803b158015611906575f80fd5b505af1158015611918573d5f803e3d5ffd5b505060015460408051632d287e4360e01b81529087013560048201526001600160a01b039091169250632d287e4391506024016020604051808303815f875af1158015611967573d5f803e3d5ffd5b505050506040513d601f19601f8201168201806040525081019061198b91906125b3565b5060048201805460ff19166003179055604080516060850135815281850135602082810191909152850135917f039724bb3df289ee62d3a5c95f85e0835e65a69963c7b2640ebadf164cc46cb6910161097c565b6119e7611ab5565b6001600160a01b038116611a1557604051631e4fbdf760e01b81525f60048201526024015b60405180910390fd5b611a1e81611c10565b50565b6007546001600160a01b03163314611a4c576040516327e1f1e560e01b815260040160405180910390fd5b5f818152600a602052604090208054611a785760405163469bfa9160e01b815260040160405180910390fd5b60048101805460ff1916600117905560405182907ffd57e8a94133bd283521cf773f47742ac5b91cab66865dd076faf6fbc3edc805905f90a25050565b5f546001600160a01b031633146109b25760405163118cdaa760e01b8152336004820152602401611a0c565b611ae9612169565b60025f8051602061276883398151915255565b611b0a848484846001612198565b610d2f57604051635274afe760e01b81526001600160a01b0385166004820152602401611a0c565b60408051600580825260c082019092526060915f91906020820160a080368337019050509050835f0135815f81518110611b6e57611b6e612753565b602002602001018181525050836020013581600181518110611b9257611b92612753565b602002602001018181525050836040013581600281518110611bb657611bb6612753565b602002602001018181525050836060013581600381518110611bda57611bda612753565b602002602001018181525050825f1b81600481518110611bfc57611bfc612753565b602090810291909101015290505b92915050565b5f80546001600160a01b038381166001600160a01b0319831681178455604051919092169283917f8be0079c531659141344cd1fd0a4f28419497f9722a3daafe3b4186f6b6457e09190a35050565b60408051600480825260a082019092526060915f919060208201608080368337019050509050825f0135815f81518110611c9b57611c9b612753565b602002602001018181525050826020013581600181518110611cbf57611cbf612753565b6020908102919091010152611cda6060840160408501612661565b6001600160401b03165f1b81600281518110611cf857611cf8612753565b602002602001018181525050826060013581600381518110611d1c57611d1c612753565b602090810291909101015292915050565b611d3a8383836001612205565b61099c57604051635274afe760e01b81526001600160a01b0384166004820152602401611a0c565b60408051600680825260e082019092526060915f91906020820160c080368337019050509050835f0135815f81518110611d9e57611d9e612753565b602002602001018181525050836020013581600181518110611dc257611dc2612753565b602002602001018181525050836040013581600281518110611de657611de6612753565b602002602001018181525050836060013581600381518110611e0a57611e0a612753565b602002602001018181525050836080013581600481518110611e2e57611e2e612753565b602002602001018181525050825f1b81600581518110611bfc57611bfc612753565b60408051600980825261014082019092526060915f91906020820161012080368337019050509050825f0135815f81518110611e8e57611e8e612753565b602002602001018181525050826020013581600181518110611eb257611eb2612753565b602002602001018181525050826040013581600281518110611ed657611ed6612753565b6020908102919091010152611ef16080840160608501612661565b6001600160401b03165f1b81600381518110611f0f57611f0f612753565b6020908102919091010152611f2a60a0840160808501612661565b6001600160401b03165f1b81600481518110611f4857611f48612753565b6020908102919091010152611f6360c0840160a08501612661565b6001600160401b03165f1b81600581518110611f8157611f81612753565b6020026020010181815250508260c0013581600681518110611fa557611fa5612753565b6020908102919091010152611fc1610100840160e085016122d2565b60ff165f1b81600781518110611fd957611fd9612753565b60200260200101818152505082610100013581600881518110611d1c57611d1c612753565b60408051600880825261012082019092526060915f91906020820161010080368337019050509050835f0135815f8151811061203c5761203c612753565b60200260200101818152505083602001358160018151811061206057612060612753565b60200260200101818152505083604001358160028151811061208457612084612753565b6020026020010181815250508360600135816003815181106120a8576120a8612753565b6020026020010181815250508360800135816004815181106120cc576120cc612753565b60209081029190910101526120e760c0850160a08601612661565b6001600160401b03165f1b8160058151811061210557612105612753565b602002602001018181525050826001600160401b03165f1b8160068151811061213057612130612753565b602090810291909101015261214b60e0850160c08601612661565b6001600160401b03165f1b81600781518110611bfc57611bfc612753565b5f80516020612768833981519152546002036109b257604051633ee5aeb560e01b815260040160405180910390fd5b6040516323b872dd60e01b5f8181526001600160a01b038781166004528616602452604485905291602083606481808c5af1925060015f511483166121f45783831516156121e8573d5f823e3d81fd5b5f883b113d1516831692505b604052505f60605295945050505050565b60405163a9059cbb60e01b5f8181526001600160a01b038616600452602485905291602083604481808b5af1925060015f5114831661225b57838315161561224f573d5f823e3d81fd5b5f873b113d1516831692505b60405250949350505050565b80356001600160a01b038116811461227d575f80fd5b919050565b5f60208284031215612292575f80fd5b61229b82612267565b9392505050565b5f80604083850312156122b3575f80fd5b50508035926020909101359150565b803560ff8116811461227d575f80fd5b5f602082840312156122e2575f80fd5b61229b826122c2565b5f80604083850312156122fc575f80fd5b612305836122c2565b915061231360208401612267565b90509250929050565b5f6020828403121561232c575f80fd5b5035919050565b634e487b7160e01b5f52602160045260245ffd5b858152602081018590526001600160401b03841660408201526060810183905260a081016005831061238757634e487b7160e01b5f52602160045260245ffd5b8260808301529695505050505050565b5f8083601f8401126123a7575f80fd5b5081356001600160401b038111156123bd575f80fd5b6020830191508360208285010111156123d4575f80fd5b9250929050565b5f608082840312156123eb575f80fd5b50919050565b5f805f60a08486031215612403575f80fd5b83356001600160401b03811115612418575f80fd5b61242486828701612397565b9094509250612438905085602086016123db565b90509250925092565b5f805f8060c08587031215612454575f80fd5b84356001600160401b03811115612469575f80fd5b61247587828801612397565b9095509350612489905086602087016123db565b915061249760a08601612267565b905092959194509250565b5f805f83850360c08112156124b5575f80fd5b84356001600160401b038111156124ca575f80fd5b6124d687828801612397565b90955093505060a0601f19820112156124ed575f80fd5b506020840190509250925092565b5f805f83850361014081121561250f575f80fd5b84356001600160401b03811115612524575f80fd5b61253087828801612397565b909550935050610120601f19820112156124ed575f80fd5b5f805f83850361010081121561255c575f80fd5b84356001600160401b03811115612571575f80fd5b61257d87828801612397565b90955093505060e0601f19820112156124ed575f80fd5b80820180821115611c0a57634e487b7160e01b5f52601160045260245ffd5b5f602082840312156125c3575f80fd5b5051919050565b5f602082840312156125da575f80fd5b8151801515811461229b575f80fd5b60408152826040820152828460608301375f606084830101525f601f19601f850116820160608101602060608584030160208601528186518084526080850191506020880194505f93505b808410156126545784518252938201936001939093019290820190612634565b5098975050505050505050565b5f60208284031215612671575f80fd5b81356001600160401b038116811461229b575f80fd5b634e487b7160e01b5f52604160045260245ffd5b5f60208083850312156126ac575f80fd5b82516001600160401b03808211156126c2575f80fd5b818501915085601f8301126126d5575f80fd5b8151818111156126e7576126e7612687565b8060051b604051601f19603f8301168101818110858211171561270c5761270c612687565b604052918252848201925083810185019188831115612729575f80fd5b938501935b828510156127475784518452938501939285019261272e565b98975050505050505050565b634e487b7160e01b5f52603260045260245ffdfe9b779b17422d0df92223018b32b4d1fa46e071723d6817e2486d003becc55f00a2646970667358221220bfd2ea3eb8ca6fd42fabac148a38be354ff1d27cc31a06cbffa5f9e75232f48564736f6c63430008180033000000000000000000000000e6e340d132b5f46d1e472debcd681b2abc16e57e000000000000000000000000a82ff9afd8f496c3d6ac40e2a0f282e47488cfc90000000000000000000000009e545e3c0baab3e08cdfd552c960a1050f37304200000000000000000000000000000000000000000000000000000000000000000000000000000000000000000000000000000000000000000000000000000000000000000000000000000000c3e53f4d16ae77db1c982e75a937b9f60fe6369000000000000000000000000070997970c51812dc3a010c7d01b50e0d17dc79c80000000000000000000000003c44cdddb6a900fa2b585dd299e03d12fa4293bc000000000000000000000000f39fd6e51aad88f6f4ce6ab8827279cfffb92266",
        "nonce": "0x23",
        "chainId": "0x7a69"
      },
      "additionalContracts": [],
      "isFixedGasLimit": false
    },
    {
      "hash": "0xca1a4161b98a66d863e9b23fdd57c465fbabc184cf74674102b371fa2dca5861",
      "transactionType": "CREATE",
      "contractName": "MockVerifier",
      "contractAddress": "0x851356ae760d987e095750cceb3bc6014560891c",
      "function": null,
      "arguments": [
        "true"
      ],
      "transaction": {
        "from": "0xf39fd6e51aad88f6f4ce6ab8827279cfffb92266",
        "to": null,
        "gas": "0x3686c",
        "value": "0x0",
        "input": "0x608060405234801561000f575f80fd5b5060405161022c38038061022c83398101604081905261002e91610043565b5f805460ff1916911515919091179055610069565b5f60208284031215610053575f80fd5b81518015158114610062575f80fd5b9392505050565b6101b6806100765f395ff3fe608060405234801561000f575f80fd5b506004361061003f575f3560e01c80636760737214610043578063ea50d0e414610065578063eb5dd1e314610094575b5f80fd5b6100636100513660046100a0565b5f805460ff1916911515919091179055565b005b6100806100733660046100c6565b5f5460ff16949350505050565b604051901515815260200160405180910390f35b5f546100809060ff1681565b5f602082840312156100b0575f80fd5b813580151581146100bf575f80fd5b9392505050565b5f805f80604085870312156100d9575f80fd5b843567ffffffffffffffff808211156100f0575f80fd5b818701915087601f830112610103575f80fd5b813581811115610111575f80fd5b886020828501011115610122575f80fd5b60209283019650945090860135908082111561013c575f80fd5b818701915087601f83011261014f575f80fd5b81358181111561015d575f80fd5b8860208260051b8501011115610171575f80fd5b9598949750506020019450505056fea26469706673582212207e8bd871e59efa9953ccb86d4b7dd4591463930b3c5c83f01f06e53b4c4ec54764736f6c634300081800330000000000000000000000000000000000000000000000000000000000000001",
        "nonce": "0x24",
        "chainId": "0x7a69"
      },
      "additionalContracts": [],
      "isFixedGasLimit": false
    },
    {
      "hash": "0x6c616f6948b9d7435f10feda870e74f982090e4f6130395d705976d1fb6ac350",
      "transactionType": "CREATE",
      "contractName": "MockVerifier",
      "contractAddress": "0xf5059a5d33d5853360d16c683c16e67980206f36",
      "function": null,
      "arguments": [
        "true"
      ],
      "transaction": {
        "from": "0xf39fd6e51aad88f6f4ce6ab8827279cfffb92266",
        "to": null,
        "gas": "0x3686c",
        "value": "0x0",
        "input": "0x608060405234801561000f575f80fd5b5060405161022c38038061022c83398101604081905261002e91610043565b5f805460ff1916911515919091179055610069565b5f60208284031215610053575f80fd5b81518015158114610062575f80fd5b9392505050565b6101b6806100765f395ff3fe608060405234801561000f575f80fd5b506004361061003f575f3560e01c80636760737214610043578063ea50d0e414610065578063eb5dd1e314610094575b5f80fd5b6100636100513660046100a0565b5f805460ff1916911515919091179055565b005b6100806100733660046100c6565b5f5460ff16949350505050565b604051901515815260200160405180910390f35b5f546100809060ff1681565b5f602082840312156100b0575f80fd5b813580151581146100bf575f80fd5b9392505050565b5f805f80604085870312156100d9575f80fd5b843567ffffffffffffffff808211156100f0575f80fd5b818701915087601f830112610103575f80fd5b813581811115610111575f80fd5b886020828501011115610122575f80fd5b60209283019650945090860135908082111561013c575f80fd5b818701915087601f83011261014f575f80fd5b81358181111561015d575f80fd5b8860208260051b8501011115610171575f80fd5b9598949750506020019450505056fea26469706673582212207e8bd871e59efa9953ccb86d4b7dd4591463930b3c5c83f01f06e53b4c4ec54764736f6c634300081800330000000000000000000000000000000000000000000000000000000000000001",
        "nonce": "0x25",
        "chainId": "0x7a69"
      },
      "additionalContracts": [],
      "isFixedGasLimit": false
    },
    {
      "hash": "0xecf70124b42977f68a9c4baa40076948179240488eac18c8041cd180391bc52d",
      "transactionType": "CREATE",
      "contractName": "MockVerifier",
      "contractAddress": "0x95401dc811bb5740090279ba06cfa8fcf6113778",
      "function": null,
      "arguments": [
        "true"
      ],
      "transaction": {
        "from": "0xf39fd6e51aad88f6f4ce6ab8827279cfffb92266",
        "to": null,
        "gas": "0x3686c",
        "value": "0x0",
        "input": "0x608060405234801561000f575f80fd5b5060405161022c38038061022c83398101604081905261002e91610043565b5f805460ff1916911515919091179055610069565b5f60208284031215610053575f80fd5b81518015158114610062575f80fd5b9392505050565b6101b6806100765f395ff3fe608060405234801561000f575f80fd5b506004361061003f575f3560e01c80636760737214610043578063ea50d0e414610065578063eb5dd1e314610094575b5f80fd5b6100636100513660046100a0565b5f805460ff1916911515919091179055565b005b6100806100733660046100c6565b5f5460ff16949350505050565b604051901515815260200160405180910390f35b5f546100809060ff1681565b5f602082840312156100b0575f80fd5b813580151581146100bf575f80fd5b9392505050565b5f805f80604085870312156100d9575f80fd5b843567ffffffffffffffff808211156100f0575f80fd5b818701915087601f830112610103575f80fd5b813581811115610111575f80fd5b886020828501011115610122575f80fd5b60209283019650945090860135908082111561013c575f80fd5b818701915087601f83011261014f575f80fd5b81358181111561015d575f80fd5b8860208260051b8501011115610171575f80fd5b9598949750506020019450505056fea26469706673582212207e8bd871e59efa9953ccb86d4b7dd4591463930b3c5c83f01f06e53b4c4ec54764736f6c634300081800330000000000000000000000000000000000000000000000000000000000000001",
        "nonce": "0x26",
        "chainId": "0x7a69"
      },
      "additionalContracts": [],
      "isFixedGasLimit": false
    },
    {
      "hash": "0x013c8e257f4bf25fa0ddfd9b53fc9085605f916ee034cdef2cfec5ba2f6b73a3",
      "transactionType": "CREATE",
      "contractName": "MockVerifier",
      "contractAddress": "0x998abeb3e57409262ae5b751f60747921b33613e",
      "function": null,
      "arguments": [
        "true"
      ],
      "transaction": {
        "from": "0xf39fd6e51aad88f6f4ce6ab8827279cfffb92266",
        "to": null,
        "gas": "0x3686c",
        "value": "0x0",
        "input": "0x608060405234801561000f575f80fd5b5060405161022c38038061022c83398101604081905261002e91610043565b5f805460ff1916911515919091179055610069565b5f60208284031215610053575f80fd5b81518015158114610062575f80fd5b9392505050565b6101b6806100765f395ff3fe608060405234801561000f575f80fd5b506004361061003f575f3560e01c80636760737214610043578063ea50d0e414610065578063eb5dd1e314610094575b5f80fd5b6100636100513660046100a0565b5f805460ff1916911515919091179055565b005b6100806100733660046100c6565b5f5460ff16949350505050565b604051901515815260200160405180910390f35b5f546100809060ff1681565b5f602082840312156100b0575f80fd5b813580151581146100bf575f80fd5b9392505050565b5f805f80604085870312156100d9575f80fd5b843567ffffffffffffffff808211156100f0575f80fd5b818701915087601f830112610103575f80fd5b813581811115610111575f80fd5b886020828501011115610122575f80fd5b60209283019650945090860135908082111561013c575f80fd5b818701915087601f83011261014f575f80fd5b81358181111561015d575f80fd5b8860208260051b8501011115610171575f80fd5b9598949750506020019450505056fea26469706673582212207e8bd871e59efa9953ccb86d4b7dd4591463930b3c5c83f01f06e53b4c4ec54764736f6c634300081800330000000000000000000000000000000000000000000000000000000000000001",
        "nonce": "0x27",
        "chainId": "0x7a69"
      },
      "additionalContracts": [],
      "isFixedGasLimit": false
    },
    {
      "hash": "0x696c396ec1fe1f6cdcead6155ff7bde6cd34e7e76bf77b87236346a7ce4be33a",
      "transactionType": "CREATE",
      "contractName": "MockVerifier",
      "contractAddress": "0x70e0ba845a1a0f2da3359c97e0285013525ffc49",
      "function": null,
      "arguments": [
        "true"
      ],
      "transaction": {
        "from": "0xf39fd6e51aad88f6f4ce6ab8827279cfffb92266",
        "to": null,
        "gas": "0x3686c",
        "value": "0x0",
        "input": "0x608060405234801561000f575f80fd5b5060405161022c38038061022c83398101604081905261002e91610043565b5f805460ff1916911515919091179055610069565b5f60208284031215610053575f80fd5b81518015158114610062575f80fd5b9392505050565b6101b6806100765f395ff3fe608060405234801561000f575f80fd5b506004361061003f575f3560e01c80636760737214610043578063ea50d0e414610065578063eb5dd1e314610094575b5f80fd5b6100636100513660046100a0565b5f805460ff1916911515919091179055565b005b6100806100733660046100c6565b5f5460ff16949350505050565b604051901515815260200160405180910390f35b5f546100809060ff1681565b5f602082840312156100b0575f80fd5b813580151581146100bf575f80fd5b9392505050565b5f805f80604085870312156100d9575f80fd5b843567ffffffffffffffff808211156100f0575f80fd5b818701915087601f830112610103575f80fd5b813581811115610111575f80fd5b886020828501011115610122575f80fd5b60209283019650945090860135908082111561013c575f80fd5b818701915087601f83011261014f575f80fd5b81358181111561015d575f80fd5b8860208260051b8501011115610171575f80fd5b9598949750506020019450505056fea26469706673582212207e8bd871e59efa9953ccb86d4b7dd4591463930b3c5c83f01f06e53b4c4ec54764736f6c634300081800330000000000000000000000000000000000000000000000000000000000000001",
        "nonce": "0x28",
        "chainId": "0x7a69"
      },
      "additionalContracts": [],
      "isFixedGasLimit": false
    },
    {
      "hash": "0xe450d76989497368f62a14ae45d53ab113ced0f3817dc365e984cacfff53ea29",
      "transactionType": "CALL",
      "contractName": "Vault",
      "contractAddress": "0x1613beb3b2c4f22ee086b2b38c1476a3ce7f78e8",
      "function": "setVerifier(uint8,address)",
      "arguments": [
        "0",
        "0x851356ae760d987E095750cCeb3bC6014560891C"
      ],
      "transaction": {
        "from": "0xf39fd6e51aad88f6f4ce6ab8827279cfffb92266",
        "to": "0x1613beb3b2c4f22ee086b2b38c1476a3ce7f78e8",
        "gas": "0xfabb",
        "value": "0x0",
        "input": "0x2fb8ff970000000000000000000000000000000000000000000000000000000000000000000000000000000000000000851356ae760d987e095750cceb3bc6014560891c",
        "nonce": "0x29",
        "chainId": "0x7a69"
      },
      "additionalContracts": [],
      "isFixedGasLimit": false
    },
    {
      "hash": "0x607cd20dcaf61328a2c4fa8382649c74c6b3aa28a4029069ba94efffc6451050",
      "transactionType": "CALL",
      "contractName": "Vault",
      "contractAddress": "0x1613beb3b2c4f22ee086b2b38c1476a3ce7f78e8",
      "function": "setVerifier(uint8,address)",
      "arguments": [
        "1",
        "0xf5059a5D33d5853360D16C683c16e67980206f36"
      ],
      "transaction": {
        "from": "0xf39fd6e51aad88f6f4ce6ab8827279cfffb92266",
        "to": "0x1613beb3b2c4f22ee086b2b38c1476a3ce7f78e8",
        "gas": "0x1098c",
        "value": "0x0",
        "input": "0x2fb8ff970000000000000000000000000000000000000000000000000000000000000001000000000000000000000000f5059a5d33d5853360d16c683c16e67980206f36",
        "nonce": "0x2a",
        "chainId": "0x7a69"
      },
      "additionalContracts": [],
      "isFixedGasLimit": false
    },
    {
      "hash": "0x48b0144997543092e9bbbcd99d996bd66e8a5a4a29ac08771b1243fdf450cec9",
      "transactionType": "CALL",
      "contractName": "Vault",
      "contractAddress": "0x1613beb3b2c4f22ee086b2b38c1476a3ce7f78e8",
      "function": "setVerifier(uint8,address)",
      "arguments": [
        "2",
        "0x95401dc811bb5740090279Ba06cfA8fcF6113778"
      ],
      "transaction": {
        "from": "0xf39fd6e51aad88f6f4ce6ab8827279cfffb92266",
        "to": "0x1613beb3b2c4f22ee086b2b38c1476a3ce7f78e8",
        "gas": "0x1098c",
        "value": "0x0",
        "input": "0x2fb8ff97000000000000000000000000000000000000000000000000000000000000000200000000000000000000000095401dc811bb5740090279ba06cfa8fcf6113778",
        "nonce": "0x2b",
        "chainId": "0x7a69"
      },
      "additionalContracts": [],
      "isFixedGasLimit": false
    },
    {
      "hash": "0xbe92925038c53b6e8f08acb1d7333605adc95d5073fad0745e74bfba6bf05467",
      "transactionType": "CALL",
      "contractName": "Vault",
      "contractAddress": "0x1613beb3b2c4f22ee086b2b38c1476a3ce7f78e8",
      "function": "setVerifier(uint8,address)",
      "arguments": [
        "3",
        "0x998abeb3E57409262aE5b751f60747921B33613E"
      ],
      "transaction": {
        "from": "0xf39fd6e51aad88f6f4ce6ab8827279cfffb92266",
        "to": "0x1613beb3b2c4f22ee086b2b38c1476a3ce7f78e8",
        "gas": "0x1098c",
        "value": "0x0",
        "input": "0x2fb8ff970000000000000000000000000000000000000000000000000000000000000003000000000000000000000000998abeb3e57409262ae5b751f60747921b33613e",
        "nonce": "0x2c",
        "chainId": "0x7a69"
      },
      "additionalContracts": [],
      "isFixedGasLimit": false
    },
    {
      "hash": "0xb104b8766f5077464d37c6b62edbf91edf1d4984c9f511aa2980867cf696f954",
      "transactionType": "CALL",
      "contractName": "Vault",
      "contractAddress": "0x1613beb3b2c4f22ee086b2b38c1476a3ce7f78e8",
      "function": "setVerifier(uint8,address)",
      "arguments": [
        "4",
        "0x70e0bA845a1A0F2DA3359C97E0285013525FFC49"
      ],
      "transaction": {
        "from": "0xf39fd6e51aad88f6f4ce6ab8827279cfffb92266",
        "to": "0x1613beb3b2c4f22ee086b2b38c1476a3ce7f78e8",
        "gas": "0x1098c",
        "value": "0x0",
        "input": "0x2fb8ff97000000000000000000000000000000000000000000000000000000000000000400000000000000000000000070e0ba845a1a0f2da3359c97e0285013525ffc49",
        "nonce": "0x2d",
        "chainId": "0x7a69"
      },
      "additionalContracts": [],
      "isFixedGasLimit": false
    },
    {
      "hash": "0x80e6a1e542319a1fccf7edb40cdf400c0c614b4695f55ede67b351e543a267d3",
      "transactionType": "CALL",
      "contractName": "MockCTF",
      "contractAddress": "0xc3e53f4d16ae77db1c982e75a937b9f60fe63690",
      "function": "setPayoutNumerators(bytes32,uint256[])",
      "arguments": [
        "0xa25749bc05a49c6f6527cbd7f26cbcf3f0d5d5ccb8b0d25f1cb79afd49ae16e5",
        "[1000000, 0]"
      ],
      "transaction": {
        "from": "0xf39fd6e51aad88f6f4ce6ab8827279cfffb92266",
        "to": "0xc3e53f4d16ae77db1c982e75a937b9f60fe63690",
        "gas": "0x1a0a3",
        "value": "0x0",
        "input": "0x3d551689a25749bc05a49c6f6527cbd7f26cbcf3f0d5d5ccb8b0d25f1cb79afd49ae16e50000000000000000000000000000000000000000000000000000000000000040000000000000000000000000000000000000000000000000000000000000000200000000000000000000000000000000000000000000000000000000000f42400000000000000000000000000000000000000000000000000000000000000000",
        "nonce": "0x2e",
        "chainId": "0x7a69"
      },
      "additionalContracts": [],
      "isFixedGasLimit": false
    },
    {
      "hash": "0x2ea8484dc019380e8f79b5e1f387bf0b7f85d0706124d3d4e9a13fbaaf9f2409",
      "transactionType": "CALL",
      "contractName": "MockCTF",
      "contractAddress": "0xc3e53f4d16ae77db1c982e75a937b9f60fe63690",
      "function": "setPayoutDenominator(bytes32,uint256)",
      "arguments": [
        "0xa25749bc05a49c6f6527cbd7f26cbcf3f0d5d5ccb8b0d25f1cb79afd49ae16e5",
        "1000000"
      ],
      "transaction": {
        "from": "0xf39fd6e51aad88f6f4ce6ab8827279cfffb92266",
        "to": "0xc3e53f4d16ae77db1c982e75a937b9f60fe63690",
        "gas": "0xfc6c",
        "value": "0x0",
        "input": "0xeb1bc5d2a25749bc05a49c6f6527cbd7f26cbcf3f0d5d5ccb8b0d25f1cb79afd49ae16e500000000000000000000000000000000000000000000000000000000000f4240",
        "nonce": "0x2f",
        "chainId": "0x7a69"
      },
      "additionalContracts": [],
      "isFixedGasLimit": false
    },
    {
      "hash": "0x3561de8b567c5ca998e6af5d5786725f7833b5f2eeeb35e359247b1d0dbf411e",
      "transactionType": "CALL",
      "contractName": "MockCTF",
      "contractAddress": "0xc3e53f4d16ae77db1c982e75a937b9f60fe63690",
      "function": "setPayoutNumerators(bytes32,uint256[])",
      "arguments": [
        "0xf24503a57301e37fff33368c6047100b04636117d9759834add59fcb877d450f",
        "[0, 0]"
      ],
      "transaction": {
        "from": "0xf39fd6e51aad88f6f4ce6ab8827279cfffb92266",
        "to": "0xc3e53f4d16ae77db1c982e75a937b9f60fe63690",
        "gas": "0x12ebf",
        "value": "0x0",
        "input": "0x3d551689f24503a57301e37fff33368c6047100b04636117d9759834add59fcb877d450f0000000000000000000000000000000000000000000000000000000000000040000000000000000000000000000000000000000000000000000000000000000200000000000000000000000000000000000000000000000000000000000000000000000000000000000000000000000000000000000000000000000000000000",
        "nonce": "0x30",
        "chainId": "0x7a69"
      },
      "additionalContracts": [],
      "isFixedGasLimit": false
    },
    {
      "hash": "0xc8bcb8ae8290c49587a65bd51f9fb1f6a7163cd65e404324d8db44bb235bb99c",
      "transactionType": "CALL",
      "contractName": "MockCTF",
      "contractAddress": "0xc3e53f4d16ae77db1c982e75a937b9f60fe63690",
      "function": "setPayoutDenominator(bytes32,uint256)",
      "arguments": [
        "0xf24503a57301e37fff33368c6047100b04636117d9759834add59fcb877d450f",
        "1000000"
      ],
      "transaction": {
        "from": "0xf39fd6e51aad88f6f4ce6ab8827279cfffb92266",
        "to": "0xc3e53f4d16ae77db1c982e75a937b9f60fe63690",
        "gas": "0xfc6c",
        "value": "0x0",
        "input": "0xeb1bc5d2f24503a57301e37fff33368c6047100b04636117d9759834add59fcb877d450f00000000000000000000000000000000000000000000000000000000000f4240",
        "nonce": "0x31",
        "chainId": "0x7a69"
      },
      "additionalContracts": [],
      "isFixedGasLimit": false
    },
    {
      "hash": "0x4434e106172e78a784500b75f0468a0fcc4cae4c135043d46b29db8f5ca9a291",
      "transactionType": "CALL",
      "contractName": "MockUSDC",
      "contractAddress": "0xe6e340d132b5f46d1e472debcd681b2abc16e57e",
      "function": "mint(address,uint256)",
      "arguments": [
        "0x15d34AAf54267DB7D7c367839AAf71A00a2C6A65",
        "100000000000"
      ],
      "transaction": {
        "from": "0xf39fd6e51aad88f6f4ce6ab8827279cfffb92266",
        "to": "0xe6e340d132b5f46d1e472debcd681b2abc16e57e",
        "gas": "0x17101",
        "value": "0x0",
        "input": "0x40c10f1900000000000000000000000015d34aaf54267db7d7c367839aaf71a00a2c6a65000000000000000000000000000000000000000000000000000000174876e800",
        "nonce": "0x32",
        "chainId": "0x7a69"
      },
      "additionalContracts": [],
      "isFixedGasLimit": false
    },
    {
      "hash": "0x7cb65b29dc9d72bb56925b5ba43db4629c40afd2259a122e739e45ab96987c62",
      "transactionType": "CALL",
      "contractName": "MockUSDC",
      "contractAddress": "0xe6e340d132b5f46d1e472debcd681b2abc16e57e",
      "function": "mint(address,uint256)",
      "arguments": [
        "0x9965507D1a55bcC2695C58ba16FB37d819B0A4dc",
        "10000000000"
      ],
      "transaction": {
        "from": "0xf39fd6e51aad88f6f4ce6ab8827279cfffb92266",
        "to": "0xe6e340d132b5f46d1e472debcd681b2abc16e57e",
        "gas": "0x114be",
        "value": "0x0",
        "input": "0x40c10f190000000000000000000000009965507d1a55bcc2695c58ba16fb37d819b0a4dc00000000000000000000000000000000000000000000000000000002540be400",
        "nonce": "0x33",
        "chainId": "0x7a69"
      },
      "additionalContracts": [],
      "isFixedGasLimit": false
    },
    {
      "hash": "0x009d315ab1e54dc9525e0f10e008fb12762d87bcf4b9815666793e7d0bcfd454",
      "transactionType": "CALL",
      "contractName": "MockUSDC",
      "contractAddress": "0xe6e340d132b5f46d1e472debcd681b2abc16e57e",
      "function": "mint(address,uint256)",
      "arguments": [
        "0x976EA74026E726554dB657fA54763abd0C3a0aa9",
        "5000000000"
      ],
      "transaction": {
        "from": "0xf39fd6e51aad88f6f4ce6ab8827279cfffb92266",
        "to": "0xe6e340d132b5f46d1e472debcd681b2abc16e57e",
        "gas": "0x114be",
        "value": "0x0",
        "input": "0x40c10f19000000000000000000000000976ea74026e726554db657fa54763abd0c3a0aa9000000000000000000000000000000000000000000000000000000012a05f200",
        "nonce": "0x34",
        "chainId": "0x7a69"
      },
      "additionalContracts": [],
      "isFixedGasLimit": false
    },
    {
      "hash": "0xc5a448f71aeb9b2582c38b2ea71b634419b69e34058bc2959cda691f3937cc9c",
      "transactionType": "CALL",
      "contractName": "MockUSDC",
      "contractAddress": "0xe6e340d132b5f46d1e472debcd681b2abc16e57e",
      "function": "approve(address,uint256)",
      "arguments": [
        "0x1613beB3B2C4f22Ee086B2b38C1476A3cE7f78E8",
        "115792089237316195423570985008687907853269984665640564039457584007913129639935"
      ],
      "transaction": {
        "from": "0x15d34aaf54267db7d7c367839aaf71a00a2c6a65",
        "to": "0xe6e340d132b5f46d1e472debcd681b2abc16e57e",
        "gas": "0xfbda",
        "value": "0x0",
        "input": "0x095ea7b30000000000000000000000001613beb3b2c4f22ee086b2b38c1476a3ce7f78e8ffffffffffffffffffffffffffffffffffffffffffffffffffffffffffffffff",
        "nonce": "0x2",
        "chainId": "0x7a69"
      },
      "additionalContracts": [],
      "isFixedGasLimit": false
    },
    {
      "hash": "0xfb6ffcdbc6e953b0ac722342c874ece80d12decf9283385fd236737ef272cd7f",
      "transactionType": "CALL",
      "contractName": "Vault",
      "contractAddress": "0x1613beb3b2c4f22ee086b2b38c1476a3ce7f78e8",
      "function": "deposit(bytes32,uint256)",
      "arguments": [
        "0x1881d8422a8e16e4bcd8e41d109189128ead68c34a4b3dd7d641415808382b56",
        "1000000000"
      ],
      "transaction": {
        "from": "0x15d34aaf54267db7d7c367839aaf71a00a2c6a65",
        "to": "0x1613beb3b2c4f22ee086b2b38c1476a3ce7f78e8",
        "gas": "0x1e1e6f",
        "value": "0x0",
        "input": "0x1de26e161881d8422a8e16e4bcd8e41d109189128ead68c34a4b3dd7d641415808382b56000000000000000000000000000000000000000000000000000000003b9aca00",
        "nonce": "0x3",
        "chainId": "0x7a69"
      },
      "additionalContracts": [],
      "isFixedGasLimit": false
    },
    {
      "hash": "0xc8787330db47c7fdac04fd46583026a5b05e221f3b357376d7f24181b64dee8d",
      "transactionType": "CALL",
      "contractName": "MockUSDC",
      "contractAddress": "0xe6e340d132b5f46d1e472debcd681b2abc16e57e",
      "function": "approve(address,uint256)",
      "arguments": [
        "0x1613beB3B2C4f22Ee086B2b38C1476A3cE7f78E8",
        "115792089237316195423570985008687907853269984665640564039457584007913129639935"
      ],
      "transaction": {
        "from": "0x9965507d1a55bcc2695c58ba16fb37d819b0a4dc",
        "to": "0xe6e340d132b5f46d1e472debcd681b2abc16e57e",
        "gas": "0xfbda",
        "value": "0x0",
        "input": "0x095ea7b30000000000000000000000001613beb3b2c4f22ee086b2b38c1476a3ce7f78e8ffffffffffffffffffffffffffffffffffffffffffffffffffffffffffffffff",
        "nonce": "0x2",
        "chainId": "0x7a69"
      },
      "additionalContracts": [],
      "isFixedGasLimit": false
    },
    {
      "hash": "0xd7633569d7ee12cb3d87f5ee1f315dbd3887907bec2290f10facb055765a954f",
      "transactionType": "CALL",
      "contractName": "Vault",
      "contractAddress": "0x1613beb3b2c4f22ee086b2b38c1476a3ce7f78e8",
      "function": "deposit(bytes32,uint256)",
      "arguments": [
        "0x7233ef37096f4cf72cfcd682b3deaacbbed043ced9cbb2b1f7e87420e7da9e43",
        "500000000"
      ],
      "transaction": {
        "from": "0x9965507d1a55bcc2695c58ba16fb37d819b0a4dc",
        "to": "0x1613beb3b2c4f22ee086b2b38c1476a3ce7f78e8",
        "gas": "0x1ea212",
        "value": "0x0",
        "input": "0x1de26e167233ef37096f4cf72cfcd682b3deaacbbed043ced9cbb2b1f7e87420e7da9e43000000000000000000000000000000000000000000000000000000001dcd6500",
        "nonce": "0x3",
        "chainId": "0x7a69"
      },
      "additionalContracts": [],
      "isFixedGasLimit": false
    },
    {
      "hash": "0x0c030f52db6acbcbbd207279ece938fe32190e39aeaf5e32a8f8c19fbe6ce0c1",
      "transactionType": "CALL",
      "contractName": null,
      "contractAddress": "0x2d209040c031d4e2d4d9cb4d3aabf18f52260ab0",
      "function": null,
      "arguments": null,
      "transaction": {
        "from": "0xf39fd6e51aad88f6f4ce6ab8827279cfffb92266",
        "to": "0x2d209040c031d4e2d4d9cb4d3aabf18f52260ab0",
        "gas": "0x714d",
        "value": "0x1bc16d674ec80000",
        "input": "0x",
        "nonce": "0x35",
        "chainId": "0x7a69"
      },
      "additionalContracts": [],
      "isFixedGasLimit": false
    },
    {
      "hash": "0x8e51fb9eb32de1b51067fc1844e35bae336d75cfcef81c6ca2dab10c6cfefeb7",
      "transactionType": "CALL",
      "contractName": null,
      "contractAddress": "0x7d0a7d3a4508b33c6a0e9f3fcbc72562cc120e89",
      "function": null,
      "arguments": null,
      "transaction": {
        "from": "0xf39fd6e51aad88f6f4ce6ab8827279cfffb92266",
        "to": "0x7d0a7d3a4508b33c6a0e9f3fcbc72562cc120e89",
        "gas": "0x714d",
        "value": "0x1bc16d674ec80000",
        "input": "0x",
        "nonce": "0x36",
        "chainId": "0x7a69"
      },
      "additionalContracts": [],
      "isFixedGasLimit": false
    },
    {
      "hash": "0xe0fd745789e58d52818f5d35f8d53a561ba54a601060566a84f36fabae7d9a4d",
      "transactionType": "CALL",
      "contractName": null,
      "contractAddress": "0x46458d7ce6157ae78bff94d2096308f352c7edc8",
      "function": null,
      "arguments": null,
      "transaction": {
        "from": "0xf39fd6e51aad88f6f4ce6ab8827279cfffb92266",
        "to": "0x46458d7ce6157ae78bff94d2096308f352c7edc8",
        "gas": "0x714d",
        "value": "0x1bc16d674ec80000",
        "input": "0x",
        "nonce": "0x37",
        "chainId": "0x7a69"
      },
      "additionalContracts": [],
      "isFixedGasLimit": false
    },
    {
      "hash": "0x8976ad2ceb08eb3636151d923b7b4825a90d272b6198b24e5967e56c1db3671d",
      "transactionType": "CALL",
      "contractName": "MockUSDC",
      "contractAddress": "0xe6e340d132b5f46d1e472debcd681b2abc16e57e",
      "function": "mint(address,uint256)",
      "arguments": [
        "0x2d209040c031d4e2D4d9cb4D3aabf18F52260AB0",
        "100000000000"
      ],
      "transaction": {
        "from": "0xf39fd6e51aad88f6f4ce6ab8827279cfffb92266",
        "to": "0xe6e340d132b5f46d1e472debcd681b2abc16e57e",
        "gas": "0x114be",
        "value": "0x0",
        "input": "0x40c10f190000000000000000000000002d209040c031d4e2d4d9cb4d3aabf18f52260ab0000000000000000000000000000000000000000000000000000000174876e800",
        "nonce": "0x38",
        "chainId": "0x7a69"
      },
      "additionalContracts": [],
      "isFixedGasLimit": false
    },
    {
      "hash": "0xec5332033727af8c2913786dd369ab0efe0ddd9e665edf35a81a04ce11b6c874",
      "transactionType": "CALL",
      "contractName": "MockUSDC",
      "contractAddress": "0xe6e340d132b5f46d1e472debcd681b2abc16e57e",
      "function": "mint(address,uint256)",
      "arguments": [
        "0x7D0A7d3a4508B33C6A0e9F3FCBc72562cC120e89",
        "100000000000"
      ],
      "transaction": {
        "from": "0xf39fd6e51aad88f6f4ce6ab8827279cfffb92266",
        "to": "0xe6e340d132b5f46d1e472debcd681b2abc16e57e",
        "gas": "0x114be",
        "value": "0x0",
        "input": "0x40c10f190000000000000000000000007d0a7d3a4508b33c6a0e9f3fcbc72562cc120e89000000000000000000000000000000000000000000000000000000174876e800",
        "nonce": "0x39",
        "chainId": "0x7a69"
      },
      "additionalContracts": [],
      "isFixedGasLimit": false
    },
    {
      "hash": "0xf39536c2860aa544170b4df42994b9fbdb6ee3c033d02a264858a49d26a5a5a0",
      "transactionType": "CALL",
      "contractName": "MockUSDC",
      "contractAddress": "0xe6e340d132b5f46d1e472debcd681b2abc16e57e",
      "function": "mint(address,uint256)",
      "arguments": [
        "0x46458d7CE6157AE78BFF94D2096308f352c7edc8",
        "100000000000"
      ],
      "transaction": {
        "from": "0xf39fd6e51aad88f6f4ce6ab8827279cfffb92266",
        "to": "0xe6e340d132b5f46d1e472debcd681b2abc16e57e",
        "gas": "0x114be",
        "value": "0x0",
        "input": "0x40c10f1900000000000000000000000046458d7ce6157ae78bff94d2096308f352c7edc8000000000000000000000000000000000000000000000000000000174876e800",
        "nonce": "0x3a",
        "chainId": "0x7a69"
      },
      "additionalContracts": [],
      "isFixedGasLimit": false
    }
  ],
  "receipts": [
    {
      "type": "0x2",
      "status": "0x1",
      "cumulativeGasUsed": "0x7d2fe",
      "logs": [],
      "logsBloom": "0x00000000000000000000000000000000000000000000000000000000000000000000000000000000000000000000000000000000000000000000000000000000000000000000000000000000000000000000000000000000000000000000000000000000000000000000000000000000000000000000000000000000000000000000000000000000000000000000000000000000000000000000000000000000000000000000000000000000000000000000000000000000000000000000000000000000000000000000000000000000000000000000000000000000000000000000000000000000000000000000000000000000000000000000000000000000",
      "transactionHash": "0x03b9def93a3cc2949ceaef29cece47d95d3988a85cfe226af17aa332682aafae",
      "transactionIndex": "0x0",
      "blockHash": "0x988ce1c5dcab629d391255057549efa066558a66dc0de496f3726e7f630353bd",
      "blockNumber": "0x26",
      "gasUsed": "0x7d2fe",
      "effectiveGasPrice": "0x8da97f",
      "blobGasPrice": "0x1",
      "from": "0xf39fd6e51aad88f6f4ce6ab8827279cfffb92266",
      "to": null,
      "contractAddress": "0xe6e340d132b5f46d1e472debcd681b2abc16e57e"
    },
    {
      "type": "0x2",
      "status": "0x1",
      "cumulativeGasUsed": "0x4fae2",
      "logs": [],
      "logsBloom": "0x00000000000000000000000000000000000000000000000000000000000000000000000000000000000000000000000000000000000000000000000000000000000000000000000000000000000000000000000000000000000000000000000000000000000000000000000000000000000000000000000000000000000000000000000000000000000000000000000000000000000000000000000000000000000000000000000000000000000000000000000000000000000000000000000000000000000000000000000000000000000000000000000000000000000000000000000000000000000000000000000000000000000000000000000000000000",
      "transactionHash": "0x9fc44dd33888ef07140923967cd5eaf059f0fc20cdfa55824622fc579c53d59b",
      "transactionIndex": "0x0",
      "blockHash": "0x10dd17671241a6973a09894ad00d880b4041a804a4f3bbb41ead997fab33d65c",
      "blockNumber": "0x27",
      "gasUsed": "0x4fae2",
      "effectiveGasPrice": "0x7c8f47",
      "blobGasPrice": "0x1",
      "from": "0xf39fd6e51aad88f6f4ce6ab8827279cfffb92266",
      "to": null,
      "contractAddress": "0xc3e53f4d16ae77db1c982e75a937b9f60fe63690"
    },
    {
      "type": "0x2",
      "status": "0x1",
      "cumulativeGasUsed": "0x24fbb",
      "logs": [],
      "logsBloom": "0x00000000000000000000000000000000000000000000000000000000000000000000000000000000000000000000000000000000000000000000000000000000000000000000000000000000000000000000000000000000000000000000000000000000000000000000000000000000000000000000000000000000000000000000000000000000000000000000000000000000000000000000000000000000000000000000000000000000000000000000000000000000000000000000000000000000000000000000000000000000000000000000000000000000000000000000000000000000000000000000000000000000000000000000000000000000",
      "transactionHash": "0x68123aa8e75ec06207170af13656a6e55b58cb4c6f34f29a4a09b05170f1c514",
      "transactionIndex": "0x0",
      "blockHash": "0x699a23745032b29def877d63d964859371eec943854b9c1dbcf3177f59e80413",
      "blockNumber": "0x28",
      "gasUsed": "0x24fbb",
      "effectiveGasPrice": "0x6d5418",
      "blobGasPrice": "0x1",
      "from": "0xf39fd6e51aad88f6f4ce6ab8827279cfffb92266",
      "to": null,
      "contractAddress": "0x84ea74d481ee0a5332c457a4d796187f6ba67feb"
    },
    {
      "type": "0x2",
      "status": "0x1",
      "cumulativeGasUsed": "0x2667c",
      "logs": [],
      "logsBloom": "0x00000000000000000000000000000000000000000000000000000000000000000000000000000000000000000000000000000000000000000000000000000000000000000000000000000000000000000000000000000000000000000000000000000000000000000000000000000000000000000000000000000000000000000000000000000000000000000000000000000000000000000000000000000000000000000000000000000000000000000000000000000000000000000000000000000000000000000000000000000000000000000000000000000000000000000000000000000000000000000000000000000000000000000000000000000000",
      "transactionHash": "0x8902f24c8f91c15f91d57d036ddd006273b6af36e8086c5afdda5ecd06388341",
      "transactionIndex": "0x0",
      "blockHash": "0x0f61083021958f1f6d710a0e950dcdff682d4643a3276a4b0101edb63f672a84",
      "blockNumber": "0x29",
      "gasUsed": "0x2667c",
      "effectiveGasPrice": "0x5fccea",
      "blobGasPrice": "0x1",
      "from": "0xf39fd6e51aad88f6f4ce6ab8827279cfffb92266",
      "to": null,
      "contractAddress": "0x9e545e3c0baab3e08cdfd552c960a1050f373042"
    },
    {
      "type": "0x2",
      "status": "0x1",
      "cumulativeGasUsed": "0x2c0e0f",
      "logs": [],
      "logsBloom": "0x00000000000000000000000000000000000000000000000000000000000000000000000000000000000000000000000000000000000000000000000000000000000000000000000000000000000000000000000000000000000000000000000000000000000000000000000000000000000000000000000000000000000000000000000000000000000000000000000000000000000000000000000000000000000000000000000000000000000000000000000000000000000000000000000000000000000000000000000000000000000000000000000000000000000000000000000000000000000000000000000000000000000000000000000000000000",
      "transactionHash": "0xd5dde290af34202668bb987b24b342032d94220b968b214099770122e5cdd92e",
      "transactionIndex": "0x0",
      "blockHash": "0xb30bce48509c47b140f32bc8eccbd52abb1e2a5baed4c2af7d7e6585baa05e68",
      "blockNumber": "0x2a",
      "gasUsed": "0x2c0e0f",
      "effectiveGasPrice": "0x53f374",
      "blobGasPrice": "0x1",
      "from": "0xf39fd6e51aad88f6f4ce6ab8827279cfffb92266",
      "to": null,
      "contractAddress": "0xa82ff9afd8f496c3d6ac40e2a0f282e47488cfc9"
    },
    {
      "type": "0x2",
      "status": "0x1",
      "cumulativeGasUsed": "0x255e93",
      "logs": [
        {
          "address": "0x1613beb3b2c4f22ee086b2b38c1476a3ce7f78e8",
          "topics": [
            "0x8be0079c531659141344cd1fd0a4f28419497f9722a3daafe3b4186f6b6457e0",
            "0x0000000000000000000000000000000000000000000000000000000000000000",
            "0x000000000000000000000000f39fd6e51aad88f6f4ce6ab8827279cfffb92266"
          ],
          "data": "0x",
          "blockHash": "0x8317d26a34b057e089421099b8543b85dfbfeafad7c63f71eddd46d5348f884a",
          "blockNumber": "0x2b",
          "blockTimestamp": "0x6a0f1149",
          "transactionHash": "0xe4f4196be7094dce6f8c5b3fede276c1e752b9d690c99e876f4540be653d4e93",
          "transactionIndex": "0x0",
          "logIndex": "0x0",
          "removed": false
        }
      ],
      "logsBloom": "0x00000000000000000000000000000000000000000000000000800000000000000000000000000000000000000000000000000000000000000000000000000000000000000000000000000000000000000001000000000000000000000000000008000000020000000000010100000800000000000000000000000000000000400000000000000000000000000000000000000000000000000000000000000000000000000000000000000000000000000000000000000000000000000000000000000000000000200000000000000000000000002000000000000000000020000000000000000000000000000000000000000000000000000000000000001000",
      "transactionHash": "0xe4f4196be7094dce6f8c5b3fede276c1e752b9d690c99e876f4540be653d4e93",
      "transactionIndex": "0x0",
      "blockHash": "0x8317d26a34b057e089421099b8543b85dfbfeafad7c63f71eddd46d5348f884a",
      "blockNumber": "0x2b",
      "gasUsed": "0x255e93",
      "effectiveGasPrice": "0x4b7a1b",
      "blobGasPrice": "0x1",
      "from": "0xf39fd6e51aad88f6f4ce6ab8827279cfffb92266",
      "to": null,
      "contractAddress": "0x1613beb3b2c4f22ee086b2b38c1476a3ce7f78e8"
    },
    {
      "type": "0x2",
      "status": "0x1",
      "cumulativeGasUsed": "0x29f18",
      "logs": [],
      "logsBloom": "0x00000000000000000000000000000000000000000000000000000000000000000000000000000000000000000000000000000000000000000000000000000000000000000000000000000000000000000000000000000000000000000000000000000000000000000000000000000000000000000000000000000000000000000000000000000000000000000000000000000000000000000000000000000000000000000000000000000000000000000000000000000000000000000000000000000000000000000000000000000000000000000000000000000000000000000000000000000000000000000000000000000000000000000000000000000000",
      "transactionHash": "0xca1a4161b98a66d863e9b23fdd57c465fbabc184cf74674102b371fa2dca5861",
      "transactionIndex": "0x0",
      "blockHash": "0x31604a84b022505eb9b164dedac6ba27d07275f8f46c1230b72e5d81ed4efa9d",
      "blockNumber": "0x2c",
      "gasUsed": "0x29f18",
      "effectiveGasPrice": "0x43952f",
      "blobGasPrice": "0x1",
      "from": "0xf39fd6e51aad88f6f4ce6ab8827279cfffb92266",
      "to": null,
      "contractAddress": "0x851356ae760d987e095750cceb3bc6014560891c"
    },
    {
      "type": "0x2",
      "status": "0x1",
      "cumulativeGasUsed": "0x29f18",
      "logs": [],
      "logsBloom": "0x00000000000000000000000000000000000000000000000000000000000000000000000000000000000000000000000000000000000000000000000000000000000000000000000000000000000000000000000000000000000000000000000000000000000000000000000000000000000000000000000000000000000000000000000000000000000000000000000000000000000000000000000000000000000000000000000000000000000000000000000000000000000000000000000000000000000000000000000000000000000000000000000000000000000000000000000000000000000000000000000000000000000000000000000000000000",
      "transactionHash": "0x6c616f6948b9d7435f10feda870e74f982090e4f6130395d705976d1fb6ac350",
      "transactionIndex": "0x0",
      "blockHash": "0x8ddd57ece7fe8aebcce9742d56bc49905ddff57aa8c790c8b430f511cbb1596a",
      "blockNumber": "0x2d",
      "gasUsed": "0x29f18",
      "effectiveGasPrice": "0x3b3b4f",
      "blobGasPrice": "0x1",
      "from": "0xf39fd6e51aad88f6f4ce6ab8827279cfffb92266",
      "to": null,
      "contractAddress": "0xf5059a5d33d5853360d16c683c16e67980206f36"
    },
    {
      "type": "0x2",
      "status": "0x1",
      "cumulativeGasUsed": "0x29f18",
      "logs": [],
      "logsBloom": "0x00000000000000000000000000000000000000000000000000000000000000000000000000000000000000000000000000000000000000000000000000000000000000000000000000000000000000000000000000000000000000000000000000000000000000000000000000000000000000000000000000000000000000000000000000000000000000000000000000000000000000000000000000000000000000000000000000000000000000000000000000000000000000000000000000000000000000000000000000000000000000000000000000000000000000000000000000000000000000000000000000000000000000000000000000000000",
      "transactionHash": "0xecf70124b42977f68a9c4baa40076948179240488eac18c8041cd180391bc52d",
      "transactionIndex": "0x0",
      "blockHash": "0x7cd6483c7ad79cf77eeeab9c8073c6a7d54842a18fd02c29e708619734edb551",
      "blockNumber": "0x2e",
      "gasUsed": "0x29f18",
      "effectiveGasPrice": "0x33e99b",
      "blobGasPrice": "0x1",
      "from": "0xf39fd6e51aad88f6f4ce6ab8827279cfffb92266",
      "to": null,
      "contractAddress": "0x95401dc811bb5740090279ba06cfa8fcf6113778"
    },
    {
      "type": "0x2",
      "status": "0x1",
      "cumulativeGasUsed": "0x29f18",
      "logs": [],
      "logsBloom": "0x00000000000000000000000000000000000000000000000000000000000000000000000000000000000000000000000000000000000000000000000000000000000000000000000000000000000000000000000000000000000000000000000000000000000000000000000000000000000000000000000000000000000000000000000000000000000000000000000000000000000000000000000000000000000000000000000000000000000000000000000000000000000000000000000000000000000000000000000000000000000000000000000000000000000000000000000000000000000000000000000000000000000000000000000000000000",
      "transactionHash": "0x013c8e257f4bf25fa0ddfd9b53fc9085605f916ee034cdef2cfec5ba2f6b73a3",
      "transactionIndex": "0x0",
      "blockHash": "0xc2de34ab48c82b8208fd5693f4081c166f5ef2170a6e0e2f9f41112ba7e5667c",
      "blockNumber": "0x2f",
      "gasUsed": "0x29f18",
      "effectiveGasPrice": "0x2d7f6f",
      "blobGasPrice": "0x1",
      "from": "0xf39fd6e51aad88f6f4ce6ab8827279cfffb92266",
      "to": null,
      "contractAddress": "0x998abeb3e57409262ae5b751f60747921b33613e"
    },
    {
      "type": "0x2",
      "status": "0x1",
      "cumulativeGasUsed": "0x29f18",
      "logs": [],
      "logsBloom": "0x00000000000000000000000000000000000000000000000000000000000000000000000000000000000000000000000000000000000000000000000000000000000000000000000000000000000000000000000000000000000000000000000000000000000000000000000000000000000000000000000000000000000000000000000000000000000000000000000000000000000000000000000000000000000000000000000000000000000000000000000000000000000000000000000000000000000000000000000000000000000000000000000000000000000000000000000000000000000000000000000000000000000000000000000000000000",
      "transactionHash": "0x696c396ec1fe1f6cdcead6155ff7bde6cd34e7e76bf77b87236346a7ce4be33a",
      "transactionIndex": "0x0",
      "blockHash": "0xd83692164f450fc9a92b74e19ce150b7c495ca1cd4bdc5f9511d104f64bf7264",
      "blockNumber": "0x30",
      "gasUsed": "0x29f18",
      "effectiveGasPrice": "0x27e02f",
      "blobGasPrice": "0x1",
      "from": "0xf39fd6e51aad88f6f4ce6ab8827279cfffb92266",
      "to": null,
      "contractAddress": "0x70e0ba845a1a0f2da3359c97e0285013525ffc49"
    },
    {
      "type": "0x2",
      "status": "0x1",
      "cumulativeGasUsed": "0xb587",
      "logs": [],
      "logsBloom": "0x00000000000000000000000000000000000000000000000000000000000000000000000000000000000000000000000000000000000000000000000000000000000000000000000000000000000000000000000000000000000000000000000000000000000000000000000000000000000000000000000000000000000000000000000000000000000000000000000000000000000000000000000000000000000000000000000000000000000000000000000000000000000000000000000000000000000000000000000000000000000000000000000000000000000000000000000000000000000000000000000000000000000000000000000000000000",
      "transactionHash": "0xe450d76989497368f62a14ae45d53ab113ced0f3817dc365e984cacfff53ea29",
      "transactionIndex": "0x0",
      "blockHash": "0x47e494f0b46732816f54035bfa144bf47b0cc3d33ec6932daef4cabfaefe43bd",
      "blockNumber": "0x31",
      "gasUsed": "0xb587",
      "effectiveGasPrice": "0x22f2c7",
      "blobGasPrice": "0x1",
      "from": "0xf39fd6e51aad88f6f4ce6ab8827279cfffb92266",
      "to": "0x1613beb3b2c4f22ee086b2b38c1476a3ce7f78e8",
      "contractAddress": null
    },
    {
      "type": "0x2",
      "status": "0x1",
      "cumulativeGasUsed": "0xb593",
      "logs": [],
      "logsBloom": "0x00000000000000000000000000000000000000000000000000000000000000000000000000000000000000000000000000000000000000000000000000000000000000000000000000000000000000000000000000000000000000000000000000000000000000000000000000000000000000000000000000000000000000000000000000000000000000000000000000000000000000000000000000000000000000000000000000000000000000000000000000000000000000000000000000000000000000000000000000000000000000000000000000000000000000000000000000000000000000000000000000000000000000000000000000000000",
      "transactionHash": "0x607cd20dcaf61328a2c4fa8382649c74c6b3aa28a4029069ba94efffc6451050",
      "transactionIndex": "0x0",
      "blockHash": "0x1fb410150ebde8af43a8d58c5f7613ada79bb4ebe63ca7de20877b09216f5ebb",
      "blockNumber": "0x32",
      "gasUsed": "0xb593",
      "effectiveGasPrice": "0x1e97e6",
      "blobGasPrice": "0x1",
      "from": "0xf39fd6e51aad88f6f4ce6ab8827279cfffb92266",
      "to": "0x1613beb3b2c4f22ee086b2b38c1476a3ce7f78e8",
      "contractAddress": null
    },
    {
      "type": "0x2",
      "status": "0x1",
      "cumulativeGasUsed": "0xb593",
      "logs": [],
      "logsBloom": "0x00000000000000000000000000000000000000000000000000000000000000000000000000000000000000000000000000000000000000000000000000000000000000000000000000000000000000000000000000000000000000000000000000000000000000000000000000000000000000000000000000000000000000000000000000000000000000000000000000000000000000000000000000000000000000000000000000000000000000000000000000000000000000000000000000000000000000000000000000000000000000000000000000000000000000000000000000000000000000000000000000000000000000000000000000000000",
      "transactionHash": "0x48b0144997543092e9bbbcd99d996bd66e8a5a4a29ac08771b1243fdf450cec9",
      "transactionIndex": "0x0",
      "blockHash": "0x19bd9c0b3f0e65b2c97b7becf326b3ddce942ea502d1a8193b09339f3bcc0b8f",
      "blockNumber": "0x33",
      "gasUsed": "0xb593",
      "effectiveGasPrice": "0x1ac7f3",
      "blobGasPrice": "0x1",
      "from": "0xf39fd6e51aad88f6f4ce6ab8827279cfffb92266",
      "to": "0x1613beb3b2c4f22ee086b2b38c1476a3ce7f78e8",
      "contractAddress": null
    },
    {
      "type": "0x2",
      "status": "0x1",
      "cumulativeGasUsed": "0xb593",
      "logs": [],
      "logsBloom": "0x00000000000000000000000000000000000000000000000000000000000000000000000000000000000000000000000000000000000000000000000000000000000000000000000000000000000000000000000000000000000000000000000000000000000000000000000000000000000000000000000000000000000000000000000000000000000000000000000000000000000000000000000000000000000000000000000000000000000000000000000000000000000000000000000000000000000000000000000000000000000000000000000000000000000000000000000000000000000000000000000000000000000000000000000000000000",
      "transactionHash": "0xbe92925038c53b6e8f08acb1d7333605adc95d5073fad0745e74bfba6bf05467",
      "transactionIndex": "0x0",
      "blockHash": "0x38583fc3b96bfdc33189f082f9dcc6090703e45560ad31791c90eaccdeea5ef3",
      "blockNumber": "0x34",
      "gasUsed": "0xb593",
      "effectiveGasPrice": "0x17719d",
      "blobGasPrice": "0x1",
      "from": "0xf39fd6e51aad88f6f4ce6ab8827279cfffb92266",
      "to": "0x1613beb3b2c4f22ee086b2b38c1476a3ce7f78e8",
      "contractAddress": null
    },
    {
      "type": "0x2",
      "status": "0x1",
      "cumulativeGasUsed": "0xb593",
      "logs": [],
      "logsBloom": "0x00000000000000000000000000000000000000000000000000000000000000000000000000000000000000000000000000000000000000000000000000000000000000000000000000000000000000000000000000000000000000000000000000000000000000000000000000000000000000000000000000000000000000000000000000000000000000000000000000000000000000000000000000000000000000000000000000000000000000000000000000000000000000000000000000000000000000000000000000000000000000000000000000000000000000000000000000000000000000000000000000000000000000000000000000000000",
      "transactionHash": "0xb104b8766f5077464d37c6b62edbf91edf1d4984c9f511aa2980867cf696f954",
      "transactionIndex": "0x0",
      "blockHash": "0xe7eab698908fc0d083d33f5e725a9cc1d401ad05914d277c205f7bd25fb85f87",
      "blockNumber": "0x35",
      "gasUsed": "0xb593",
      "effectiveGasPrice": "0x1485bd",
      "blobGasPrice": "0x1",
      "from": "0xf39fd6e51aad88f6f4ce6ab8827279cfffb92266",
      "to": "0x1613beb3b2c4f22ee086b2b38c1476a3ce7f78e8",
      "contractAddress": null
    },
    {
      "type": "0x2",
      "status": "0x1",
      "cumulativeGasUsed": "0x11ce2",
      "logs": [
        {
          "address": "0xc3e53f4d16ae77db1c982e75a937b9f60fe63690",
          "topics": [
            "0xb44d84d3289691f71497564b85d4233648d9dbae8cbdbb4329f301c3a0185894",
            "0xa25749bc05a49c6f6527cbd7f26cbcf3f0d5d5ccb8b0d25f1cb79afd49ae16e5",
            "0x000000000000000000000000f39fd6e51aad88f6f4ce6ab8827279cfffb92266",
            "0xa25749bc05a49c6f6527cbd7f26cbcf3f0d5d5ccb8b0d25f1cb79afd49ae16e5"
          ],
          "data": "0x00000000000000000000000000000000000000000000000000000000000000020000000000000000000000000000000000000000000000000000000000000040000000000000000000000000000000000000000000000000000000000000000200000000000000000000000000000000000000000000000000000000000f42400000000000000000000000000000000000000000000000000000000000000000",
          "blockHash": "0xc8f5dcb98a52d08500d6ef1f1143642dfa821154b8ede8cf952412b32a0a380d",
          "blockNumber": "0x36",
          "blockTimestamp": "0x6a0f1149",
          "transactionHash": "0x80e6a1e542319a1fccf7edb40cdf400c0c614b4695f55ede67b351e543a267d3",
          "transactionIndex": "0x0",
          "logIndex": "0x0",
          "removed": false
        }
      ],
      "logsBloom": "0x00000000000000000000000008000000000000000000000040000000000000000000000000000000000000000008000000000000000000200000000000000000000000000000000000000000000000000000000000000000000000000200000000000000000000000000000100000000000000000000000000000000000000000000000800000000400000020000000000000000000000000000000000000000000000000000000000000000000000000000000000000000000000000000000000000000000000200000000000000000000000002000000000000000000000000000000000000000000000000000000000080000000000000000000000000000",
      "transactionHash": "0x80e6a1e542319a1fccf7edb40cdf400c0c614b4695f55ede67b351e543a267d3",
      "transactionIndex": "0x0",
      "blockHash": "0xc8f5dcb98a52d08500d6ef1f1143642dfa821154b8ede8cf952412b32a0a380d",
      "blockNumber": "0x36",
      "gasUsed": "0x11ce2",
      "effectiveGasPrice": "0x11f70f",
      "blobGasPrice": "0x1",
      "from": "0xf39fd6e51aad88f6f4ce6ab8827279cfffb92266",
      "to": "0xc3e53f4d16ae77db1c982e75a937b9f60fe63690",
      "contractAddress": null
    },
    {
      "type": "0x2",
      "status": "0x1",
      "cumulativeGasUsed": "0xac99",
      "logs": [],
      "logsBloom": "0x00000000000000000000000000000000000000000000000000000000000000000000000000000000000000000000000000000000000000000000000000000000000000000000000000000000000000000000000000000000000000000000000000000000000000000000000000000000000000000000000000000000000000000000000000000000000000000000000000000000000000000000000000000000000000000000000000000000000000000000000000000000000000000000000000000000000000000000000000000000000000000000000000000000000000000000000000000000000000000000000000000000000000000000000000000000",
      "transactionHash": "0x2ea8484dc019380e8f79b5e1f387bf0b7f85d0706124d3d4e9a13fbaaf9f2409",
      "transactionIndex": "0x0",
      "blockHash": "0x3e31bc97acc4148e065cfa13f7cfb5293a977f44b92625dac83ca3e964131278",
      "blockNumber": "0x37",
      "gasUsed": "0xac99",
      "effectiveGasPrice": "0xfbaf9",
      "blobGasPrice": "0x1",
      "from": "0xf39fd6e51aad88f6f4ce6ab8827279cfffb92266",
      "to": "0xc3e53f4d16ae77db1c982e75a937b9f60fe63690",
      "contractAddress": null
    },
    {
      "type": "0x2",
      "status": "0x1",
      "cumulativeGasUsed": "0xcf02",
      "logs": [
        {
          "address": "0xc3e53f4d16ae77db1c982e75a937b9f60fe63690",
          "topics": [
            "0xb44d84d3289691f71497564b85d4233648d9dbae8cbdbb4329f301c3a0185894",
            "0xf24503a57301e37fff33368c6047100b04636117d9759834add59fcb877d450f",
            "0x000000000000000000000000f39fd6e51aad88f6f4ce6ab8827279cfffb92266",
            "0xf24503a57301e37fff33368c6047100b04636117d9759834add59fcb877d450f"
          ],
          "data": "0x00000000000000000000000000000000000000000000000000000000000000020000000000000000000000000000000000000000000000000000000000000040000000000000000000000000000000000000000000000000000000000000000200000000000000000000000000000000000000000000000000000000000000000000000000000000000000000000000000000000000000000000000000000000",
          "blockHash": "0x3b6acb73d4f1df4a7963ccb76d513cdb417a436b4fd732fe9a125c00baaf0a8b",
          "blockNumber": "0x38",
          "blockTimestamp": "0x6a0f1149",
          "transactionHash": "0x3561de8b567c5ca998e6af5d5786725f7833b5f2eeeb35e359247b1d0dbf411e",
          "transactionIndex": "0x0",
          "logIndex": "0x0",
          "removed": false
        }
      ],
      "logsBloom": "0x00000000000000000000000008000000000000000000000000000000000000000000000000000000000000000000000000000000000000200000000000000000000000000000000000000000000000000000000000000000000000000000000000000000000000000000000100000000000000000000000000000000000000000000000800000000400000020000000000080000000000000000000200000000000000000000000000000000000000000000000000000000010000000000000000000000000000200000000000000000000000002000000000000000000000000000000000000000000000000000000000080000000000000000000000000000",
      "transactionHash": "0x3561de8b567c5ca998e6af5d5786725f7833b5f2eeeb35e359247b1d0dbf411e",
      "transactionIndex": "0x0",
      "blockHash": "0x3b6acb73d4f1df4a7963ccb76d513cdb417a436b4fd732fe9a125c00baaf0a8b",
      "blockNumber": "0x38",
      "gasUsed": "0xcf02",
      "effectiveGasPrice": "0xdc516",
      "blobGasPrice": "0x1",
      "from": "0xf39fd6e51aad88f6f4ce6ab8827279cfffb92266",
      "to": "0xc3e53f4d16ae77db1c982e75a937b9f60fe63690",
      "contractAddress": null
    },
    {
      "type": "0x2",
      "status": "0x1",
      "cumulativeGasUsed": "0xac99",
      "logs": [],
      "logsBloom": "0x00000000000000000000000000000000000000000000000000000000000000000000000000000000000000000000000000000000000000000000000000000000000000000000000000000000000000000000000000000000000000000000000000000000000000000000000000000000000000000000000000000000000000000000000000000000000000000000000000000000000000000000000000000000000000000000000000000000000000000000000000000000000000000000000000000000000000000000000000000000000000000000000000000000000000000000000000000000000000000000000000000000000000000000000000000000",
      "transactionHash": "0xc8bcb8ae8290c49587a65bd51f9fb1f6a7163cd65e404324d8db44bb235bb99c",
      "transactionIndex": "0x0",
      "blockHash": "0x1e27c33ff41db08db5a48ac011a1631d29f7f12447b1df48e523343a769be189",
      "blockNumber": "0x39",
      "gasUsed": "0xac99",
      "effectiveGasPrice": "0xc0e02",
      "blobGasPrice": "0x1",
      "from": "0xf39fd6e51aad88f6f4ce6ab8827279cfffb92266",
      "to": "0xc3e53f4d16ae77db1c982e75a937b9f60fe63690",
      "contractAddress": null
    },
    {
      "type": "0x2",
      "status": "0x1",
      "cumulativeGasUsed": "0x10b28",
      "logs": [
        {
          "address": "0xe6e340d132b5f46d1e472debcd681b2abc16e57e",
          "topics": [
            "0xddf252ad1be2c89b69c2b068fc378daa952ba7f163c4a11628f55a4df523b3ef",
            "0x0000000000000000000000000000000000000000000000000000000000000000",
            "0x00000000000000000000000015d34aaf54267db7d7c367839aaf71a00a2c6a65"
          ],
          "data": "0x000000000000000000000000000000000000000000000000000000174876e800",
          "blockHash": "0x5d90598c93232b0becf9b4c8b2773958ca3c7b487be3437e298be97a77c08309",
          "blockNumber": "0x3a",
          "blockTimestamp": "0x6a0f1149",
          "transactionHash": "0x4434e106172e78a784500b75f0468a0fcc4cae4c135043d46b29db8f5ca9a291",
          "transactionIndex": "0x0",
          "logIndex": "0x0",
          "removed": false
        }
      ],
      "logsBloom": "0x00000000040000000000000000000000000000000000000000000000000000000000000000000000000000000000000000000000000000000000000000000000000000000000000080000008000000000000000000000000000000000000000000000000020000000000000000000800000000000000000000000010080000000000000000000000000000000000000000000000000000000000000100000000000000000000000000000000000000000000000000000000000000000000000000000002000000000000000000000000000000000000000000000200000024000000000000000000000000000000000000000000000000000000000000000000",
      "transactionHash": "0x4434e106172e78a784500b75f0468a0fcc4cae4c135043d46b29db8f5ca9a291",
      "transactionIndex": "0x0",
      "blockHash": "0x5d90598c93232b0becf9b4c8b2773958ca3c7b487be3437e298be97a77c08309",
      "blockNumber": "0x3a",
      "gasUsed": "0x10b28",
      "effectiveGasPrice": "0xa8d65",
      "blobGasPrice": "0x1",
      "from": "0xf39fd6e51aad88f6f4ce6ab8827279cfffb92266",
      "to": "0xe6e340d132b5f46d1e472debcd681b2abc16e57e",
      "contractAddress": null
    },
    {
      "type": "0x2",
      "status": "0x1",
      "cumulativeGasUsed": "0xc85c",
      "logs": [
        {
          "address": "0xe6e340d132b5f46d1e472debcd681b2abc16e57e",
          "topics": [
            "0xddf252ad1be2c89b69c2b068fc378daa952ba7f163c4a11628f55a4df523b3ef",
            "0x0000000000000000000000000000000000000000000000000000000000000000",
            "0x0000000000000000000000009965507d1a55bcc2695c58ba16fb37d819b0a4dc"
          ],
          "data": "0x00000000000000000000000000000000000000000000000000000002540be400",
          "blockHash": "0xde4bb6bb2812ad1e2352fc60bba4b50215bac5222655e9a1155c76360196b786",
          "blockNumber": "0x3b",
          "blockTimestamp": "0x6a0f1149",
          "transactionHash": "0x7cb65b29dc9d72bb56925b5ba43db4629c40afd2259a122e739e45ab96987c62",
          "transactionIndex": "0x0",
          "logIndex": "0x0",
          "removed": false
        }
      ],
      "logsBloom": "0x00000004000000000000000000000000000000000000000000000000000000000000000000000000000000000000000000000000000000000000000000000000000000000000000080000008000000000000000000008000000000000000000000000000020000000000000000000800000000000000000000000010080000000000000000000000000000000000000000000000000000000000000000000000000000000000000000000000000000000000000000000000000000000000000000000002800000000000000000000000000000000000000000000200000020000000000000000000000000000000000000000000000000000000000000000000",
      "transactionHash": "0x7cb65b29dc9d72bb56925b5ba43db4629c40afd2259a122e739e45ab96987c62",
      "transactionIndex": "0x0",
      "blockHash": "0xde4bb6bb2812ad1e2352fc60bba4b50215bac5222655e9a1155c76360196b786",
      "blockNumber": "0x3b",
      "gasUsed": "0xc85c",
      "effectiveGasPrice": "0x93d43",
      "blobGasPrice": "0x1",
      "from": "0xf39fd6e51aad88f6f4ce6ab8827279cfffb92266",
      "to": "0xe6e340d132b5f46d1e472debcd681b2abc16e57e",
      "contractAddress": null
    },
    {
      "type": "0x2",
      "status": "0x1",
      "cumulativeGasUsed": "0xc85c",
      "logs": [
        {
          "address": "0xe6e340d132b5f46d1e472debcd681b2abc16e57e",
          "topics": [
            "0xddf252ad1be2c89b69c2b068fc378daa952ba7f163c4a11628f55a4df523b3ef",
            "0x0000000000000000000000000000000000000000000000000000000000000000",
            "0x000000000000000000000000976ea74026e726554db657fa54763abd0c3a0aa9"
          ],
          "data": "0x000000000000000000000000000000000000000000000000000000012a05f200",
          "blockHash": "0x0bc2195159f895bc315ea511fca4d36b519cf1a0d339b4d41dbab8e6df27762a",
          "blockNumber": "0x3c",
          "blockTimestamp": "0x6a0f1149",
          "transactionHash": "0x009d315ab1e54dc9525e0f10e008fb12762d87bcf4b9815666793e7d0bcfd454",
          "transactionIndex": "0x0",
          "logIndex": "0x0",
          "removed": false
        }
      ],
      "logsBloom": "0x00000000000000000000000000000000000000040200000000000000000000000000000000000000000000000000000000000000000000000000000000000000000000000000000080000008000000000000000000000000080000000000000000000000020000000000000000000800000000000000000000000010080000000000000000000000000000000000000000000000000000000000000000000000000000000000000000000000000000000000000000000000000000000000000000000002000000000000000000000000000000000000000000000200000020000000000000000000000000000000000000000000000000000000000000000000",
      "transactionHash": "0x009d315ab1e54dc9525e0f10e008fb12762d87bcf4b9815666793e7d0bcfd454",
      "transactionIndex": "0x0",
      "blockHash": "0x0bc2195159f895bc315ea511fca4d36b519cf1a0d339b4d41dbab8e6df27762a",
      "blockNumber": "0x3c",
      "gasUsed": "0xc85c",
      "effectiveGasPrice": "0x8169e",
      "blobGasPrice": "0x1",
      "from": "0xf39fd6e51aad88f6f4ce6ab8827279cfffb92266",
      "to": "0xe6e340d132b5f46d1e472debcd681b2abc16e57e",
      "contractAddress": null
    },
    {
      "type": "0x2",
      "status": "0x1",
      "cumulativeGasUsed": "0xb657",
      "logs": [
        {
          "address": "0xe6e340d132b5f46d1e472debcd681b2abc16e57e",
          "topics": [
            "0x8c5be1e5ebec7d5bd14f71427d1e84f3dd0314c0f7b2291e5b200ac8c7c3b925",
            "0x00000000000000000000000015d34aaf54267db7d7c367839aaf71a00a2c6a65",
            "0x0000000000000000000000001613beb3b2c4f22ee086b2b38c1476a3ce7f78e8"
          ],
          "data": "0xffffffffffffffffffffffffffffffffffffffffffffffffffffffffffffffff",
          "blockHash": "0x86dc35b437a1e9c71d173cddb86b37de595919901ed320fe4f529a1f7da2cf53",
          "blockNumber": "0x3d",
          "blockTimestamp": "0x6a0f1149",
          "transactionHash": "0xc5a448f71aeb9b2582c38b2ea71b634419b69e34058bc2959cda691f3937cc9c",
          "transactionIndex": "0x0",
          "logIndex": "0x0",
          "removed": false
        }
      ],
      "logsBloom": "0x00000000040000000000000000000000000000000000000000000000000000000000001000000000000400000000000000000000000000000000000000200000000000000000000080000000000000000000000000000000000000000000000000000000000000000000000000000000000000000000000000000000080000000000000000000000000000000000000000000000000000000000000100000000020000000000000000000000000000000000000000000000000000000000000000000000000000000000000000000000000000000000000000000200000004020010000000000000000000000000000000000000000000000000000000000000",
      "transactionHash": "0xc5a448f71aeb9b2582c38b2ea71b634419b69e34058bc2959cda691f3937cc9c",
      "transactionIndex": "0x0",
      "blockHash": "0x86dc35b437a1e9c71d173cddb86b37de595919901ed320fe4f529a1f7da2cf53",
      "blockNumber": "0x3d",
      "gasUsed": "0xb657",
      "effectiveGasPrice": "0x714ad",
      "blobGasPrice": "0x1",
      "from": "0x15d34aaf54267db7d7c367839aaf71a00a2c6a65",
      "to": "0xe6e340d132b5f46d1e472debcd681b2abc16e57e",
      "contractAddress": null
    },
    {
      "type": "0x2",
      "status": "0x1",
      "cumulativeGasUsed": "0x15ce38",
      "logs": [
        {
          "address": "0xe6e340d132b5f46d1e472debcd681b2abc16e57e",
          "topics": [
            "0xddf252ad1be2c89b69c2b068fc378daa952ba7f163c4a11628f55a4df523b3ef",
            "0x00000000000000000000000015d34aaf54267db7d7c367839aaf71a00a2c6a65",
            "0x0000000000000000000000001613beb3b2c4f22ee086b2b38c1476a3ce7f78e8"
          ],
          "data": "0x000000000000000000000000000000000000000000000000000000003b9aca00",
          "blockHash": "0xc1143136dddc72041c0f43f647dbdada31e7aee182d2b6bcf32f51312b15d683",
          "blockNumber": "0x3e",
          "blockTimestamp": "0x6a0f1149",
          "transactionHash": "0xfb6ffcdbc6e953b0ac722342c874ece80d12decf9283385fd236737ef272cd7f",
          "transactionIndex": "0x0",
          "logIndex": "0x0",
          "removed": false
        },
        {
          "address": "0xa82ff9afd8f496c3d6ac40e2a0f282e47488cfc9",
          "topics": [
            "0xa71aae9c5dcd63ac47f172e5f4e7d9f6682bcb16d365a35e3ff0977b7a0ad772",
            "0x0000000000000000000000000000000000000000000000000000000000000000"
          ],
          "data": "0x1881d8422a8e16e4bcd8e41d109189128ead68c34a4b3dd7d641415808382b562b1e9394a35c5e7ea37fe91415074e4fd0c386d88c688437c201a1a339d9a1ce",
          "blockHash": "0xc1143136dddc72041c0f43f647dbdada31e7aee182d2b6bcf32f51312b15d683",
          "blockNumber": "0x3e",
          "blockTimestamp": "0x6a0f1149",
          "transactionHash": "0xfb6ffcdbc6e953b0ac722342c874ece80d12decf9283385fd236737ef272cd7f",
          "transactionIndex": "0x0",
          "logIndex": "0x1",
          "removed": false
        },
        {
          "address": "0x1613beb3b2c4f22ee086b2b38c1476a3ce7f78e8",
          "topics": [
            "0xfe447f84c02bd3d47e0f77ccc68779ac1a79d4a2e3a0a66f626b495f8bf88084",
            "0x00000000000000000000000015d34aaf54267db7d7c367839aaf71a00a2c6a65"
          ],
          "data": "0x1881d8422a8e16e4bcd8e41d109189128ead68c34a4b3dd7d641415808382b56000000000000000000000000000000000000000000000000000000003b9aca00",
          "blockHash": "0xc1143136dddc72041c0f43f647dbdada31e7aee182d2b6bcf32f51312b15d683",
          "blockNumber": "0x3e",
          "blockTimestamp": "0x6a0f1149",
          "transactionHash": "0xfb6ffcdbc6e953b0ac722342c874ece80d12decf9283385fd236737ef272cd7f",
          "transactionIndex": "0x0",
          "logIndex": "0x2",
          "removed": false
        }
      ],
      "logsBloom": "0x00000000040000000000000010800000000000000000000000000000000000000000001000000000000400000000000000000000000000000000000000000000000000000000000080000008000000000000000008000000000000000000000008000000020000000000010000000800000000000000000000000010080000000000000000000000000000000200000000000000000000000000002100000000000000000000000000000000200000000000008000000000000000000000000000000002000000000000000000000000210000000000000000000200000024020000000000000000000000000000000000000000000000000000000000001000",
      "transactionHash": "0xfb6ffcdbc6e953b0ac722342c874ece80d12decf9283385fd236737ef272cd7f",
      "transactionIndex": "0x0",
      "blockHash": "0xc1143136dddc72041c0f43f647dbdada31e7aee182d2b6bcf32f51312b15d683",
      "blockNumber": "0x3e",
      "gasUsed": "0x15ce38",
      "effectiveGasPrice": "0x632cd",
      "blobGasPrice": "0x1",
      "from": "0x15d34aaf54267db7d7c367839aaf71a00a2c6a65",
      "to": "0x1613beb3b2c4f22ee086b2b38c1476a3ce7f78e8",
      "contractAddress": null
    },
    {
      "type": "0x2",
      "status": "0x1",
      "cumulativeGasUsed": "0xb657",
      "logs": [
        {
          "address": "0xe6e340d132b5f46d1e472debcd681b2abc16e57e",
          "topics": [
            "0x8c5be1e5ebec7d5bd14f71427d1e84f3dd0314c0f7b2291e5b200ac8c7c3b925",
            "0x0000000000000000000000009965507d1a55bcc2695c58ba16fb37d819b0a4dc",
            "0x0000000000000000000000001613beb3b2c4f22ee086b2b38c1476a3ce7f78e8"
          ],
          "data": "0xffffffffffffffffffffffffffffffffffffffffffffffffffffffffffffffff",
          "blockHash": "0xbb26f4cc0edab1c5d1e3289329269105a7d3082a61faf67883b81cb776cd837b",
          "blockNumber": "0x3f",
          "blockTimestamp": "0x6a0f1149",
          "transactionHash": "0xc8787330db47c7fdac04fd46583026a5b05e221f3b357376d7f24181b64dee8d",
          "transactionIndex": "0x0",
          "logIndex": "0x0",
          "removed": false
        }
      ],
      "logsBloom": "0x00000004000000000000000000000000000000000000000000000000000000000000001000000000000400000000000000000000000000000000000000200000000000000000000080000000000000000000000000008000000000000000000000000000000000000000000000000000000000000000000000000000080000000000000000000000000000000000000000000000000000000000000000000000020000000000000000000000000000000000000000000000000000000000000000000000800000000000000000000000000000000000000000000200000000020010000000000000000000000000000000000000000000000000000000000000",
      "transactionHash": "0xc8787330db47c7fdac04fd46583026a5b05e221f3b357376d7f24181b64dee8d",
      "transactionIndex": "0x0",
      "blockHash": "0xbb26f4cc0edab1c5d1e3289329269105a7d3082a61faf67883b81cb776cd837b",
      "blockNumber": "0x3f",
      "gasUsed": "0xb657",
      "effectiveGasPrice": "0x57f5a",
      "blobGasPrice": "0x1",
      "from": "0x9965507d1a55bcc2695c58ba16fb37d819b0a4dc",
      "to": "0xe6e340d132b5f46d1e472debcd681b2abc16e57e",
      "contractAddress": null
    },
    {
      "type": "0x2",
      "status": "0x1",
      "cumulativeGasUsed": "0x14f21a",
      "logs": [
        {
          "address": "0xe6e340d132b5f46d1e472debcd681b2abc16e57e",
          "topics": [
            "0xddf252ad1be2c89b69c2b068fc378daa952ba7f163c4a11628f55a4df523b3ef",
            "0x0000000000000000000000009965507d1a55bcc2695c58ba16fb37d819b0a4dc",
            "0x0000000000000000000000001613beb3b2c4f22ee086b2b38c1476a3ce7f78e8"
          ],
          "data": "0x000000000000000000000000000000000000000000000000000000001dcd6500",
          "blockHash": "0x39874a605183f66e22bab5401c6b82de8eb75f4941d02518a146f6ec6f8b25ab",
          "blockNumber": "0x40",
          "blockTimestamp": "0x6a0f1149",
          "transactionHash": "0xd7633569d7ee12cb3d87f5ee1f315dbd3887907bec2290f10facb055765a954f",
          "transactionIndex": "0x0",
          "logIndex": "0x0",
          "removed": false
        },
        {
          "address": "0xa82ff9afd8f496c3d6ac40e2a0f282e47488cfc9",
          "topics": [
            "0xa71aae9c5dcd63ac47f172e5f4e7d9f6682bcb16d365a35e3ff0977b7a0ad772",
            "0x0000000000000000000000000000000000000000000000000000000000000001"
          ],
          "data": "0x7233ef37096f4cf72cfcd682b3deaacbbed043ced9cbb2b1f7e87420e7da9e431fff809444962aa67c5669ec03dc501d2b1403acaf2ccb2e88b00e74a8c03aaf",
          "blockHash": "0x39874a605183f66e22bab5401c6b82de8eb75f4941d02518a146f6ec6f8b25ab",
          "blockNumber": "0x40",
          "blockTimestamp": "0x6a0f1149",
          "transactionHash": "0xd7633569d7ee12cb3d87f5ee1f315dbd3887907bec2290f10facb055765a954f",
          "transactionIndex": "0x0",
          "logIndex": "0x1",
          "removed": false
        },
        {
          "address": "0x1613beb3b2c4f22ee086b2b38c1476a3ce7f78e8",
          "topics": [
            "0xfe447f84c02bd3d47e0f77ccc68779ac1a79d4a2e3a0a66f626b495f8bf88084",
            "0x0000000000000000000000009965507d1a55bcc2695c58ba16fb37d819b0a4dc"
          ],
          "data": "0x7233ef37096f4cf72cfcd682b3deaacbbed043ced9cbb2b1f7e87420e7da9e43000000000000000000000000000000000000000000000000000000001dcd6500",
          "blockHash": "0x39874a605183f66e22bab5401c6b82de8eb75f4941d02518a146f6ec6f8b25ab",
          "blockNumber": "0x40",
          "blockTimestamp": "0x6a0f1149",
          "transactionHash": "0xd7633569d7ee12cb3d87f5ee1f315dbd3887907bec2290f10facb055765a954f",
          "transactionIndex": "0x0",
          "logIndex": "0x2",
          "removed": false
        }
      ],
      "logsBloom": "0x00000004000000000000000010800000000000000000000000000000000000000000001000000000000400000000000000000000000000000000000000040000000000000000000080000008000000000000000008048000000000000000000008000000000000000000010000000000000000000000000000000010080000000000000000000000000000000200000000000000000000000000002000000000000000000000000000000000200000000000008000000000000000000000000000000002800000000000000000000000210000000000000000000200000040020000000000000000000000000000000000000000000000000000000000001000",
      "transactionHash": "0xd7633569d7ee12cb3d87f5ee1f315dbd3887907bec2290f10facb055765a954f",
      "transactionIndex": "0x0",
      "blockHash": "0x39874a605183f66e22bab5401c6b82de8eb75f4941d02518a146f6ec6f8b25ab",
      "blockNumber": "0x40",
      "gasUsed": "0x14f21a",
      "effectiveGasPrice": "0x4cffc",
      "blobGasPrice": "0x1",
      "from": "0x9965507d1a55bcc2695c58ba16fb37d819b0a4dc",
      "to": "0x1613beb3b2c4f22ee086b2b38c1476a3ce7f78e8",
      "contractAddress": null
    },
    {
      "type": "0x2",
      "status": "0x1",
      "cumulativeGasUsed": "0x5208",
      "logs": [],
      "logsBloom": "0x00000000000000000000000000000000000000000000000000000000000000000000000000000000000000000000000000000000000000000000000000000000000000000000000000000000000000000000000000000000000000000000000000000000000000000000000000000000000000000000000000000000000000000000000000000000000000000000000000000000000000000000000000000000000000000000000000000000000000000000000000000000000000000000000000000000000000000000000000000000000000000000000000000000000000000000000000000000000000000000000000000000000000000000000000000000",
      "transactionHash": "0x0c030f52db6acbcbbd207279ece938fe32190e39aeaf5e32a8f8c19fbe6ce0c1",
      "transactionIndex": "0x0",
      "blockHash": "0x5e73d2279de810318a0edfef040e0364316ea08643036da79bc4eb923b6857f9",
      "blockNumber": "0x41",
      "gasUsed": "0x5208",
      "effectiveGasPrice": "0x44415",
      "blobGasPrice": "0x1",
      "from": "0xf39fd6e51aad88f6f4ce6ab8827279cfffb92266",
      "to": "0x2d209040c031d4e2d4d9cb4d3aabf18f52260ab0",
      "contractAddress": null
    },
    {
      "type": "0x2",
      "status": "0x1",
      "cumulativeGasUsed": "0x5208",
      "logs": [],
      "logsBloom": "0x00000000000000000000000000000000000000000000000000000000000000000000000000000000000000000000000000000000000000000000000000000000000000000000000000000000000000000000000000000000000000000000000000000000000000000000000000000000000000000000000000000000000000000000000000000000000000000000000000000000000000000000000000000000000000000000000000000000000000000000000000000000000000000000000000000000000000000000000000000000000000000000000000000000000000000000000000000000000000000000000000000000000000000000000000000000",
      "transactionHash": "0x8e51fb9eb32de1b51067fc1844e35bae336d75cfcef81c6ca2dab10c6cfefeb7",
      "transactionIndex": "0x0",
      "blockHash": "0x09388b81929ba9313fec6bfe419a452f5a0ef16cd5240d702159e004067bad0c",
      "blockNumber": "0x42",
      "gasUsed": "0x5208",
      "effectiveGasPrice": "0x3bbc4",
      "blobGasPrice": "0x1",
      "from": "0xf39fd6e51aad88f6f4ce6ab8827279cfffb92266",
      "to": "0x7d0a7d3a4508b33c6a0e9f3fcbc72562cc120e89",
      "contractAddress": null
    },
    {
      "type": "0x2",
      "status": "0x1",
      "cumulativeGasUsed": "0x5208",
      "logs": [],
      "logsBloom": "0x00000000000000000000000000000000000000000000000000000000000000000000000000000000000000000000000000000000000000000000000000000000000000000000000000000000000000000000000000000000000000000000000000000000000000000000000000000000000000000000000000000000000000000000000000000000000000000000000000000000000000000000000000000000000000000000000000000000000000000000000000000000000000000000000000000000000000000000000000000000000000000000000000000000000000000000000000000000000000000000000000000000000000000000000000000000",
      "transactionHash": "0xe0fd745789e58d52818f5d35f8d53a561ba54a601060566a84f36fabae7d9a4d",
      "transactionIndex": "0x0",
      "blockHash": "0xfa2a0effc76d38d33339e00d8a08d2173ecafa65a838d4c3e87003d61dce9c23",
      "blockNumber": "0x43",
      "gasUsed": "0x5208",
      "effectiveGasPrice": "0x34477",
      "blobGasPrice": "0x1",
      "from": "0xf39fd6e51aad88f6f4ce6ab8827279cfffb92266",
      "to": "0x46458d7ce6157ae78bff94d2096308f352c7edc8",
      "contractAddress": null
    },
    {
      "type": "0x2",
      "status": "0x1",
      "cumulativeGasUsed": "0xc85c",
      "logs": [
        {
          "address": "0xe6e340d132b5f46d1e472debcd681b2abc16e57e",
          "topics": [
            "0xddf252ad1be2c89b69c2b068fc378daa952ba7f163c4a11628f55a4df523b3ef",
            "0x0000000000000000000000000000000000000000000000000000000000000000",
            "0x0000000000000000000000002d209040c031d4e2d4d9cb4d3aabf18f52260ab0"
          ],
          "data": "0x000000000000000000000000000000000000000000000000000000174876e800",
          "blockHash": "0x51f6d61306c727645bb3ce919fd067615c1fb9423d0e527f2413a7e04923fdb0",
          "blockNumber": "0x44",
          "blockTimestamp": "0x6a0f114a",
          "transactionHash": "0x8976ad2ceb08eb3636151d923b7b4825a90d272b6198b24e5967e56c1db3671d",
          "transactionIndex": "0x0",
          "logIndex": "0x0",
          "removed": false
        }
      ],
      "logsBloom": "0x00000000000000000000000020000000000000000000000000000000000000000000000000000000000000000000000000000000000000000000000000000000000000000000000080000008000000000000000000000000000000000000000000000000020000000000000000000800000000000000000000000010480000000000000000000000000000000000000000000000000000000000000000000000000000000000000000000000000000000000000000000000000000000000000000000002080000000000000000000000000000000000000000000200000020000000000000000000000000000000000000000000000000000000000000000000",
      "transactionHash": "0x8976ad2ceb08eb3636151d923b7b4825a90d272b6198b24e5967e56c1db3671d",
      "transactionIndex": "0x0",
      "blockHash": "0x51f6d61306c727645bb3ce919fd067615c1fb9423d0e527f2413a7e04923fdb0",
      "blockNumber": "0x44",
      "gasUsed": "0xc85c",
      "effectiveGasPrice": "0x2dc0e",
      "blobGasPrice": "0x1",
      "from": "0xf39fd6e51aad88f6f4ce6ab8827279cfffb92266",
      "to": "0xe6e340d132b5f46d1e472debcd681b2abc16e57e",
      "contractAddress": null
    },
    {
      "type": "0x2",
      "status": "0x1",
      "cumulativeGasUsed": "0xc85c",
      "logs": [
        {
          "address": "0xe6e340d132b5f46d1e472debcd681b2abc16e57e",
          "topics": [
            "0xddf252ad1be2c89b69c2b068fc378daa952ba7f163c4a11628f55a4df523b3ef",
            "0x0000000000000000000000000000000000000000000000000000000000000000",
            "0x0000000000000000000000007d0a7d3a4508b33c6a0e9f3fcbc72562cc120e89"
          ],
          "data": "0x000000000000000000000000000000000000000000000000000000174876e800",
          "blockHash": "0x8fc8f2833ce68cf8f381c5861fcd24cb3fccfd4f7fec6b43cab8b20b6c05d426",
          "blockNumber": "0x45",
          "blockTimestamp": "0x6a0f114a",
          "transactionHash": "0xec5332033727af8c2913786dd369ab0efe0ddd9e665edf35a81a04ce11b6c874",
          "transactionIndex": "0x0",
          "logIndex": "0x0",
          "removed": false
        }
      ],
      "logsBloom": "0x00000000000000000000000000000000000000000000000000000000000000000000000000000000000000000000000000000000000000000000000000000000000000000000000080000028000000000000000000000000000000000000000000000000020000080000000000000800000000000000000000000010080000000000000000000000000000000000000000000000000000000000000000000000000000000000000000000000000000000000000000000000000000000000000000000002000000000000000000000000000000000000000000000200000020000000000000000001000000000000000000000000000000000000000000000000",
      "transactionHash": "0xec5332033727af8c2913786dd369ab0efe0ddd9e665edf35a81a04ce11b6c874",
      "transactionIndex": "0x0",
      "blockHash": "0x8fc8f2833ce68cf8f381c5861fcd24cb3fccfd4f7fec6b43cab8b20b6c05d426",
      "blockNumber": "0x45",
      "gasUsed": "0xc85c",
      "effectiveGasPrice": "0x280dd",
      "blobGasPrice": "0x1",
      "from": "0xf39fd6e51aad88f6f4ce6ab8827279cfffb92266",
      "to": "0xe6e340d132b5f46d1e472debcd681b2abc16e57e",
      "contractAddress": null
    },
    {
      "type": "0x2",
      "status": "0x1",
      "cumulativeGasUsed": "0xc85c",
      "logs": [
        {
          "address": "0xe6e340d132b5f46d1e472debcd681b2abc16e57e",
          "topics": [
            "0xddf252ad1be2c89b69c2b068fc378daa952ba7f163c4a11628f55a4df523b3ef",
            "0x0000000000000000000000000000000000000000000000000000000000000000",
            "0x00000000000000000000000046458d7ce6157ae78bff94d2096308f352c7edc8"
          ],
          "data": "0x000000000000000000000000000000000000000000000000000000174876e800",
          "blockHash": "0xda2f748bc820e187cb96328a08015679908e39733a4785333b8f738b9d01b1e8",
          "blockNumber": "0x46",
          "blockTimestamp": "0x6a0f114a",
          "transactionHash": "0xf39536c2860aa544170b4df42994b9fbdb6ee3c033d02a264858a49d26a5a5a0",
          "transactionIndex": "0x0",
          "logIndex": "0x0",
          "removed": false
        }
      ],
      "logsBloom": "0x00000000000000000000000000000000000000000000000020000000000000000000000000000000000000000000000000000000000000000000000000000000000000000000000080000008000000000000000000000000000000000000000000000000020000000000000000000800000000000000000000000010080000000000000000000000000000000000000000000000000000000000000000000000000000000000000000000000000000000000000000000000000000000000000000000002000000000000000000000000000000000000000000000200000020000010000000000000000004000000000000000000000000000000000000000000",
      "transactionHash": "0xf39536c2860aa544170b4df42994b9fbdb6ee3c033d02a264858a49d26a5a5a0",
      "transactionIndex": "0x0",
      "blockHash": "0xda2f748bc820e187cb96328a08015679908e39733a4785333b8f738b9d01b1e8",
      "blockNumber": "0x46",
      "gasUsed": "0xc85c",
      "effectiveGasPrice": "0x23108",
      "blobGasPrice": "0x1",
      "from": "0xf39fd6e51aad88f6f4ce6ab8827279cfffb92266",
      "to": "0xe6e340d132b5f46d1e472debcd681b2abc16e57e",
      "contractAddress": null
    }
  ],
  "libraries": [
    "lib/poseidon-solidity/contracts/PoseidonT3.sol:PoseidonT3:0xcddCB0E014758e919f344829585cd385ffc4656C"
  ],
  "pending": [],
  "returns": {},
  "timestamp": 1779372362200,
  "chain": 31337,
  "commit": "396499e"
}