{
  "transactions": [
    {
      "hash": "0x8125ffda086d03aaaed45e12407897da4233f347739d649c375bc9abda9953c0",
      "transactionType": "CALL",
      "contractName": null,
      "contractAddress": "0xe2ab841979518784781d05cde961f5c8bbb26ad2",
      "function": "setDeploymentCap(uint256)",
      "arguments": [
        "1000000000"
      ],
      "transaction": {
        "from": "0xb68ce80bb9ad1dbbd0e8c6c9efb982763b765f48",
        "to": "0xe2ab841979518784781d05cde961f5c8bbb26ad2",
        "gas": "0xb077",
        "value": "0x0",
        "input": "0xd8b9cc41000000000000000000000000000000000000000000000000000000003b9aca00",
        "nonce": "0x78",
        "chainId": "0x89"
      },
      "additionalContracts": [],
      "isFixedGasLimit": false
    }
  ],
  "receipts": [
    {
      "type": "0x2",
      "status": "0x1",
      "cumulativeGasUsed": "0x22d0dd5",
      "logs": [
        {
          "address": "0x0000000000000000000000000000000000001010",
          "topics": [
            "0x4dfe1bbbcf077ddc3e01291eea2d5c70c2b422b415d95645b9adcfd678cb1d63",
            "0x0000000000000000000000000000000000000000000000000000000000001010",
            "0x000000000000000000000000b68ce80bb9ad1dbbd0e8c6c9efb982763b765f48",
            "0x0000000000000000000000007ee41d8a25641000661b1ef5e6ae8a00400466b0"
          ],
          "data": "0x00000000000000000000000000000000000000000000000000189b97a351510d00000000000000000000000000000000000000000000001efe26117fed54eafe00000000000000000000000000000000000000000013335d83af61cf0b16c79500000000000000000000000000000000000000000000001efe0d75e84a0399f100000000000000000000000000000000000000000013335d83c7fd66ae6818a2",
          "blockHash": "0xcf3e423ac056c43ec2ef4d3ec382b6d24b3e5674cbc0f82ff6ec896dcedc3bb1",
          "blockNumber": "0x540ebd7",
          "blockTimestamp": "0x6a269f9c",
          "transactionHash": "0x8125ffda086d03aaaed45e12407897da4233f347739d649c375bc9abda9953c0",
          "transactionIndex": "0x60",
          "logIndex": "0x501",
          "removed": false
        }
      ],
      "logsBloom": "0x00000000000000000000000000000000000000000000000000000000000000000000000000000000000000000000800000008000000000000000000000000000000000000000000000000000000000800000000000000000000100000000000000000000000000000000000000000000000000000000000080000000000000000000000000000000020000000400000000000000000000000000008000000000200000000000000000000000000000000000000000000000000000000000004000000000000000000001000000000000000000400000000000100000000000000000000000000000000000000000000040000000000000000000000000100000",
      "transactionHash": "0x8125ffda086d03aaaed45e12407897da4233f347739d649c375bc9abda9953c0",
      "transactionIndex": "0x60",
      "blockHash": "0xcf3e423ac056c43ec2ef4d3ec382b6d24b3e5674cbc0f82ff6ec896dcedc3bb1",
      "blockNumber": "0x540ebd7",
      "gasUsed": "0x9631",
      "effectiveGasPrice": "0x63d3ccaea4",
      "from": "0xb68ce80bb9ad1dbbd0e8c6c9efb982763b765f48",
      "to": "0xe2ab841979518784781d05cde961f5c8bbb26ad2",
      "contractAddress": null
    }
  ],
  "libraries": [],
  "pending": [],
  "returns": {},
  "timestamp": 1780916123549,
  "chain": 137,
  "commit": "9738bca"
}