{
  "transactions": [
    {
      "hash": "0x8048f125439c7ba9c8c0fe64e17726108c72a9f38ae9c98656d40ade8223a43d",
      "transactionType": "CALL",
      "contractName": null,
      "contractAddress": "0xf665b481280a984c15600bd39b37ca6b352cd153",
      "function": "acceptVerifier(uint8)",
      "arguments": [
        "0"
      ],
      "transaction": {
        "from": "0xb68ce80bb9ad1dbbd0e8c6c9efb982763b765f48",
        "to": "0xf665b481280a984c15600bd39b37ca6b352cd153",
        "gas": "0x132f9",
        "value": "0x0",
        "input": "0xa63d99630000000000000000000000000000000000000000000000000000000000000000",
        "nonce": "0x96",
        "chainId": "0x89"
      },
      "additionalContracts": [],
      "isFixedGasLimit": false
    },
    {
      "hash": "0xe428f622716c2fcba6f42f4602cc8a7e9ff0e2b9dd133cade251beb00b23b259",
      "transactionType": "CALL",
      "contractName": null,
      "contractAddress": "0xf665b481280a984c15600bd39b37ca6b352cd153",
      "function": "acceptVerifier(uint8)",
      "arguments": [
        "1"
      ],
      "transaction": {
        "from": "0xb68ce80bb9ad1dbbd0e8c6c9efb982763b765f48",
        "to": "0xf665b481280a984c15600bd39b37ca6b352cd153",
        "gas": "0x1451a",
        "value": "0x0",
        "input": "0xa63d99630000000000000000000000000000000000000000000000000000000000000001",
        "nonce": "0x97",
        "chainId": "0x89"
      },
      "additionalContracts": [],
      "isFixedGasLimit": false
    },
    {
      "hash": "0x60bd7ae358d452286cafa6d725e4cbe94f85b41269b101472be6d7fb67209bde",
      "transactionType": "CALL",
      "contractName": null,
      "contractAddress": "0xf665b481280a984c15600bd39b37ca6b352cd153",
      "function": "acceptVerifier(uint8)",
      "arguments": [
        "2"
      ],
      "transaction": {
        "from": "0xb68ce80bb9ad1dbbd0e8c6c9efb982763b765f48",
        "to": "0xf665b481280a984c15600bd39b37ca6b352cd153",
        "gas": "0x1451a",
        "value": "0x0",
        "input": "0xa63d99630000000000000000000000000000000000000000000000000000000000000002",
        "nonce": "0x98",
        "chainId": "0x89"
      },
      "additionalContracts": [],
      "isFixedGasLimit": false
    },
    {
      "hash": "0xbf74f968e9f30380e34b30cbf2ca7fe88fc1c2a1e12927d10d82eb93d12ab7c7",
      "transactionType": "CALL",
      "contractName": null,
      "contractAddress": "0xf665b481280a984c15600bd39b37ca6b352cd153",
      "function": "acceptVerifier(uint8)",
      "arguments": [
        "3"
      ],
      "transaction": {
        "from": "0xb68ce80bb9ad1dbbd0e8c6c9efb982763b765f48",
        "to": "0xf665b481280a984c15600bd39b37ca6b352cd153",
        "gas": "0x1451a",
        "value": "0x0",
        "input": "0xa63d99630000000000000000000000000000000000000000000000000000000000000003",
        "nonce": "0x99",
        "chainId": "0x89"
      },
      "additionalContracts": [],
      "isFixedGasLimit": false
    },
    {
      "hash": "0x8138681f9edc7e054e49352d847016366a4c5e14b9faae4b03a90d93e1b6eef2",
      "transactionType": "CALL",
      "contractName": null,
      "contractAddress": "0xf665b481280a984c15600bd39b37ca6b352cd153",
      "function": "acceptVerifier(uint8)",
      "arguments": [
        "4"
      ],
      "transaction": {
        "from": "0xb68ce80bb9ad1dbbd0e8c6c9efb982763b765f48",
        "to": "0xf665b481280a984c15600bd39b37ca6b352cd153",
        "gas": "0x1451a",
        "value": "0x0",
        "input": "0xa63d99630000000000000000000000000000000000000000000000000000000000000004",
        "nonce": "0x9a",
        "chainId": "0x89"
      },
      "additionalContracts": [],
      "isFixedGasLimit": false
    },
    {
      "hash": "0x0f1bc1f2d670373eb19c9fa5fcb682c2c261d18cbc364dc6ba6aff825ddcba7d",
      "transactionType": "CALL",
      "contractName": null,
      "contractAddress": "0xf665b481280a984c15600bd39b37ca6b352cd153",
      "function": "acceptVerifier(uint8)",
      "arguments": [
        "5"
      ],
      "transaction": {
        "from": "0xb68ce80bb9ad1dbbd0e8c6c9efb982763b765f48",
        "to": "0xf665b481280a984c15600bd39b37ca6b352cd153",
        "gas": "0x1451a",
        "value": "0x0",
        "input": "0xa63d99630000000000000000000000000000000000000000000000000000000000000005",
        "nonce": "0x9b",
        "chainId": "0x89"
      },
      "additionalContracts": [],
      "isFixedGasLimit": false
    },
    {
      "hash": "0xd6e57189e2d4438ff84067bd7b009ac1a5775d29b8b11939fb55ddbb3d220447",
      "transactionType": "CALL",
      "contractName": null,
      "contractAddress": "0xf665b481280a984c15600bd39b37ca6b352cd153",
      "function": "acceptVerifier(uint8)",
      "arguments": [
        "6"
      ],
      "transaction": {
        "from": "0xb68ce80bb9ad1dbbd0e8c6c9efb982763b765f48",
        "to": "0xf665b481280a984c15600bd39b37ca6b352cd153",
        "gas": "0x1451a",
        "value": "0x0",
        "input": "0xa63d99630000000000000000000000000000000000000000000000000000000000000006",
        "nonce": "0x9c",
        "chainId": "0x89"
      },
      "additionalContracts": [],
      "isFixedGasLimit": false
    },
    {
      "hash": "0x9a51a19d07cdb090096c82b617a9c6dfa106c77adee480fdd9dd184964a400dd",
      "transactionType": "CALL",
      "contractName": null,
      "contractAddress": "0xf665b481280a984c15600bd39b37ca6b352cd153",
      "function": "acceptVerifier(uint8)",
      "arguments": [
        "7"
      ],
      "transaction": {
        "from": "0xb68ce80bb9ad1dbbd0e8c6c9efb982763b765f48",
        "to": "0xf665b481280a984c15600bd39b37ca6b352cd153",
        "gas": "0x1451a",
        "value": "0x0",
        "input": "0xa63d99630000000000000000000000000000000000000000000000000000000000000007",
        "nonce": "0x9d",
        "chainId": "0x89"
      },
      "additionalContracts": [],
      "isFixedGasLimit": false
    },
    {
      "hash": "0x8d6ea5cead08c76ada4694048e343f4d97a887b0529f4e64f72282fd66338453",
      "transactionType": "CALL",
      "contractName": null,
      "contractAddress": "0xf665b481280a984c15600bd39b37ca6b352cd153",
      "function": "acceptVerifier(uint8)",
      "arguments": [
        "8"
      ],
      "transaction": {
        "from": "0xb68ce80bb9ad1dbbd0e8c6c9efb982763b765f48",
        "to": "0xf665b481280a984c15600bd39b37ca6b352cd153",
        "gas": "0x1451a",
        "value": "0x0",
        "input": "0xa63d99630000000000000000000000000000000000000000000000000000000000000008",
        "nonce": "0x9e",
        "chainId": "0x89"
      },
      "additionalContracts": [],
      "isFixedGasLimit": false
    }
  ],
  "receipts": [
    {
      "type": "0x2",
      "status": "0x1",
      "cumulativeGasUsed": "0x26e34be",
      "logs": [
        {
          "address": "0xf665b481280a984c15600bd39b37ca6b352cd153",
          "topics": [
            "0xc466fe7ec25807cb9ca5e4b045c2cdc107cf8b58f9989f1994794ff6c55f4312",
            "0x0000000000000000000000000000000000000000000000000000000000000000"
          ],
          "data": "0x00000000000000000000000026560da5836a2dfa99dbb39a3d94f2cef27d0e07",
          "blockHash": "0xb6c3595fccae19d7887ff943ae122ab4b2a384d20aa3f89912baecbcdd188d15",
          "blockNumber": "0x540fc4e",
          "blockTimestamp": "0x6a26b84e",
          "transactionHash": "0x8048f125439c7ba9c8c0fe64e17726108c72a9f38ae9c98656d40ade8223a43d",
          "transactionIndex": "0x60",
          "logIndex": "0x519",
          "removed": false
        },
        {
          "address": "0x0000000000000000000000000000000000001010",
          "topics": [
            "0x4dfe1bbbcf077ddc3e01291eea2d5c70c2b422b415d95645b9adcfd678cb1d63",
            "0x0000000000000000000000000000000000000000000000000000000000001010",
            "0x000000000000000000000000b68ce80bb9ad1dbbd0e8c6c9efb982763b765f48",
            "0x0000000000000000000000007ee41d8a25641000661b1ef5e6ae8a00400466b0"
          ],
          "data": "0x0000000000000000000000000000000000000000000000000024a0f6123d748000000000000000000000000000000000000000000000001ea14ec805191002bd000000000000000000000000000000000000000000133a942eccd0a4afb479c800000000000000000000000000000000000000000000001ea12a270f06d28e3d000000000000000000000000000000000000000000133a942ef1719ac1f1ee48",
          "blockHash": "0xb6c3595fccae19d7887ff943ae122ab4b2a384d20aa3f89912baecbcdd188d15",
          "blockNumber": "0x540fc4e",
          "blockTimestamp": "0x6a26b84e",
          "transactionHash": "0x8048f125439c7ba9c8c0fe64e17726108c72a9f38ae9c98656d40ade8223a43d",
          "transactionIndex": "0x60",
          "logIndex": "0x51a",
          "removed": false
        }
      ],
      "logsBloom": "0x00400000000000000000000000000000100000000000000000000000000000000000000000000000000000000000800000008000000000000000000000000000000000000000000000000000000000880000000040000000000100000000000000000000020000000000000000000800000000000000000080000000000400000000000000000000020000000400000000000000000000000000008000000000200000000000000000000000000000000000000000000000000000000000004000000000000000000001000000000000000000400000000000100000000020000000000000000000000000000000000040000000020000000000000000100000",
      "transactionHash": "0x8048f125439c7ba9c8c0fe64e17726108c72a9f38ae9c98656d40ade8223a43d",
      "transactionIndex": "0x60",
      "blockHash": "0xb6c3595fccae19d7887ff943ae122ab4b2a384d20aa3f89912baecbcdd188d15",
      "blockNumber": "0x540fc4e",
      "gasUsed": "0x11fdf",
      "effectiveGasPrice": "0x5b1bcc2d35",
      "from": "0xb68ce80bb9ad1dbbd0e8c6c9efb982763b765f48",
      "to": "0xf665b481280a984c15600bd39b37ca6b352cd153",
      "contractAddress": null
    },
    {
      "type": "0x2",
      "status": "0x1",
      "cumulativeGasUsed": "0x26f54a9",
      "logs": [
        {
          "address": "0xf665b481280a984c15600bd39b37ca6b352cd153",
          "topics": [
            "0xc466fe7ec25807cb9ca5e4b045c2cdc107cf8b58f9989f1994794ff6c55f4312",
            "0x0000000000000000000000000000000000000000000000000000000000000001"
          ],
          "data": "0x000000000000000000000000655d5b6b830170c8731578751bb2b3de157020f9",
          "blockHash": "0xb6c3595fccae19d7887ff943ae122ab4b2a384d20aa3f89912baecbcdd188d15",
          "blockNumber": "0x540fc4e",
          "blockTimestamp": "0x6a26b84e",
          "transactionHash": "0x60bd7ae358d452286cafa6d725e4cbe94f85b41269b101472be6d7fb67209bde",
          "transactionIndex": "0x61",
          "logIndex": "0x51b",
          "removed": false
        },
        {
          "address": "0x0000000000000000000000000000000000001010",
          "topics": [
            "0x4dfe1bbbcf077ddc3e01291eea2d5c70c2b422b415d95645b9adcfd678cb1d63",
            "0x0000000000000000000000000000000000000000000000000000000000001010",
            "0x000000000000000000000000b68ce80bb9ad1dbbd0e8c6c9efb982763b765f48",
            "0x0000000000000000000000007ee41d8a25641000661b1ef5e6ae8a00400466b0"
          ],
          "data": "0x0000000000000000000000000000000000000000000000000024a27cf3f2be8000000000000000000000000000000000000000000000001ea0e8547dfb863692000000000000000000000000000000000000000000133a942ef1719ac1f1ee4800000000000000000000000000000000000000000000001ea0c3b20107937812000000000000000000000000000000000000000000133a942f161417b5e4acc8",
          "blockHash": "0xb6c3595fccae19d7887ff943ae122ab4b2a384d20aa3f89912baecbcdd188d15",
          "blockNumber": "0x540fc4e",
          "blockTimestamp": "0x6a26b84e",
          "transactionHash": "0x60bd7ae358d452286cafa6d725e4cbe94f85b41269b101472be6d7fb67209bde",
          "transactionIndex": "0x61",
          "logIndex": "0x51c",
          "removed": false
        }
      ],
      "logsBloom": "0x00400000000000000000000000000000100000000000000000000000000000000000000000000000000000000000800000008000000000000000000000040000000000000000000000000000000000880000000040040000000100000000000000000000000000000000000000000000000000000000000080000000000400000000000000000000020000000400000000000000000000000000008000000000200000000000000000000000000000000000000000000000000000000000004000000000000000000001000000000000000000400000000000100000000040000000000000000000000000000000000040000000020000000000000000100000",
      "transactionHash": "0x60bd7ae358d452286cafa6d725e4cbe94f85b41269b101472be6d7fb67209bde",
      "transactionIndex": "0x61",
      "blockHash": "0xb6c3595fccae19d7887ff943ae122ab4b2a384d20aa3f89912baecbcdd188d15",
      "blockNumber": "0x540fc4e",
      "gasUsed": "0x11feb",
      "effectiveGasPrice": "0x5b1bcc2d35",
      "from": "0xb68ce80bb9ad1dbbd0e8c6c9efb982763b765f48",
      "to": "0xf665b481280a984c15600bd39b37ca6b352cd153",
      "contractAddress": null
    },
    {
      "type": "0x2",
      "status": "0x1",
      "cumulativeGasUsed": "0x2707494",
      "logs": [
        {
          "address": "0xf665b481280a984c15600bd39b37ca6b352cd153",
          "topics": [
            "0xc466fe7ec25807cb9ca5e4b045c2cdc107cf8b58f9989f1994794ff6c55f4312",
            "0x0000000000000000000000000000000000000000000000000000000000000002"
          ],
          "data": "0x000000000000000000000000d1133599055fcdd41f72ba60247c2aae85e36b6e",
          "blockHash": "0xb6c3595fccae19d7887ff943ae122ab4b2a384d20aa3f89912baecbcdd188d15",
          "blockNumber": "0x540fc4e",
          "blockTimestamp": "0x6a26b84e",
          "transactionHash": "0xe428f622716c2fcba6f42f4602cc8a7e9ff0e2b9dd133cade251beb00b23b259",
          "transactionIndex": "0x62",
          "logIndex": "0x51d",
          "removed": false
        },
        {
          "address": "0x0000000000000000000000000000000000001010",
          "topics": [
            "0x4dfe1bbbcf077ddc3e01291eea2d5c70c2b422b415d95645b9adcfd678cb1d63",
            "0x0000000000000000000000000000000000000000000000000000000000001010",
            "0x000000000000000000000000b68ce80bb9ad1dbbd0e8c6c9efb982763b765f48",
            "0x0000000000000000000000007ee41d8a25641000661b1ef5e6ae8a00400466b0"
          ],
          "data": "0x0000000000000000000000000000000000000000000000000024a27cf3f2be8000000000000000000000000000000000000000000000001ea081dcb1906a4beb000000000000000000000000000000000000000000133a942f161417b5e4acc800000000000000000000000000000000000000000000001ea05d3a349c778d6b000000000000000000000000000000000000000000133a942f3ab694a9d76b48",
          "blockHash": "0xb6c3595fccae19d7887ff943ae122ab4b2a384d20aa3f89912baecbcdd188d15",
          "blockNumber": "0x540fc4e",
          "blockTimestamp": "0x6a26b84e",
          "transactionHash": "0xe428f622716c2fcba6f42f4602cc8a7e9ff0e2b9dd133cade251beb00b23b259",
          "transactionIndex": "0x62",
          "logIndex": "0x51e",
          "removed": false
        }
      ],
      "logsBloom": "0x04400000000000000000000000000000100000000000000000000000000000000000000000000000000000000000800000008000000000000000000000000000000000000000000000000000000000880000000040000000000100000000000000000000000000000000000000000000000000000000000080000000000400000000000000000000020000000400000000000000000000000000008000000000200000000000000000000100000000000000000000000000000000000000004000000000000000000001000000000000000000400000000000100000000000000000000000000000000000000000000040000000028000000000000000100000",
      "transactionHash": "0xe428f622716c2fcba6f42f4602cc8a7e9ff0e2b9dd133cade251beb00b23b259",
      "transactionIndex": "0x62",
      "blockHash": "0xb6c3595fccae19d7887ff943ae122ab4b2a384d20aa3f89912baecbcdd188d15",
      "blockNumber": "0x540fc4e",
      "gasUsed": "0x11feb",
      "effectiveGasPrice": "0x5b1bcc2d35",
      "from": "0xb68ce80bb9ad1dbbd0e8c6c9efb982763b765f48",
      "to": "0xf665b481280a984c15600bd39b37ca6b352cd153",
      "contractAddress": null
    },
    {
      "type": "0x2",
      "status": "0x1",
      "cumulativeGasUsed": "0x271947f",
      "logs": [
        {
          "address": "0xf665b481280a984c15600bd39b37ca6b352cd153",
          "topics": [
            "0xc466fe7ec25807cb9ca5e4b045c2cdc107cf8b58f9989f1994794ff6c55f4312",
            "0x0000000000000000000000000000000000000000000000000000000000000003"
          ],
          "data": "0x000000000000000000000000c2d329ec20a7e913c837c02cdeacea9d9475cf7a",
          "blockHash": "0xb6c3595fccae19d7887ff943ae122ab4b2a384d20aa3f89912baecbcdd188d15",
          "blockNumber": "0x540fc4e",
          "blockTimestamp": "0x6a26b84e",
          "transactionHash": "0xbf74f968e9f30380e34b30cbf2ca7fe88fc1c2a1e12927d10d82eb93d12ab7c7",
          "transactionIndex": "0x63",
          "logIndex": "0x51f",
          "removed": false
        },
        {
          "address": "0x0000000000000000000000000000000000001010",
          "topics": [
            "0x4dfe1bbbcf077ddc3e01291eea2d5c70c2b422b415d95645b9adcfd678cb1d63",
            "0x0000000000000000000000000000000000000000000000000000000000001010",
            "0x000000000000000000000000b68ce80bb9ad1dbbd0e8c6c9efb982763b765f48",
            "0x0000000000000000000000007ee41d8a25641000661b1ef5e6ae8a00400466b0"
          ],
          "data": "0x0000000000000000000000000000000000000000000000000024a27cf3f2be8000000000000000000000000000000000000000000000001ea01b64e5254e6144000000000000000000000000000000000000000000133a942f3ab694a9d76b4800000000000000000000000000000000000000000000001e9ff6c268315ba2c4000000000000000000000000000000000000000000133a942f5f59119dca29c8",
          "blockHash": "0xb6c3595fccae19d7887ff943ae122ab4b2a384d20aa3f89912baecbcdd188d15",
          "blockNumber": "0x540fc4e",
          "blockTimestamp": "0x6a26b84e",
          "transactionHash": "0xbf74f968e9f30380e34b30cbf2ca7fe88fc1c2a1e12927d10d82eb93d12ab7c7",
          "transactionIndex": "0x63",
          "logIndex": "0x520",
          "removed": false
        }
      ],
      "logsBloom": "0x00400000000000000000000000000000100000000000000000000000000000000000000000000000000000000000800000008000020000000000000000000000000000000000000000000000000000880000000040000000000100000000000000000000000000000000000000000000000000000000000080000000000400000000000000000000020000000400000000000000000000000000008000000000200000000000000000000000000000000000000000800000000000000000404000000000000000000001000000000000000000400000000000100000000000000000000000000000000000000000000040000000020000000000000000100000",
      "transactionHash": "0xbf74f968e9f30380e34b30cbf2ca7fe88fc1c2a1e12927d10d82eb93d12ab7c7",
      "transactionIndex": "0x63",
      "blockHash": "0xb6c3595fccae19d7887ff943ae122ab4b2a384d20aa3f89912baecbcdd188d15",
      "blockNumber": "0x540fc4e",
      "gasUsed": "0x11feb",
      "effectiveGasPrice": "0x5b1bcc2d35",
      "from": "0xb68ce80bb9ad1dbbd0e8c6c9efb982763b765f48",
      "to": "0xf665b481280a984c15600bd39b37ca6b352cd153",
      "contractAddress": null
    },
    {
      "type": "0x2",
      "status": "0x1",
      "cumulativeGasUsed": "0x1e8d855",
      "logs": [
        {
          "address": "0xf665b481280a984c15600bd39b37ca6b352cd153",
          "topics": [
            "0xc466fe7ec25807cb9ca5e4b045c2cdc107cf8b58f9989f1994794ff6c55f4312",
            "0x0000000000000000000000000000000000000000000000000000000000000004"
          ],
          "data": "0x000000000000000000000000111864bb0473d52bbea6062e92a983b8d2b57dad",
          "blockHash": "0x594478af61556c5247ae1453d5794cc448c315fc35bc57f0393ce4038da7aebf",
          "blockNumber": "0x540fc4f",
          "blockTimestamp": "0x6a26b850",
          "transactionHash": "0x8138681f9edc7e054e49352d847016366a4c5e14b9faae4b03a90d93e1b6eef2",
          "transactionIndex": "0x54",
          "logIndex": "0x3bd",
          "removed": false
        },
        {
          "address": "0x0000000000000000000000000000000000001010",
          "topics": [
            "0x4dfe1bbbcf077ddc3e01291eea2d5c70c2b422b415d95645b9adcfd678cb1d63",
            "0x0000000000000000000000000000000000000000000000000000000000001010",
            "0x000000000000000000000000b68ce80bb9ad1dbbd0e8c6c9efb982763b765f48",
            "0x0000000000000000000000007ee41d8a25641000661b1ef5e6ae8a00400466b0"
          ],
          "data": "0x0000000000000000000000000000000000000000000000000024a27cf3f2be8000000000000000000000000000000000000000000000001e9fb4ed18ba32769d000000000000000000000000000000000000000000133a949f76264b224473e500000000000000000000000000000000000000000000001e9f904a9bc63fb81d000000000000000000000000000000000000000000133a949f9ac8c816373265",
          "blockHash": "0x594478af61556c5247ae1453d5794cc448c315fc35bc57f0393ce4038da7aebf",
          "blockNumber": "0x540fc4f",
          "blockTimestamp": "0x6a26b850",
          "transactionHash": "0x8138681f9edc7e054e49352d847016366a4c5e14b9faae4b03a90d93e1b6eef2",
          "transactionIndex": "0x54",
          "logIndex": "0x3be",
          "removed": false
        }
      ],
      "logsBloom": "0x00400000000000000000000000000000100000000000000000000000000000000000000000000000000000000000800000008000000000000000000000000000000000000000000000000000000000880000000040000000000100000000000008000000000000000000000000000000000000000000000080000000000400000000000000000000020000000400000000000000000000000000008000000000200000000000000000000000000000000000000000000000002000000000004000000000000000000001000000000000000000408000000000100000000000000000000000000000000000000000000040000000020000000000000000100000",
      "transactionHash": "0x8138681f9edc7e054e49352d847016366a4c5e14b9faae4b03a90d93e1b6eef2",
      "transactionIndex": "0x54",
      "blockHash": "0x594478af61556c5247ae1453d5794cc448c315fc35bc57f0393ce4038da7aebf",
      "blockNumber": "0x540fc4f",
      "gasUsed": "0x11feb",
      "effectiveGasPrice": "0x5a9d791706",
      "from": "0xb68ce80bb9ad1dbbd0e8c6c9efb982763b765f48",
      "to": "0xf665b481280a984c15600bd39b37ca6b352cd153",
      "contractAddress": null
    },
    {
      "type": "0x2",
      "status": "0x1",
      "cumulativeGasUsed": "0x1e9f840",
      "logs": [
        {
          "address": "0xf665b481280a984c15600bd39b37ca6b352cd153",
          "topics": [
            "0xc466fe7ec25807cb9ca5e4b045c2cdc107cf8b58f9989f1994794ff6c55f4312",
            "0x0000000000000000000000000000000000000000000000000000000000000005"
          ],
          "data": "0x000000000000000000000000aa3c84a1d77d1645c5667d2a50074b9c14360913",
          "blockHash": "0x594478af61556c5247ae1453d5794cc448c315fc35bc57f0393ce4038da7aebf",
          "blockNumber": "0x540fc4f",
          "blockTimestamp": "0x6a26b850",
          "transactionHash": "0x0f1bc1f2d670373eb19c9fa5fcb682c2c261d18cbc364dc6ba6aff825ddcba7d",
          "transactionIndex": "0x55",
          "logIndex": "0x3bf",
          "removed": false
        },
        {
          "address": "0x0000000000000000000000000000000000001010",
          "topics": [
            "0x4dfe1bbbcf077ddc3e01291eea2d5c70c2b422b415d95645b9adcfd678cb1d63",
            "0x0000000000000000000000000000000000000000000000000000000000001010",
            "0x000000000000000000000000b68ce80bb9ad1dbbd0e8c6c9efb982763b765f48",
            "0x0000000000000000000000007ee41d8a25641000661b1ef5e6ae8a00400466b0"
          ],
          "data": "0x0000000000000000000000000000000000000000000000000024a27cf3f2be8000000000000000000000000000000000000000000000001e9f4f035f6b3a9a1b000000000000000000000000000000000000000000133a949f9ac8c81637326500000000000000000000000000000000000000000000001e9f2a60e27747db9b000000000000000000000000000000000000000000133a949fbf6b450a29f0e5",
          "blockHash": "0x594478af61556c5247ae1453d5794cc448c315fc35bc57f0393ce4038da7aebf",
          "blockNumber": "0x540fc4f",
          "blockTimestamp": "0x6a26b850",
          "transactionHash": "0x0f1bc1f2d670373eb19c9fa5fcb682c2c261d18cbc364dc6ba6aff825ddcba7d",
          "transactionIndex": "0x55",
          "logIndex": "0x3c0",
          "removed": false
        }
      ],
      "logsBloom": "0x00400000000000000000000000000000100000000000000000000000000000000000000000000000000000000000800000008000000000000000000000000000000010000000000000000000000000880000000040000000000100000000000000000000000000000000000000000000000000000000000080000000000400000000000000000000020000000400001000000800000000000000008000000000200000000000000000000000000000000000000000000000000000000000004000000000000000000001000000000000000000400000000000100000000000000000000000000000000000000000000040000000020000000000000000100000",
      "transactionHash": "0x0f1bc1f2d670373eb19c9fa5fcb682c2c261d18cbc364dc6ba6aff825ddcba7d",
      "transactionIndex": "0x55",
      "blockHash": "0x594478af61556c5247ae1453d5794cc448c315fc35bc57f0393ce4038da7aebf",
      "blockNumber": "0x540fc4f",
      "gasUsed": "0x11feb",
      "effectiveGasPrice": "0x5a9d791706",
      "from": "0xb68ce80bb9ad1dbbd0e8c6c9efb982763b765f48",
      "to": "0xf665b481280a984c15600bd39b37ca6b352cd153",
      "contractAddress": null
    },
    {
      "type": "0x2",
      "status": "0x1",
      "cumulativeGasUsed": "0x1eb182b",
      "logs": [
        {
          "address": "0xf665b481280a984c15600bd39b37ca6b352cd153",
          "topics": [
            "0xc466fe7ec25807cb9ca5e4b045c2cdc107cf8b58f9989f1994794ff6c55f4312",
            "0x0000000000000000000000000000000000000000000000000000000000000006"
          ],
          "data": "0x000000000000000000000000c4f9ddb4d316a441c7306b060b0cbe5eb23180bb",
          "blockHash": "0x594478af61556c5247ae1453d5794cc448c315fc35bc57f0393ce4038da7aebf",
          "blockNumber": "0x540fc4f",
          "blockTimestamp": "0x6a26b850",
          "transactionHash": "0x9a51a19d07cdb090096c82b617a9c6dfa106c77adee480fdd9dd184964a400dd",
          "transactionIndex": "0x56",
          "logIndex": "0x3c1",
          "removed": false
        },
        {
          "address": "0x0000000000000000000000000000000000001010",
          "topics": [
            "0x4dfe1bbbcf077ddc3e01291eea2d5c70c2b422b415d95645b9adcfd678cb1d63",
            "0x0000000000000000000000000000000000000000000000000000000000001010",
            "0x000000000000000000000000b68ce80bb9ad1dbbd0e8c6c9efb982763b765f48",
            "0x0000000000000000000000007ee41d8a25641000661b1ef5e6ae8a00400466b0"
          ],
          "data": "0x0000000000000000000000000000000000000000000000000024a27cf3f2be8000000000000000000000000000000000000000000000001e9ee919a61c42bd99000000000000000000000000000000000000000000133a949fbf6b450a29f0e500000000000000000000000000000000000000000000001e9ec47729284fff19000000000000000000000000000000000000000000133a949fe40dc1fe1caf65",
          "blockHash": "0x594478af61556c5247ae1453d5794cc448c315fc35bc57f0393ce4038da7aebf",
          "blockNumber": "0x540fc4f",
          "blockTimestamp": "0x6a26b850",
          "transactionHash": "0x9a51a19d07cdb090096c82b617a9c6dfa106c77adee480fdd9dd184964a400dd",
          "transactionIndex": "0x56",
          "logIndex": "0x3c2",
          "removed": false
        }
      ],
      "logsBloom": "0x00400000000000000000000000000000100000000000000000000000000000000000000000000000000000000000800000008000000400000000000000000000000000000000000000000000000000880000000040000000000100000000000000000000000000000000000000000000000000000000000080000000000400000000000400000000020000000400000000000000000000000000008000000000200000000000000000000000000000000000000000000000000000080000004000000000000000000001000000000000000000400000000000100000000000000000000000000000000000000000000040000000020000000000000000100000",
      "transactionHash": "0x9a51a19d07cdb090096c82b617a9c6dfa106c77adee480fdd9dd184964a400dd",
      "transactionIndex": "0x56",
      "blockHash": "0x594478af61556c5247ae1453d5794cc448c315fc35bc57f0393ce4038da7aebf",
      "blockNumber": "0x540fc4f",
      "gasUsed": "0x11feb",
      "effectiveGasPrice": "0x5a9d791706",
      "from": "0xb68ce80bb9ad1dbbd0e8c6c9efb982763b765f48",
      "to": "0xf665b481280a984c15600bd39b37ca6b352cd153",
      "contractAddress": null
    },
    {
      "type": "0x2",
      "status": "0x1",
      "cumulativeGasUsed": "0x1ec3816",
      "logs": [
        {
          "address": "0xf665b481280a984c15600bd39b37ca6b352cd153",
          "topics": [
            "0xc466fe7ec25807cb9ca5e4b045c2cdc107cf8b58f9989f1994794ff6c55f4312",
            "0x0000000000000000000000000000000000000000000000000000000000000007"
          ],
          "data": "0x000000000000000000000000631f97ca6c83d7a1b519d3de7d3c321d82819b32",
          "blockHash": "0x594478af61556c5247ae1453d5794cc448c315fc35bc57f0393ce4038da7aebf",
          "blockNumber": "0x540fc4f",
          "blockTimestamp": "0x6a26b850",
          "transactionHash": "0x8d6ea5cead08c76ada4694048e343f4d97a887b0529f4e64f72282fd66338453",
          "transactionIndex": "0x57",
          "logIndex": "0x3c3",
          "removed": false
        },
        {
          "address": "0x0000000000000000000000000000000000001010",
          "topics": [
            "0x4dfe1bbbcf077ddc3e01291eea2d5c70c2b422b415d95645b9adcfd678cb1d63",
            "0x0000000000000000000000000000000000000000000000000000000000001010",
            "0x000000000000000000000000b68ce80bb9ad1dbbd0e8c6c9efb982763b765f48",
            "0x0000000000000000000000007ee41d8a25641000661b1ef5e6ae8a00400466b0"
          ],
          "data": "0x0000000000000000000000000000000000000000000000000024a27cf3f2be8000000000000000000000000000000000000000000000001e9e832feccd4ae117000000000000000000000000000000000000000000133a949fe40dc1fe1caf6500000000000000000000000000000000000000000000001e9e5e8d6fd9582297000000000000000000000000000000000000000000133a94a008b03ef20f6de5",
          "blockHash": "0x594478af61556c5247ae1453d5794cc448c315fc35bc57f0393ce4038da7aebf",
          "blockNumber": "0x540fc4f",
          "blockTimestamp": "0x6a26b850",
          "transactionHash": "0x8d6ea5cead08c76ada4694048e343f4d97a887b0529f4e64f72282fd66338453",
          "transactionIndex": "0x57",
          "logIndex": "0x3c4",
          "removed": false
        }
      ],
      "logsBloom": "0x00400000000000000000000000000000100000000000000000000000000000000000000000000000000000000000800000009000000000000000000000000000000020000000000000000000000000880000000040000000000100000000000000000000000000000000000000000000000000000000000080000000000400000000000000000000020000000400000000000000000000000000008000000000200000000000000000000000000000000000000000000000000000000000004000000000000000000001000000000000000000400000000000100100000000000000000000000000000000000000000040000000020000000000000000100000",
      "transactionHash": "0x8d6ea5cead08c76ada4694048e343f4d97a887b0529f4e64f72282fd66338453",
      "transactionIndex": "0x57",
      "blockHash": "0x594478af61556c5247ae1453d5794cc448c315fc35bc57f0393ce4038da7aebf",
      "blockNumber": "0x540fc4f",
      "gasUsed": "0x11feb",
      "effectiveGasPrice": "0x5a9d791706",
      "from": "0xb68ce80bb9ad1dbbd0e8c6c9efb982763b765f48",
      "to": "0xf665b481280a984c15600bd39b37ca6b352cd153",
      "contractAddress": null
    },
    {
      "type": "0x2",
      "status": "0x1",
      "cumulativeGasUsed": "0x2d4edf2",
      "logs": [
        {
          "address": "0xf665b481280a984c15600bd39b37ca6b352cd153",
          "topics": [
            "0xc466fe7ec25807cb9ca5e4b045c2cdc107cf8b58f9989f1994794ff6c55f4312",
            "0x0000000000000000000000000000000000000000000000000000000000000008"
          ],
          "data": "0x000000000000000000000000e0f0475f8ca35f829b76b0422fda03a10a1dc179",
          "blockHash": "0x7e4a288a2749dc8e8f214e82115873300fc41b1afae593f2d79b353f7f8c8c2f",
          "blockNumber": "0x540fc50",
          "blockTimestamp": "0x6a26b851",
          "transactionHash": "0xd6e57189e2d4438ff84067bd7b009ac1a5775d29b8b11939fb55ddbb3d220447",
          "transactionIndex": "0x6a",
          "logIndex": "0x55c",
          "removed": false
        },
        {
          "address": "0x0000000000000000000000000000000000001010",
          "topics": [
            "0x4dfe1bbbcf077ddc3e01291eea2d5c70c2b422b415d95645b9adcfd678cb1d63",
            "0x0000000000000000000000000000000000000000000000000000000000001010",
            "0x000000000000000000000000b68ce80bb9ad1dbbd0e8c6c9efb982763b765f48",
            "0x0000000000000000000000007ee41d8a25641000661b1ef5e6ae8a00400466b0"
          ],
          "data": "0x0000000000000000000000000000000000000000000000000024a27cf3f2be8000000000000000000000000000000000000000000000001e9e1d46337e530495000000000000000000000000000000000000000000133a952b7b64b12fc32abb00000000000000000000000000000000000000000000001e9df8a3b68a604615000000000000000000000000000000000000000000133a952ba0072e23b5e93b",
          "blockHash": "0x7e4a288a2749dc8e8f214e82115873300fc41b1afae593f2d79b353f7f8c8c2f",
          "blockNumber": "0x540fc50",
          "blockTimestamp": "0x6a26b851",
          "transactionHash": "0xd6e57189e2d4438ff84067bd7b009ac1a5775d29b8b11939fb55ddbb3d220447",
          "transactionIndex": "0x6a",
          "logIndex": "0x55d",
          "removed": false
        }
      ],
      "logsBloom": "0x00400000000000000000000000000000100000000000000000000000000000000000000000000000000000000000800000008000000080000000000000000000000000000000000000000000000000880000000040000000000100000000000000000000000000000000000000000000000000000000000080000000000400000080000000000000020000000400000000000000000000000000008000000000200000000000000000000000000000000000000000000000000000000000004040000000000000000001000000000000000000400000000000100000000000000000000000000000000000000000000040000000020000000000000000100000",
      "transactionHash": "0xd6e57189e2d4438ff84067bd7b009ac1a5775d29b8b11939fb55ddbb3d220447",
      "transactionIndex": "0x6a",
      "blockHash": "0x7e4a288a2749dc8e8f214e82115873300fc41b1afae593f2d79b353f7f8c8c2f",
      "blockNumber": "0x540fc50",
      "gasUsed": "0x11feb",
      "effectiveGasPrice": "0x5b404af712",
      "from": "0xb68ce80bb9ad1dbbd0e8c6c9efb982763b765f48",
      "to": "0xf665b481280a984c15600bd39b37ca6b352cd153",
      "contractAddress": null
    }
  ],
  "libraries": [],
  "pending": [],
  "returns": {},
  "timestamp": 1780922450462,
  "chain": 137,
  "commit": "9738bca"
}