{
  "transactions": [
    {
      "hash": "0x6f618cefcd348882731d30033de3b3bbb80b12d1959cc3b3ee175afe6e62f8b6",
      "transactionType": "CALL",
      "contractName": null,
      "contractAddress": "0x8a791620dd6260079bf849dc5567adc3f2fdc318",
      "function": "acceptVerifier(uint8)",
      "arguments": [
        "0"
      ],
      "transaction": {
        "from": "0xf39fd6e51aad88f6f4ce6ab8827279cfffb92266",
        "to": "0x8a791620dd6260079bf849dc5567adc3f2fdc318",
        "gas": "0x13318",
        "value": "0x0",
        "input": "0xa63d99630000000000000000000000000000000000000000000000000000000000000000",
        "nonce": "0x26",
        "chainId": "0x7a69"
      },
      "additionalContracts": [],
      "isFixedGasLimit": false
    },
    {
      "hash": "0xad01811789609387871ed8085877158dbc8d2fbd7cf4cbc81d34b3f9c1d0a110",
      "transactionType": "CALL",
      "contractName": null,
      "contractAddress": "0x8a791620dd6260079bf849dc5567adc3f2fdc318",
      "function": "acceptVerifier(uint8)",
      "arguments": [
        "1"
      ],
      "transaction": {
        "from": "0xf39fd6e51aad88f6f4ce6ab8827279cfffb92266",
        "to": "0x8a791620dd6260079bf849dc5567adc3f2fdc318",
        "gas": "0x1453a",
        "value": "0x0",
        "input": "0xa63d99630000000000000000000000000000000000000000000000000000000000000001",
        "nonce": "0x27",
        "chainId": "0x7a69"
      },
      "additionalContracts": [],
      "isFixedGasLimit": false
    },
    {
      "hash": "0xd84d7b6e666e9ba32857c7e9adda8caa7dcb3b28434d9f01b27a8071ae272f55",
      "transactionType": "CALL",
      "contractName": null,
      "contractAddress": "0x8a791620dd6260079bf849dc5567adc3f2fdc318",
      "function": "acceptVerifier(uint8)",
      "arguments": [
        "2"
      ],
      "transaction": {
        "from": "0xf39fd6e51aad88f6f4ce6ab8827279cfffb92266",
        "to": "0x8a791620dd6260079bf849dc5567adc3f2fdc318",
        "gas": "0x1453a",
        "value": "0x0",
        "input": "0xa63d99630000000000000000000000000000000000000000000000000000000000000002",
        "nonce": "0x28",
        "chainId": "0x7a69"
      },
      "additionalContracts": [],
      "isFixedGasLimit": false
    },
    {
      "hash": "0x046a976294a9f27e432fee08befe1a124cd621e168c3d13ffd919b91bc3598d8",
      "transactionType": "CALL",
      "contractName": null,
      "contractAddress": "0x8a791620dd6260079bf849dc5567adc3f2fdc318",
      "function": "acceptVerifier(uint8)",
      "arguments": [
        "3"
      ],
      "transaction": {
        "from": "0xf39fd6e51aad88f6f4ce6ab8827279cfffb92266",
        "to": "0x8a791620dd6260079bf849dc5567adc3f2fdc318",
        "gas": "0x1453a",
        "value": "0x0",
        "input": "0xa63d99630000000000000000000000000000000000000000000000000000000000000003",
        "nonce": "0x29",
        "chainId": "0x7a69"
      },
      "additionalContracts": [],
      "isFixedGasLimit": false
    },
    {
      "hash": "0xe3d8a8fd19771f5d514a92ecf1f72a0fbf6281e4b8ca768578296c4d48614799",
      "transactionType": "CALL",
      "contractName": null,
      "contractAddress": "0x8a791620dd6260079bf849dc5567adc3f2fdc318",
      "function": "acceptVerifier(uint8)",
      "arguments": [
        "4"
      ],
      "transaction": {
        "from": "0xf39fd6e51aad88f6f4ce6ab8827279cfffb92266",
        "to": "0x8a791620dd6260079bf849dc5567adc3f2fdc318",
        "gas": "0x1453a",
        "value": "0x0",
        "input": "0xa63d99630000000000000000000000000000000000000000000000000000000000000004",
        "nonce": "0x2a",
        "chainId": "0x7a69"
      },
      "additionalContracts": [],
      "isFixedGasLimit": false
    },
    {
      "hash": "0xfb5f08ae3a54a092b06085ca7e5ab3bde7faed3706f265115ffe5b44e074e155",
      "transactionType": "CALL",
      "contractName": null,
      "contractAddress": "0x8a791620dd6260079bf849dc5567adc3f2fdc318",
      "function": "acceptVerifier(uint8)",
      "arguments": [
        "5"
      ],
      "transaction": {
        "from": "0xf39fd6e51aad88f6f4ce6ab8827279cfffb92266",
        "to": "0x8a791620dd6260079bf849dc5567adc3f2fdc318",
        "gas": "0x1453a",
        "value": "0x0",
        "input": "0xa63d99630000000000000000000000000000000000000000000000000000000000000005",
        "nonce": "0x2b",
        "chainId": "0x7a69"
      },
      "additionalContracts": [],
      "isFixedGasLimit": false
    },
    {
      "hash": "0x2e86d2117cc1bfee5ef56ffbb05feec97e0401040cc80b339f3f43d88c408695",
      "transactionType": "CALL",
      "contractName": null,
      "contractAddress": "0x8a791620dd6260079bf849dc5567adc3f2fdc318",
      "function": "acceptVerifier(uint8)",
      "arguments": [
        "6"
      ],
      "transaction": {
        "from": "0xf39fd6e51aad88f6f4ce6ab8827279cfffb92266",
        "to": "0x8a791620dd6260079bf849dc5567adc3f2fdc318",
        "gas": "0x1453a",
        "value": "0x0",
        "input": "0xa63d99630000000000000000000000000000000000000000000000000000000000000006",
        "nonce": "0x2c",
        "chainId": "0x7a69"
      },
      "additionalContracts": [],
      "isFixedGasLimit": false
    },
    {
      "hash": "0x40210ef30b9f51bd543f2a61a728fc170603cfc86017373c271527fb0f50a3d7",
      "transactionType": "CALL",
      "contractName": null,
      "contractAddress": "0x8a791620dd6260079bf849dc5567adc3f2fdc318",
      "function": "acceptVerifier(uint8)",
      "arguments": [
        "7"
      ],
      "transaction": {
        "from": "0xf39fd6e51aad88f6f4ce6ab8827279cfffb92266",
        "to": "0x8a791620dd6260079bf849dc5567adc3f2fdc318",
        "gas": "0x1453a",
        "value": "0x0",
        "input": "0xa63d99630000000000000000000000000000000000000000000000000000000000000007",
        "nonce": "0x2d",
        "chainId": "0x7a69"
      },
      "additionalContracts": [],
      "isFixedGasLimit": false
    },
    {
      "hash": "0x8e688f07559b96e46e9323c6813da9929fca16e254e49a77dfe64b13dde583b9",
      "transactionType": "CALL",
      "contractName": null,
      "contractAddress": "0x8a791620dd6260079bf849dc5567adc3f2fdc318",
      "function": "acceptVerifier(uint8)",
      "arguments": [
        "8"
      ],
      "transaction": {
        "from": "0xf39fd6e51aad88f6f4ce6ab8827279cfffb92266",
        "to": "0x8a791620dd6260079bf849dc5567adc3f2fdc318",
        "gas": "0x1453a",
        "value": "0x0",
        "input": "0xa63d99630000000000000000000000000000000000000000000000000000000000000008",
        "nonce": "0x2e",
        "chainId": "0x7a69"
      },
      "additionalContracts": [],
      "isFixedGasLimit": false
    }
  ],
  "receipts": [
    {
      "type": "0x2",
      "status": "0x1",
      "cumulativeGasUsed": "0xde55",
      "logs": [
        {
          "address": "0x8a791620dd6260079bf849dc5567adc3f2fdc318",
          "topics": [
            "0xc466fe7ec25807cb9ca5e4b045c2cdc107cf8b58f9989f1994794ff6c55f4312",
            "0x0000000000000000000000000000000000000000000000000000000000000000"
          ],
          "data": "0x000000000000000000000000a51c1fc2f0d1a1b8494ed1fe312d7c3a78ed91c0",
          "blockHash": "0xd88adcb6dbab05f852ae31a79b63fa52bf0e6c2a9196645674cfa2a4b3bf4552",
          "blockNumber": "0xd",
          "blockTimestamp": "0x6a27abbd",
          "transactionHash": "0x6f618cefcd348882731d30033de3b3bbb80b12d1959cc3b3ee175afe6e62f8b6",
          "transactionIndex": "0x0",
          "logIndex": "0x0",
          "removed": false
        }
      ],
      "logsBloom": "0x00000000000000000000000000000000100000000000000000000000000000000000000000000000000000000000000000000000000000000000000000000000000000000000000000000000000000080000000040000000000000000000000000000000020000000000000000000800000000000000000000000000000000000000000000000000000000000000000000000000000000000000000000000000002000000000000000000000008000000000000000000000000000000000000000000000000000000000000000000000040000000000000000000000000020000000000000000000000000000000000000000000000000000000000000000000",
      "transactionHash": "0x6f618cefcd348882731d30033de3b3bbb80b12d1959cc3b3ee175afe6e62f8b6",
      "transactionIndex": "0x0",
      "blockHash": "0xd88adcb6dbab05f852ae31a79b63fa52bf0e6c2a9196645674cfa2a4b3bf4552",
      "blockNumber": "0xd",
      "gasUsed": "0xde55",
      "effectiveGasPrice": "0x10519f45",
      "blobGasPrice": "0x1",
      "from": "0xf39fd6e51aad88f6f4ce6ab8827279cfffb92266",
      "to": "0x8a791620dd6260079bf849dc5567adc3f2fdc318",
      "contractAddress": null
    },
    {
      "type": "0x2",
      "status": "0x1",
      "cumulativeGasUsed": "0xde61",
      "logs": [
        {
          "address": "0x8a791620dd6260079bf849dc5567adc3f2fdc318",
          "topics": [
            "0xc466fe7ec25807cb9ca5e4b045c2cdc107cf8b58f9989f1994794ff6c55f4312",
            "0x0000000000000000000000000000000000000000000000000000000000000001"
          ],
          "data": "0x0000000000000000000000009a676e781a523b5d0c0e43731313a708cb607508",
          "blockHash": "0x5b17baa96a610eaf5262bedc0036acce0f3ffe51ae62f7044db0cc44ee838271",
          "blockNumber": "0xe",
          "blockTimestamp": "0x6a27abbd",
          "transactionHash": "0x40210ef30b9f51bd543f2a61a728fc170603cfc86017373c271527fb0f50a3d7",
          "transactionIndex": "0x0",
          "logIndex": "0x0",
          "removed": false
        }
      ],
      "logsBloom": "0x00000000000000000000000000000000100000000000000000000000000000000000000000000000000000000000000000000000000000000000000000040000000000000000000000000000000000080000000040040000000000000000000000000000000000000000000000000000000000000000000000000000000000000000000000000000000000000000000000000000000000000000000000000000002000000000000000000000008000000000000000000000000000000000000000000000000000000000000000000000040000000000000000000000000040000000000000000000000000000000000000000000000000000000000000000000",
      "transactionHash": "0x40210ef30b9f51bd543f2a61a728fc170603cfc86017373c271527fb0f50a3d7",
      "transactionIndex": "0x0",
      "blockHash": "0x5b17baa96a610eaf5262bedc0036acce0f3ffe51ae62f7044db0cc44ee838271",
      "blockNumber": "0xe",
      "gasUsed": "0xde61",
      "effectiveGasPrice": "0xe49669f",
      "blobGasPrice": "0x1",
      "from": "0xf39fd6e51aad88f6f4ce6ab8827279cfffb92266",
      "to": "0x8a791620dd6260079bf849dc5567adc3f2fdc318",
      "contractAddress": null
    },
    {
      "type": "0x2",
      "status": "0x1",
      "cumulativeGasUsed": "0x1bcc2",
      "logs": [
        {
          "address": "0x8a791620dd6260079bf849dc5567adc3f2fdc318",
          "topics": [
            "0xc466fe7ec25807cb9ca5e4b045c2cdc107cf8b58f9989f1994794ff6c55f4312",
            "0x0000000000000000000000000000000000000000000000000000000000000002"
          ],
          "data": "0x000000000000000000000000959922be3caee4b8cd9a407cc3ac1c251c2007b1",
          "blockHash": "0x5b17baa96a610eaf5262bedc0036acce0f3ffe51ae62f7044db0cc44ee838271",
          "blockNumber": "0xe",
          "blockTimestamp": "0x6a27abbd",
          "transactionHash": "0x2e86d2117cc1bfee5ef56ffbb05feec97e0401040cc80b339f3f43d88c408695",
          "transactionIndex": "0x1",
          "logIndex": "0x1",
          "removed": false
        }
      ],
      "logsBloom": "0x04000000000000000000000000000000100000000000000000000000000000000000000000000000000000000000000000000000000000000000000000000000000000000000000000000000000000080000000040000000000000000000000000000000000000000000000000000000000000000000000000000000000000000000000000000000000000000000000000000000000000000000000000000000002000000000000000000100008000000000000000000000000000000000000000000000000000000000000000000000040000000000000000000000000000000000000000000000000000000000000000000000008000000000000000000000",
      "transactionHash": "0x2e86d2117cc1bfee5ef56ffbb05feec97e0401040cc80b339f3f43d88c408695",
      "transactionIndex": "0x1",
      "blockHash": "0x5b17baa96a610eaf5262bedc0036acce0f3ffe51ae62f7044db0cc44ee838271",
      "blockNumber": "0xe",
      "gasUsed": "0xde61",
      "effectiveGasPrice": "0xe49669f",
      "blobGasPrice": "0x1",
      "from": "0xf39fd6e51aad88f6f4ce6ab8827279cfffb92266",
      "to": "0x8a791620dd6260079bf849dc5567adc3f2fdc318",
      "contractAddress": null
    },
    {
      "type": "0x2",
      "status": "0x1",
      "cumulativeGasUsed": "0x29b23",
      "logs": [
        {
          "address": "0x8a791620dd6260079bf849dc5567adc3f2fdc318",
          "topics": [
            "0xc466fe7ec25807cb9ca5e4b045c2cdc107cf8b58f9989f1994794ff6c55f4312",
            "0x0000000000000000000000000000000000000000000000000000000000000003"
          ],
          "data": "0x00000000000000000000000068b1d87f95878fe05b998f19b66f4baba5de1aed",
          "blockHash": "0x5b17baa96a610eaf5262bedc0036acce0f3ffe51ae62f7044db0cc44ee838271",
          "blockNumber": "0xe",
          "blockTimestamp": "0x6a27abbd",
          "transactionHash": "0x046a976294a9f27e432fee08befe1a124cd621e168c3d13ffd919b91bc3598d8",
          "transactionIndex": "0x2",
          "logIndex": "0x2",
          "removed": false
        }
      ],
      "logsBloom": "0x00000000000000000000000000000000100000000000000000000000000000000000000000000000000000000000000000000000020000000000000000000000000000000000000000000000000000080000000040000000000000000000000000000000000000000000000000000000000000000000000000000000000000000000000000000000000000000000000000000000000000000000000000000000002000000000000000000000008000000000000000800000000000000000400000000000000000000000000000000000040000000000000000000000000000000000000000000000000000000000000000000000000000000000000000000000",
      "transactionHash": "0x046a976294a9f27e432fee08befe1a124cd621e168c3d13ffd919b91bc3598d8",
      "transactionIndex": "0x2",
      "blockHash": "0x5b17baa96a610eaf5262bedc0036acce0f3ffe51ae62f7044db0cc44ee838271",
      "blockNumber": "0xe",
      "gasUsed": "0xde61",
      "effectiveGasPrice": "0xe49669f",
      "blobGasPrice": "0x1",
      "from": "0xf39fd6e51aad88f6f4ce6ab8827279cfffb92266",
      "to": "0x8a791620dd6260079bf849dc5567adc3f2fdc318",
      "contractAddress": null
    },
    {
      "type": "0x2",
      "status": "0x1",
      "cumulativeGasUsed": "0x37984",
      "logs": [
        {
          "address": "0x8a791620dd6260079bf849dc5567adc3f2fdc318",
          "topics": [
            "0xc466fe7ec25807cb9ca5e4b045c2cdc107cf8b58f9989f1994794ff6c55f4312",
            "0x0000000000000000000000000000000000000000000000000000000000000004"
          ],
          "data": "0x000000000000000000000000c6e7df5e7b4f2a278906862b61205850344d4e7d",
          "blockHash": "0x5b17baa96a610eaf5262bedc0036acce0f3ffe51ae62f7044db0cc44ee838271",
          "blockNumber": "0xe",
          "blockTimestamp": "0x6a27abbd",
          "transactionHash": "0xfb5f08ae3a54a092b06085ca7e5ab3bde7faed3706f265115ffe5b44e074e155",
          "transactionIndex": "0x3",
          "logIndex": "0x3",
          "removed": false
        }
      ],
      "logsBloom": "0x00000000000000000000000000000000100000000000000000000000000000000000000000000000000000000000000000000000000000000000000000000000000000000000000000000000000000080000000040000000000000000000000008000000000000000000000000000000000000000000000000000000000000000000000000000000000000000000000000000000000000000000000000000000002000000000000000000000008000000000000000000000002000000000000000000000000000000000000000000000040000008000000000000000000000000000000000000000000000000000000000000000000000000000000000000000",
      "transactionHash": "0xfb5f08ae3a54a092b06085ca7e5ab3bde7faed3706f265115ffe5b44e074e155",
      "transactionIndex": "0x3",
      "blockHash": "0x5b17baa96a610eaf5262bedc0036acce0f3ffe51ae62f7044db0cc44ee838271",
      "blockNumber": "0xe",
      "gasUsed": "0xde61",
      "effectiveGasPrice": "0xe49669f",
      "blobGasPrice": "0x1",
      "from": "0xf39fd6e51aad88f6f4ce6ab8827279cfffb92266",
      "to": "0x8a791620dd6260079bf849dc5567adc3f2fdc318",
      "contractAddress": null
    },
    {
      "type": "0x2",
      "status": "0x1",
      "cumulativeGasUsed": "0xde61",
      "logs": [
        {
          "address": "0x8a791620dd6260079bf849dc5567adc3f2fdc318",
          "topics": [
            "0xc466fe7ec25807cb9ca5e4b045c2cdc107cf8b58f9989f1994794ff6c55f4312",
            "0x0000000000000000000000000000000000000000000000000000000000000005"
          ],
          "data": "0x0000000000000000000000004ed7c70f96b99c776995fb64377f0d4ab3b0e1c1",
          "blockHash": "0x38a20f491e9e48ab7d4c086aef54ff05d25f6f5114a4506a7b53f2a697913fd9",
          "blockNumber": "0xf",
          "blockTimestamp": "0x6a27abbd",
          "transactionHash": "0x8e688f07559b96e46e9323c6813da9929fca16e254e49a77dfe64b13dde583b9",
          "transactionIndex": "0x0",
          "logIndex": "0x0",
          "removed": false
        }
      ],
      "logsBloom": "0x00000000000000000000000000000000100000000000000000000000000000000000000000000000000000000000000000000000000000000000000000000000000010000000000000000000000000080000000040000000000000000000000000000000000000000000000000000000000000000000000000000000000000000000000000000000000000000000001000000800000000000000000000000000002000000000000000000000008000000000000000000000000000000000000000000000000000000000000000000000040000000000000000000000000000000000000000000000000000000000000000000000000000000000000000000000",
      "transactionHash": "0x8e688f07559b96e46e9323c6813da9929fca16e254e49a77dfe64b13dde583b9",
      "transactionIndex": "0x0",
      "blockHash": "0x38a20f491e9e48ab7d4c086aef54ff05d25f6f5114a4506a7b53f2a697913fd9",
      "blockNumber": "0xf",
      "gasUsed": "0xde61",
      "effectiveGasPrice": "0xc872a8a",
      "blobGasPrice": "0x1",
      "from": "0xf39fd6e51aad88f6f4ce6ab8827279cfffb92266",
      "to": "0x8a791620dd6260079bf849dc5567adc3f2fdc318",
      "contractAddress": null
    },
    {
      "type": "0x2",
      "status": "0x1",
      "cumulativeGasUsed": "0x1bcc2",
      "logs": [
        {
          "address": "0x8a791620dd6260079bf849dc5567adc3f2fdc318",
          "topics": [
            "0xc466fe7ec25807cb9ca5e4b045c2cdc107cf8b58f9989f1994794ff6c55f4312",
            "0x0000000000000000000000000000000000000000000000000000000000000006"
          ],
          "data": "0x000000000000000000000000a85233c63b9ee964add6f2cffe00fd84eb32338f",
          "blockHash": "0x38a20f491e9e48ab7d4c086aef54ff05d25f6f5114a4506a7b53f2a697913fd9",
          "blockNumber": "0xf",
          "blockTimestamp": "0x6a27abbd",
          "transactionHash": "0xe3d8a8fd19771f5d514a92ecf1f72a0fbf6281e4b8ca768578296c4d48614799",
          "transactionIndex": "0x1",
          "logIndex": "0x1",
          "removed": false
        }
      ],
      "logsBloom": "0x00000000000000000000000000000000100000000000000000000000000000000000000000000000000000000000000000000000000400000000000000000000000000000000000000000000000000080000000040000000000000000000000000000000000000000000000000000000000000000000000000000000000000000000000400000000000000000000000000000000000000000000000000000000002000000000000000000000008000000000000000000000000000080000000000000000000000000000000000000000040000000000000000000000000000000000000000000000000000000000000000000000000000000000000000000000",
      "transactionHash": "0xe3d8a8fd19771f5d514a92ecf1f72a0fbf6281e4b8ca768578296c4d48614799",
      "transactionIndex": "0x1",
      "blockHash": "0x38a20f491e9e48ab7d4c086aef54ff05d25f6f5114a4506a7b53f2a697913fd9",
      "blockNumber": "0xf",
      "gasUsed": "0xde61",
      "effectiveGasPrice": "0xc872a8a",
      "blobGasPrice": "0x1",
      "from": "0xf39fd6e51aad88f6f4ce6ab8827279cfffb92266",
      "to": "0x8a791620dd6260079bf849dc5567adc3f2fdc318",
      "contractAddress": null
    },
    {
      "type": "0x2",
      "status": "0x1",
      "cumulativeGasUsed": "0x29b23",
      "logs": [
        {
          "address": "0x8a791620dd6260079bf849dc5567adc3f2fdc318",
          "topics": [
            "0xc466fe7ec25807cb9ca5e4b045c2cdc107cf8b58f9989f1994794ff6c55f4312",
            "0x0000000000000000000000000000000000000000000000000000000000000007"
          ],
          "data": "0x0000000000000000000000007a2088a1bfc9d81c55368ae168c2c02570cb814f",
          "blockHash": "0x38a20f491e9e48ab7d4c086aef54ff05d25f6f5114a4506a7b53f2a697913fd9",
          "blockNumber": "0xf",
          "blockTimestamp": "0x6a27abbd",
          "transactionHash": "0xd84d7b6e666e9ba32857c7e9adda8caa7dcb3b28434d9f01b27a8071ae272f55",
          "transactionIndex": "0x2",
          "logIndex": "0x2",
          "removed": false
        }
      ],
      "logsBloom": "0x00000000000000000000000000000000100000000000000000000000000000000000000000000000000000000000000000001000000000000000000000000000000020000000000000000000000000080000000040000000000000000000000000000000000000000000000000000000000000000000000000000000000000000000000000000000000000000000000000000000000000000000000000000000002000000000000000000000008000000000000000000000000000000000000000000000000000000000000000000000040000000000000000000100000000000000000000000000000000000000000000000000000000000000000000000000",
      "transactionHash": "0xd84d7b6e666e9ba32857c7e9adda8caa7dcb3b28434d9f01b27a8071ae272f55",
      "transactionIndex": "0x2",
      "blockHash": "0x38a20f491e9e48ab7d4c086aef54ff05d25f6f5114a4506a7b53f2a697913fd9",
      "blockNumber": "0xf",
      "gasUsed": "0xde61",
      "effectiveGasPrice": "0xc872a8a",
      "blobGasPrice": "0x1",
      "from": "0xf39fd6e51aad88f6f4ce6ab8827279cfffb92266",
      "to": "0x8a791620dd6260079bf849dc5567adc3f2fdc318",
      "contractAddress": null
    },
    {
      "type": "0x2",
      "status": "0x1",
      "cumulativeGasUsed": "0x37984",
      "logs": [
        {
          "address": "0x8a791620dd6260079bf849dc5567adc3f2fdc318",
          "topics": [
            "0xc466fe7ec25807cb9ca5e4b045c2cdc107cf8b58f9989f1994794ff6c55f4312",
            "0x0000000000000000000000000000000000000000000000000000000000000008"
          ],
          "data": "0x000000000000000000000000c5a5c42992decbae36851359345fe25997f5c42d",
          "blockHash": "0x38a20f491e9e48ab7d4c086aef54ff05d25f6f5114a4506a7b53f2a697913fd9",
          "blockNumber": "0xf",
          "blockTimestamp": "0x6a27abbd",
          "transactionHash": "0xad01811789609387871ed8085877158dbc8d2fbd7cf4cbc81d34b3f9c1d0a110",
          "transactionIndex": "0x3",
          "logIndex": "0x3",
          "removed": false
        }
      ],
      "logsBloom": "0x00000000000000000000000000000000100000000000000000000000000000000000000000000000000000000000000000000000000080000000000000000000000000000000000000000000000000080000000040000000000000000000000000000000000000000000000000000000000000000000000000000000000000000080000000000000000000000000000000000000000000000000000000000000002000000000000000000000008000000000000000000000000000000000000040000000000000000000000000000000040000000000000000000000000000000000000000000000000000000000000000000000000000000000000000000000",
      "transactionHash": "0xad01811789609387871ed8085877158dbc8d2fbd7cf4cbc81d34b3f9c1d0a110",
      "transactionIndex": "0x3",
      "blockHash": "0x38a20f491e9e48ab7d4c086aef54ff05d25f6f5114a4506a7b53f2a697913fd9",
      "blockNumber": "0xf",
      "gasUsed": "0xde61",
      "effectiveGasPrice": "0xc872a8a",
      "blobGasPrice": "0x1",
      "from": "0xf39fd6e51aad88f6f4ce6ab8827279cfffb92266",
      "to": "0x8a791620dd6260079bf849dc5567adc3f2fdc318",
      "contractAddress": null
    }
  ],
  "libraries": [],
  "pending": [],
  "returns": {},
  "timestamp": 1780811964993,
  "chain": 31337,
  "commit": "9738bca"
}